:020000040000FA
:06080000DBEF27F01200FF
:02080600FEFFF3
:0608080063EF0DF0120089
:02080E001200D6
:0408100012001200C0
:0308140000007F62
:0108170000E0
:0608180004EF23F01200C2
:02081E000B00CD
:10082000170800001D0300000100000078500000C0
:100830001B030000020000006C500000EE020000EC
:100840000C00000060500000E20200000C000000FC
:100850005E50000019030000020000005A50000022
:10086000FB010000040000004A500000D20200001A
:100870001000000044500000FA02000006000000D2
:100880002B500000CD0100001900000006080000F8
:10089000170300000200000014080000FD00000023
:0408A0000300000051
:0C08A4008EEC09F0FB0EDBCFF3FFDB064F
:1008B000F35000090AE0DCEC09F0FA0E47EC0AF00C
:1008C000F3E1151CF1E1010E01D0000EBDEF09F0BE
:1008D0008EEC09F03B0EE12402E3E168E652E16EA2
:1008E000010EDB6A020EDB6AF90EDBCFF6FFFA0EB1
:1008F000DBCFF7FFFB0EDBCFF8FF0800F550DF6E14
:10090000DF5002E1E1EF08F0250EDF5C02E0D4EFFA
:1009100008F0030EDB6A040EDB6A050EDB6A060EC6
:10092000DB6A070EDB6AF6EC08F02D0EDF5C0CE0EC
:100930002B0EDF5C09E0200EDF5C06E0230EDF5C9F
:1009400003E0300EDF5C1AE1DF50300A14E0130AD6
:100950000FE0030A0AE00B0A05E0060AE4E1030ED1
:10096000DB80E1D7030EDB82DED7030EDB84DBD72F
:10097000030EDB86D8D7030EDB88D5D72A0EDF5CC3
:100980001BE1F2EC08F040EC09F010E0030EDB8014
:1009900008680968130EDBCF0DF0140EDBCF0EF0E4
:1009A00016EC1CF0040E06C0DBFF03D0130E29EC7E
:1009B00009F0F6EC08F00BD0090EDB6A97EC09F0B1
:1009C00003E00BEC0AF0FAD7090E29EC09F0030E4C
:1009D000DBB0DB982E0EDF5C1BE1F6EC08F02A0E94
:1009E000DF5C0BE1F2EC08F040EC09F003E1130EE0
:1009F0007BEC09F0F6EC08F00BD0090EDB6A97EC03
:100A000009F003E00BEC0AF0FAD7090E7BEC09F0D1
:100A1000680EDF5C07E1F6EC08F0680EDF5C1DE1B4
:100A2000030E18D0740EDF5C17E07A0EDF5C14E062
:100A3000480EDF5C06E0540EDF5C03E05A0EDF5C1C
:100A400002E1020E07D06C0EDF5C03E06A0EDF5C91
:100A500004E1010ECEEC09F0C9DBDF506E0A01E1C2
:100A60007FD31E0A01E192D1200A01E18FD13F0A12
:100A700001E149D11A0A01E146D10D0A01E143D150
:100A8000200A01E140D13A0A01E13DD1200A01E109
:100A90003AD1260A01E135D10D0A01E132D11A0A13
:100AA00001E1D9D0200A4AE0300A1FE0460A0EE0F0
:100AB000250A01E083D3D950F90FE96EFF0EDA2041
:100AC000EA6E010EEE5E000EEE5AEE5ADCEC09F014
:100AD000250EE66E95DB03E1151C01E169D3D8EC28
:100AE00009F001E26BD3DB2A69D3080EDB6A040E3E
:100AF000DB50010806E2040EDB04A0EC09F0DB5039
:100B00008BDB080EDB5009E0030EDB50010B05E127
:100B100072DB01E04DD3080EDB6A64DBEFCFDFFF51
:100B200050EC0AF003E1151C01E142D3D8EC09F0C6
:100B300001E3DB2A60DB01E141D33AD3070EDB504E
:100B400002080FE11CEC0AF0030EE3EC09F00E0EB4
:100B5000EECFDBFF0F0EEECFDBFF100EEECFDBFF95
:100B600020D0F70EDBCF17F0F80EDBCF18F0020E17
:100B7000175E000E185AF70E17C0DBFFF80E18C0EC
:100B8000DBFF17C0E9FF18C0EAFFD3EC09F0166AD3
:100B90000E0E14C0DBFF0F0E15C0DBFF100E16C0CB
:100BA000DBFF0E0EDBCFE6FF0F0EDBCFE6FF100EF6
:100BB000DBCFE6FF2CEC27F0E552E552E552130EB1
:100BC00007C0DBFF140E08C0DBFF060EDB5005E09C
:100BD000130E17EC0AF001E26ADB3BEC0AF002E2CA
:100BE000130E37DBFEEC09F006E0040E17EC0AF0FA
:100BF00002E2050E2EDB030EDBB005D0FCDA01E0CD
:100C0000D7D2080EDB6A090EDB6A0E0EDBCFF6FFC9
:100C10000F0EDBCFF7FF100EDBCFF8FF0800F5500B
:100C2000DF6EDF5014E041EC0AF011E250EC0AF004
:100C300003E1151C01E1BCD2BBDB01E3DB2A090E99
:100C4000DB2AD9500E0FE96E000ECBDBE7D7D3DAE3
:100C500001E1B4D2ADD2C6DA110EEECFDBFF120E37
:100C6000EDCFDBFF110EDBCFE6FF120EDBCFE6FF91
:100C70001EEC27F0E552E552130EF3CFDBFF140E06
:100C8000F4CFDBFF060EDB5004E0130ED0DB01E2F5
:100C90000EDB3BEC0AF002E2130EDBDAAFDB05E021
:100CA000040EC5DB02E2050ED4DA030EDBB005D07C
:100CB000A2DA01E07DD2080EDB6A090EDB6A110EB2
:100CC000DBCFE9FF120EDBCFEAFFEFCFDFFFDF5014
:100CD00014E0D7DB12E2E4DB03E1151C01E168D28A
:100CE00067DB01E3DB2A090EDB2A110EDB2ADBCFEF
:100CF000E9FF120EE8E3DB2AE6D77DDA01E15ED2F6
:100D000057D2030EDB8E070EDB0410E195DB040ED9
:100D10005ADB0A0EEECFDBFF0B0EEECFDBFF0C0E25
:100D2000EECFDBFF0D0EEECFDBFF6CD0070EDB50FE
:100D300003082CE1030EDBAE0DD0B2DA020E76DA38
:100D4000EFCF14F0156A166A176A14AE39D0156819
:100D5000166835D0F70EDBCF15F0F80EDBCF16F0A6
:100D6000020E155E000E165AF70E15C0DBFFF80EC8
:100D700016C0DBFF15C0E9FF16C0EAFFEFCF14F085
:100D80000A0E14C0DBFF0B0EDB6A38D0070EDB50F7
:100D9000020809E1030EDBAE04D059DB16AE10D019
:100DA0000ED055DB0DD0030EDBAE12D079DA020E79
:100DB0003DDAF9DA166A176A15AE02D016681768B6
:100DC000E2DA0C0E16C0DBFF0D0E17C0DBFF1AD0E7
:100DD000F70EDBCF16F0F80EDBCF17F0020E165E23
:100DE000000E175AF70E16C0DBFFF80E17C0DBFF18
:100DF00016C0E9FF17C0EAFFD6DAC5DA0C0EDB6AC7
:100E00000D0EDB6A060EDB5005E1010EF36E050EDA
:100E1000F3CFDBFF150EDB6A160EDB6AD950370FF6
:100E2000146E000EDA20156E390E14C0DBFF3A0E78
:100E300015C0DBFF380EDB6A080EDB6A0A0EAEDA7D
:100E4000DF50780A12E0200A10E0280A0CE0200A9D
:100E50000AE03F0A06E00D0A02E0200A08E1020E5D
:100E600005D0080E03D0080EDF26100E97DA030E09
:100E7000DBBE02D0DB92DB94DB50800B24E08ADA0D
:100E8000D890030EEB50000A08E6000EEE5C000E50
:100E9000EE58000EEE58000EEE5815E213DA0B680D
:100EA0000C680D680E68E6EC26F00A0E02C0DBFF47
:100EB0000B0E03C0DBFF0C0E04C0DBFF0D0E05C0E4
:100EC000DBFF2D0E08D0030EDBA202D02B0E03D0C9
:100ED000DBA408D0200EF36E170EF3CFDBFF150E48
:100EE000DB2A02D0170EDB6A050EDB5003E1B7D90F
:100EF00001E189D01A0E146E500E156E000E166E9A
:100F0000070EDBCF17F0186A196A1A6A17C00BF0C0
:100F100018C00CF019C00DF01AC00EF0D3D984EC33
:100F200027F014500224F36E15500320F46E16506F
:100F30000420F86EF4CFF7FFF3CFF6FF0800090E98
:100F4000F5CFDBFF580EDF5C0FE1610EF36E090E8B
:100F50007BD90AE3200E146E090EDBCFE7FF145095
:100F6000E75E090EE7CFDBFF070EDBCF14F0156A53
:100F7000166A176A0FDA14C00BF015C00CF016C011
:100F80000DF017C00EF0EECF06F0EECF07F0EECF6B
:100F900008F0EFCF09F084EC27F009C0EDFF08C09E
:100FA000EDFF07C0EDFF06C0EFFF390EDBCFE9FF15
:100FB000DB063A0EDBCFEAFF01E2DB06090EDBCFF0
:100FC000EFFF150EDB2A4BD995E1030EDBA61DD0F2
:100FD0006F0EDF5C06E1C1D918E3150EDB285BDA82
:100FE00014D0780EDF5C09E0580EDF5C06E0620E7C
:100FF000DF5C03E0420EDF5C08E1020EF36E160ECA
:10100000F3CFDBFF02D0150EDB6A030EDB50100BB3
:101010000EE0040EDBCF14F0050EDB50D880145424
:1010200006E2060EDB5003E1040EDB5034DA95D9FC
:101030000AE2050EDBCFE7FF150EDB50E75E050E7B
:10104000E7CFDBFF02D0050EDB6A040EDBCF14F026
:10105000160E45D9D880145414E2160EDBCFE6FFE5
:10106000150EDBCFE6FF040EDBCFE6FF050EDB50EF
:10107000E552E75CE552D880E754E552D880E75462
:101080005FD9030EDB50010B0BE1080EDB5008E0CB
:10109000B2D801E08DD0080EDB50BED8080EDB6A56
:1010A000170EDB5007E088D9170EF1D903E1151CA4
:1010B00001E17ED0160EDB5016E07ED9300EE66ED2
:1010C0009FD802E1151C74E077D9DFCFE6FFA4ECCE
:1010D00026F0E552E552E552F4CF15F00001F31C7D
:1010E00002E1151C65E0050EDBCF14F0160EDB5097
:1010F000D880145409E2050EDBCFE7FF160EDB5053
:10110000E75E050EE7CFDBFF300EE66E050ECBD9AE
:101110004FE1390EDB2ADBCFE9FF3A0E01E3DB2A90
:10112000DBCFEAFF090EEFCFDBFFDB500EE044D947
:10113000090EADD902E1151C3BE0390EDB2ADBCFED
:10114000E9FF3A0EEDE3DB2AEBD755D831E1160E75
:10115000DBCFE6FF080EC3D8E552E7245DD82ED0DA
:10116000070EDB50030A1CE0010A14E0030A07E043
:101170007BD9DBCFEEFF020EDBCFEDFF1FD0F5D822
:10118000196A17AE02D0186819682CD8BCD819C0D3
:10119000EEFF14D0EAD817BE186824D8B4D80ED001
:1011A00063D9DBCFEFFF0AD07BD905E1151C03E142
:1011B000F368F46810D0FCD801E3DB2A79D97DEF1D
:1011C00004F0010EDBCF14F0020EDBCF15F014C0DB
:1011D000F3FF15C0F4FF3B0EE15C02E2E16AE55269
:1011E000E16ECBD029D9020EE3EF09F061D90800F6
:1011F000F550DF6E1200200EE66E080E53EF0AF077
:10120000A4EC26F0E552E552E552F3CF14F0F4CF0A
:1012100015F00001F31C1200146E156AD950010F6D
:101220004DD91450EE261550ED221200185E000E16
:10123000195AF70E18C0DBFFF80E19C0DBFF18C0F3
:10124000E9FF19C0EAFF1200DBCFF4FFF350F45CB2
:101250001200DB50E76E040EE7CFDBFF12000A0E30
:10126000DBCF14F00B0EDBCF15F00C0EDBCF16F03E
:101270000D0EDBCF17F014501510161017101200BA
:10128000130EEECFDBFF140EEDCFDBFF130EDBCF23
:1012900014F0140EDBCF15F00001800E15141200AF
:1012A000F70EDBCF18F0F80EDBCF19F01200050EA9
:1012B000DB50E66ED950130F01D9E552E750EE6EC0
:1012C000ED6A12000A0EDBCF06F00B0EDBCF07F043
:1012D0000C0EDBCF08F00D0EDBCF09F01200DBCFD8
:1012E000E6FF150EDBCFE6FF050EDB50E552E724E7
:1012F000E552E7241200DB50CED8010EF36E060E45
:10130000F3CFDBFF1200EE50EFCFEAFFE96E16C01D
:10131000EEFF17C0EEFF18C0EEFF1200D9CFE6FFB8
:10132000DACFE6FFE1CFD9FFE2CFDAFF1200DFCF5D
:10133000E6FFE66AEDEC27F0E552E552F3501200C5
:10134000E76E080EE7CFDBFF1200EECF14F0EECF12
:1013500015F0EFCF16F0176A1200050EDBCF14F070
:10136000150EDB50D88014541200010EDBCF16F09E
:10137000020EDBCF17F0186A1200E552E5CFDAFF54
:10138000E7CFD9FF12000A0E14C0DBFF0B0E15C009
:10139000DBFF1200D9500A0F5EEF0AF0F36E070E62
:1013A000F3CFDBFF1200EECF14F0EFCF15F01200F9
:1013B000010EDB2A020E1200FC0EDBCFE6FFFD0E53
:1013C000DBCFE6FF1200145E000E155AF70E14C0B4
:1013D000DBFFF80E15C0DBFF14C0E9FF15C0EAFF04
:1013E0001200DA20EA6EEF2AEECFF6FF000EEF22AF
:1013F000EECFF7FFEF22EECFF8FF1200040EDBCFA7
:10140000E6FF130EDB50E552E75C9ADFDB5004DFAA
:10141000060EDB501200090EDB500A0DF350DF24DC
:10142000D00FE76E090EE7CFDBFFF6EF08F0DB50D9
:10143000F36E050E24EF09F0F70EDBCF14F0F80E73
:10144000DBCF15F01200DFCFE6FF00EF09F028DF59
:10145000030EECDEA5EF09F052EC04F0E552E55284
:10146000E552E55200091200BDDEEE50EFCFEAFF73
:10147000E96E010E1200130EDB50F36E040E24EF22
:1014800009F0040EDB50F36E090E24EF09F0DBCFF8
:10149000E6FF00EF09F0E76E050EE7CFDBFF120075
:1014A0008BDF23EF0AF0DBCFE6FF86DF2CEF0AF0BD
:1014B000D950F90FE96EFF0EF1EF09F0E96E000E59
:0614C000DA20EA6E1200C2
:0A14C600D9CFE6FFE1CFD9FFE652CF
:1014D00037D80101CC97CC99900E846F010E856F9F
:1014E000DF6A100EDF5C0AE2DF50EA6A8425E96EEB
:1014F0008551EA227F0EEF6EDF2AF3D7A96B010E2A
:10150000AA6FC20EAB6FCC85AE6BAF6B8C6B8E6B64
:101510008F6B8C0EE66E010EE66E86D8E552E552B4
:101520000101CC938C0EE66E010EE66E7DD8E5527D
:10153000E5520101CC93E552E552E7CFD9FF120005
:10154000806A816A826A836A846A856A866A876A2F
:10155000886A896A8A6A8B6A8C6A8D6A8E6A8F6ADF
:10156000906A916A2F0E926E93689C0E946E956AA3
:10157000966A9768040E986E99680E0E9A6EB098E7
:101580009C8EF26AF16AF06A9E6AA16AA46A080EE9
:101590009D6EA06AA36A9F6EA26AA56A050EC66EBA
:1015A000C68AD08EF288F28CF28E120082828088F7
:1015B000949292981200D9CFE6FFE1CFD9FFE6527C
:1015C0000101CCA12CD0CCA905D0400E806F010E1A
:1015D000816F04D0600E806F010E816FFD0EDBCF36
:1015E00082F1FE0EDBCF83F1DF6A200EDF5C14E2B6
:1015F000DF50EA6A8025E96E8151EA22EF50E66EFB
:1016000082C1E9FF83C1EAFF822B000E8323E552EA
:10161000E750EF6EDF2AE9D79D96CC919D86E55283
:10162000E552E7CFD9FF1200D9CFE6FFE1CFD9FFCE
:10163000E6520101CCB350D0FD0EDBCFE9FFFE0E28
:10164000DBCFEAFF1E0EE926000EEA22EF50020869
:1016500009E1FD0EDBCFE6FFFE0EDBCFE6FF46D84D
:10166000E552E552FD0EDBCFE9FFFE0EDBCFEAFFD0
:10167000150EE926000EEA22EF9E0101CCA705D047
:10168000200E806F010E816F04D0000E806F010E5E
:10169000816FFD0EDBCF84F1FE0EDBCF85F1DF6ABB
:1016A000200EDF5C14E284C1E9FF85C1EAFF842BD0
:1016B000000E8523EF50E66EDF50EA6A8025E96E62
:1016C0008151EA22E552E750EF6EDF2AE9D79D9675
:1016D000CC77CC839D86A92BE552E552E7CFD9FF85
:1016E00012009D960101CC919D861200D9CFE6FF94
:1016F000E1CFD9FFFD0EDBCFE9FFFE0EDBCFEAFF26
:101700001C0EE926000EEA22EF6AFD0EDBCFE9FF90
:10171000FE0EDBCFEAFF170EE926000EEA22EF6A83
:10172000C6AE0ED0C69EFD0EDBCFE9FFFE0EDBCFB0
:10173000EAFF170EE926000EEA22010EEF6E22D014
:10174000F150800B10E0F250080B0DE0FD0EDBCFE6
:10175000E9FFFE0EDBCFEAFF170EE926000EEA22B4
:10176000020EEF6E0FD0F0A60DD0909EFD0EDBCFD7
:10177000E9FFFE0EDBCFEAFF170EE926000EEA2294
:10178000030EEF6E250EC614250819E0FD0EDBCF03
:10179000E9FFFE0EDBCFEAFF1C0EE926000EEA226F
:1017A000010EEF6EFD0EDBCFE9FFFE0EDBCFEAFF91
:1017B000170EE926000EEA22C6CFEFFF80D1C550F2
:1017C00019E0FD0EDBCFE9FFFE0EDBCFEAFF1C0EBA
:1017D000E926000EEA22020EEF6EFD0EDBCFE9FFD6
:1017E000FE0EDBCFEAFF170EE926000EEA22C5CF78
:1017F000EFFF65D1D0BE19D0FD0EDBCFE9FFFE0EA5
:10180000DBCFEAFF1C0EE926000EEA22030EEF6E84
:10181000FD0EDBCFE9FFFE0EDBCFEAFF170EE92658
:10182000000EEA22D0CFEFFF4AD19DB619D0FD0EAF
:10183000DBCFE9FFFE0EDBCFEAFF1C0EE926000E30
:10184000EA22040EEF6EFD0EDBCFE9FFFE0EDBCFCA
:10185000EAFF170EE926000EEA229DCFEFFF2FD1F7
:101860009C5019E0FD0EDBCFE9FFFE0EDBCFEAFF57
:101870001C0EE926000EEA22050EEF6EFD0EDBCFF0
:10188000E9FFFE0EDBCFEAFF170EE926000EEA2283
:101890009CCFEFFF14D1080E9F5C19E0FD0EDBCF4B
:1018A000E9FFFE0EDBCFEAFF1C0EE926000EEA225E
:1018B000060EEF6EFD0EDBCFE9FFFE0EDBCFEAFF7B
:1018C000170EE926000EEA229FCFEFFFF8D0A250B4
:1018D00019E0FD0EDBCFE9FFFE0EDBCFEAFF1C0EA9
:1018E000E926000EEA22070EEF6EFD0EDBCFE9FFC0
:1018F000FE0EDBCFEAFF170EE926000EEA22A2CF8A
:10190000EFFFDDD0A55019E0FD0EDBCFE9FFFE0EA5
:10191000DBCFEAFF1C0EE926000EEA22080EEF6E6E
:10192000FD0EDBCFE9FFFE0EDBCFEAFF170EE92647
:10193000000EEA22A5CFEFFFC2D0100EF21410085D
:1019400019E0FD0EDBCFE9FFFE0EDBCFEAFF1C0E38
:10195000E926000EEA22090EEF6EFD0EDBCFE9FF4D
:10196000FE0EDBCFEAFF170EE926000EEA22F2CFC9
:10197000EFFFA5D0470EF11419E0FD0EDBCFE9FF14
:10198000FE0EDBCFEAFF1C0EE926000EEA220A0E4D
:10199000EF6EFD0EDBCFE9FFFE0EDBCFEAFF170E89
:1019A000E926000EEA22F1CFEFFF89D0C00EF01435
:1019B00019E0FD0EDBCFE9FFFE0EDBCFEAFF1C0EC8
:1019C000E926000EEA220B0EEF6EFD0EDBCFE9FFDB
:1019D000FE0EDBCFEAFF170EE926000EEA22F0CF5B
:1019E000EFFF6DD092A819D0FD0EDBCFE9FFFE0E00
:1019F000DBCFEAFF1C0EE926000EEA220C0EEF6E8A
:101A0000FD0EDBCFE9FFFE0EDBCFEAFF170EE92666
:101A1000000EEA2292CFEFFF52D093B019D0FD0E04
:101A2000DBCFE9FFFE0EDBCFEAFF1C0EE926000E3E
:101A3000EA220D0EEF6EFD0EDBCFE9FFFE0EDBCFCF
:101A4000EAFF170EE926000EEA2293CFEFFF37D008
:101A50003E0E94141C0819E0FD0EDBCFE9FFFE0ECC
:101A6000DBCFEAFF1C0EE926000EEA220E0EEF6E17
:101A7000FD0EDBCFE9FFFE0EDBCFEAFF170EE926F6
:101A8000000EEA2294CFEFFF1AD097BE18D0FD0EB9
:101A9000DBCFE9FFFE0EDBCFEAFF1C0EE926000ECE
:101AA000EA220F0EEF6EFD0EDBCFE9FFFE0EDBCF5D
:101AB000EAFF170EE926000EEA2297CFEFFFE55264
:101AC000E7CFD9FF1200D8CFE4FFE0CFE4FFE46E08
:101AD000DACFE4FFE2CFDAFFE9CFE4FFEACFE4FFB9
:101AE000E6529EA624D09E96C9CF8BF101018A5161
:101AF00000081BE288C1E9FF89C1EAFF882B000EBC
:101B000089238BC1EFFF86C1E9FF87C1EAFF862BDE
:101B10008723EFCF8BF18BC1C9FF8A078A5104E17C
:101B2000020EAA6FCC93CC8101D0C96A29D0F2A24F
:101B300027D0F2920101200E8A6FCCA905D0600E49
:101B4000886F010E896F04D0400E886F010E896F77
:101B5000CCA1CC79CCA705D0000E866F010E876F83
:101B600004D0200E866F010E876FC9CF8BF186C11E
:101B7000E9FF87C1EAFF862B000E8723EF50C96E6D
:101B8000E552E5CFEAFFE5CFE9FFE5CFDAFFE55023
:0A1B9000E5CFE0FFE5CFD8FF10001D
:061B9A00020184511DE16F
:101BA000010E846F0A0EA46FA56BA66BA76BA86BC2
:101BB000A96B9C0EAA6FAB69640EAC6FAD6B0A0E7D
:101BC000AE6FAF6BB06BB16BB26BB36B9C0EB46F9F
:101BD000B569640EB66FB76B00D0ACC2E6FFADC29C
:101BE000E6FFA8C2E6FFA9C2E6FFA6C2E6FFA7C2BB
:101BF000E6FFA4C2E6FFA5C2E6FF860EE66E020E71
:101C0000E66E82EC18F0146E0A0EE15E1450B6C255
:101C1000E6FFB7C2E6FFB2C2E6FFB3C2E6FFB0C25C
:101C2000E6FFB1C2E6FFAEC2E6FFAFC2E6FF950E29
:101C3000E66E020EE66E82EC18F0146E0A0EE15E9D
:101C4000145004D80201010E846F1200EFEC23F04F
:101C50002FEC24F068EF1AF00101B2510201806FFD
:101C6000816B7F0E805F000E815B0101B351020129
:101C7000826F836B7F0E825F000E835B1200D9CF71
:101C8000E6FFE1CFD9FFFB0EDBCF14F0FC0EDBCF7C
:101C900015F0FD0EDB50000114240201806FFE0ED2
:101CA000DB50000115200201816FFD0EDBCF14F027
:101CB000FE0EDBCF15F0FB0EDB500001145C0201C1
:101CC000826FFC0EDB50000115580201836FE55254
:101CD000E7CFD9FF1200D9CFE6FFE1CFD9FF0E0E33
:101CE000E1260101B351146E156A7F0E145E000ED9
:101CF000155A14C0DEFF15C0DDFFB751146E156A0A
:101D00007F0E145E000E155A020E14C0DBFF030E88
:101D100015C0DBFFDECFE6FFDDCFE6FFBFEC13F043
:101D2000E552E552040EF3CFDBFF050EF4CFDBFFE7
:101D3000020EDBCFE6FF030EDBCFE6FFBFEC13F0B6
:101D4000E552E552060EF3CFDBFF070EF4CFDBFFC3
:101D5000D9CFE9FFDACFEAFF080EEECFDBFF090E9D
:101D6000EDCFDBFF020EDBCF08F0030EDBCF09F077
:101D70000A0E08C0DBFF0B0E09C0DBFF040EDBCF31
:101D800014F0050EDBCF15F07F0ED8801456000E30
:101D900015563C0E1426000E15220C0E14C0DBFF47
:101DA0000D0E15C0DBFF0A0EDBCF08F00B0EDBCFEC
:101DB00009F00C0EDBCF0DF00D0EDBCF0EF016ECA4
:101DC0001CF006C014F007C015F0BB0E0D6E0E68B7
:101DD00014C008F015C009F0BCEC1BF008C014F0EA
:101DE00009C015F00A0E14C0DBFF0B0E15C0DBFF97
:101DF0000A0EDBCFE6FF0B0EDBCFE6FF080EDBCFD4
:101E0000E6FF090EDBCFE6FF3ADFE552E552E55289
:101E1000E5520E0EE15C02E2E16AE552E16EE55246
:101E2000E7CFD9FF12000201EE6B12000201010E92
:101E3000EE6F12000201EE5102E0000E01D0010E21
:101E4000EE6F1200D9CFE6FFE1CFD9FFFE0EDBCF58
:101E5000EEF2E552E7CFD9FF12000201010EEF6F5B
:101E600012000201EF6B1200D9CFE6FFE1CFD9FFDC
:101E7000020EE12687EC19F006C0DEFF07C0DDFF89
:101E8000DECF14F0DDCF15F0FD0EDBCF16F0FE0E29
:101E9000DBCF17F0050E165E000E175A15501718F7
:101EA000E8AE02D0173404D01650145C1750155801
:101EB0001BE3DECF18F0DDCF19F0050EE76EFD0E47
:101EC000DBCF1AF0FE0EDBCF1BF0E7501A26000E18
:101ED0001B221B501918E8AE02D0193404D0185038
:101EE0001A5C19501B5821E2FD0EDBCFE6FFFE0EF7
:101EF000DBCFE6FFDECFE6FFDDCFE6FF860EE66E48
:101F0000020EE66E51EC16F0146E060EE15E1450F1
:101F1000E66EE66A000EE66EE66AB1DEE552E5526E
:101F2000E552E552000E03D002D0010E00D0146E2F
:101F3000020EE15C02E2E16AE552E16E1450E55204
:101F4000E7CFD9FF1200D9CFE6FFE1CFD9FF020ECC
:101F5000E12687EC19F006C0DEFF07C0DDFF000EAA
:101F6000E66EE66ADECFE6FFDDCFE6FF860EE66EC2
:101F7000020EE66E51EC16F0146E060EE15E145081
:101F8000E66EE66AFE0EDBCFE6FFE66A78DEE55235
:101F9000E552E552E552020EE15C02E2E16AE552E9
:101FA000E16EE552E7CFD9FF1200D9CFE6FFE1CFCE
:101FB000D9FFC7EC23F006C014F007C015F008C025
:101FC00016F009C017F014C0E6FF15C0E6FF16C0F2
:101FD000E6FF17C0E6FF07EC24F0E552E7CF17F065
:101FE000E552E7CF16F0E552E7CF15F0E552E7CF1F
:101FF00014F014500624066E15500720076E165074
:102000000820086E17500920096E020E0B6E0C6A2C
:102010000D6A0E6AE2EC1BF006C0F0F207C0F1F2A6
:10202000FC0EDBCF14F0FD0EDBCF15F0050E145EB9
:10203000000E155A0201F1511518E8AE02D0153400
:1020400004D01450F05D1550F15917E3050EE76EFA
:10205000FC0EDBCF16F0FD0EDBCF17F0E750162697
:10206000000E17221750F119E8AE02D0F13504D056
:10207000F051165CF15117581AE2FC0EDBCFE6FF67
:10208000FD0EDBCFE6FFF0C2E6FFF1C2E6FF950EE4
:10209000E66E020EE66E51EC16F0146E060EE15E70
:1020A0001450E66E50DFE552000E03D002D0010E50
:1020B00000D0E552E7CFD9FF12000201B85101016B
:1020C000BB5D06E0BB517F0802E203D801D005D812
:1020D00012000201010E856F12000201856B1200D1
:1020E000D9CFE6FFE1CFD9FFFE0EDB50146E156AA3
:1020F000020115508319E8AE02D0833504D0825115
:10210000145C8351155803E2FE0EDB5010D0FE0E16
:10211000DB50FF0DF35083AF02D0D89003D0825D27
:10212000000E835906E2FE0EDB50FF0DF350826F66
:10213000836BFE0EDB50146E156A15508119E8AEE4
:1021400002D0813504D08051145C8151155803E2CE
:10215000FE0EDB5010D0FE0EDB50FF0DF35081AFB2
:1021600002D0D89003D0805D000E815906E2FE0EA9
:10217000DB50FF0DF350806F816BE552E7CFD9FF45
:1021800012000201845101E108DD0201EE5103E079
:102190008D808C9002D08D908C80EF511BE080C29E
:1021A00014F081C215F0141E151E14C0E6FF15C0F0
:1021B000E6FFEBEC13F0E552E552F3CFBBF282C23F
:1021C000E6FF83C2E6FFEBEC13F0E552E552F3CFF6
:1021D000BCF22FD080C214F081C215F0141E151E5F
:1021E00014C0E6FF15C0E6FFEBEC13F0E552E55234
:1021F000F3CFBCF282C2E6FF83C2E6FFEBEC13F042
:10220000E552E552F3CFBBF20201BC51146E156AE0
:10221000FF0ED8801456000E155614C0BCF2BB51E8
:10222000146E156AFF0ED8801456000E155614C091
:10223000BBF2BBC294F1BBC293F1BCC291F1BCC270
:0422400090F1120007
:0C224400B2C190F1B3C191F1B4C192F1AC
:10225000B5C193F1B6C194F1B7C195F1B8C196F18A
:10226000B9C197F1BAC198F1BBC199F1BCC19AF15A
:10227000BDC19BF10101B251146E156AFF0ED880E9
:102280001456000E155614C0B6F101019451146E87
:10229000156AFF0ED8801456000E155614C0B2F100
:1022A0000101B251176AD00F166E070E1722B651F0
:1022B00000011624146E000E1720156E7F0E145E9A
:1022C000000E155A14C0E6FF15C0E6FF1ADAE552F3
:1022D000E55201019D6F9C6F0101B251176AD00F49
:1022E000166E070E1722B651186E196A1850165C32
:1022F000146E19501758156E7F0E1426000E1522F5
:1023000014C0E6FF15C0E6FFFCD9E552E552010115
:102310009F6F9E6F8150040B01E0010E146E01014E
:10232000AE51010B1414E8B08D80E8A08D9081505F
:10233000080B01E0010E146EAE51020B01E0010E1C
:102340001414E8B08C80E8A08C908150100B01E050
:10235000010E146EAF51010B1414E8B08D82E8A089
:102360008D928150200B01E0010E146EAF51020BD3
:1023700001E0010E1414E8B08C82E8A08C92AE51FA
:10238000100B02E08D8401D08D94AE51200B02E041
:102390008C8401D08C94AF51100B02E08D8601D05B
:1023A0008D96AF51200B02E08C8601D08C96AE51F9
:1023B000040B02E08D8801D08D98AE51080B02E02D
:1023C0008C8801D08C98AE51400B02E08D8A01D0F0
:1023D0008D9AAE51800B02E08C8A01D08C9AAF515D
:1023E000400B02E08D8C01D08D9CAF51800B02E040
:1023F0008C8C01D08C9C8850800B02E0919001D095
:1024000091808C9E920EE66E010EE66E8150400B1E
:1024100001E0010EE66E3BD9E552E552E552920E1F
:10242000E66E010EE66E8150800B01E0010EE66E55
:102430004AD9E552E552E552930EE66E010EE66E7C
:102440008750010BE66E23D9E552E552E552930E13
:10245000E66E010EE66E8750020B01E0010EE66E9D
:1024600032D9E552E552E552980EE66E010EE66E5F
:102470008750040B01E0010EE66E09D9E552E552E2
:10248000E552980EE66E010EE66E8750080B01E0ED
:10249000010EE66E18D9E552E552E552990EE66E48
:1024A000010EE66E8850020B01E0010EE66EEFD8D9
:1024B000E552E552E552990EE66E010EE66E885041
:1024C000040B01E0010EE66EFED8E552E552E5523E
:1024D0009A0EE66E010EE66E8850080B01E0010EC2
:1024E000E66ED5D8E552E552E5529A0EE66E010E3B
:1024F000E66E8250010BE66EE6D8E552E552E552F3
:102500009B0EE66E010EE66E8850100B01E0010E88
:10251000E66EBDD8E552E552E5529B0EE66E010E21
:10252000E66E8850200B01E0010EE66ECCD8E55235
:10253000E552E55212000101ADBB56D07D0EB25DF1
:102540000EE3B251146E156A153404E2145081087A
:10255000000E155404E301018C818C8303D001012A
:102560008C918C938C9B8D50010B01E08C8B8C9902
:102570008C50010B01E08C898C9F8D50020B01E087
:102580008C8F8C9D8C50020B01E08C8D8150040B44
:1025900001E0010E146E156A1450151002E0000ED1
:1025A00001D0010E8D91E8B08D818150080B01E0C2
:1025B000010E146E156A1450151002E0000E01D0C1
:1025C000010E8D93E8B08D838150100B01E0010E58
:1025D000146E156A1450151002E0000E01D0010EA1
:1025E0008D95E8B08D8552D0C3C109F0EBEC1AF09F
:1025F00007C01CF008C01DF009C01EF00AC01FF083
:10260000710E0C6E3D0E0D6E7A0E0E6E410E0F6E3B
:102610001CC007F01DC008F01EC009F01FC00AF062
:102620004FEC1BF007C018F008C019F009C01AF0F1
:102630000AC01BF00C6A0D6A800E0E6E430E0F6E00
:1026400018C007F019C008F01AC009F01BC00AF042
:10265000FCEC1AF007C014F008C015F009C016F021
:102660000AC017F00C6A0D6A200E0E6E410E0F6E36
:1026700014C007F015C008F016C009F017C00AF022
:102680004FEC1BF043EC1CF009C08CF11200D9CFC9
:10269000E6FFE1CFD9FFFE0EDB5011E1FC0EDBCFF0
:1026A000E9FFFD0EDBCFEAFFEF507F0808E2FC0EEA
:1026B000DBCFE9FFFD0EDBCFEAFF7F0EEF6EE552C9
:1026C000E7CFD9FF1200D9CFE6FFE1CFD9FFFE0E49
:1026D000DB5013E1FC0EDBCFE9FFFD0EDBCFEAFFA1
:1026E000EFCF14F07F0E145C08E2FC0EDBCFE9FFA5
:1026F000FD0EDBCFEAFF7F0EEF6EE552E7CFD9FF8D
:102700001200D9CFE6FFE1CFD9FFFD0EDBCF14F0E9
:10271000FE0EDBCF15F0D890155004E6D00E145CF9
:10272000070E155805E20301D00E156F070E11D0E4
:10273000FD0EDBCF14F0FE0EDBCF15F0153404E2F6
:102740001450CE08080E155406E20301CE0E156F84
:10275000080E166F06D0FD0EDBCF15F3FE0EDBCF95
:1027600016F315C314F016C315F0D00E145E070E41
:0E277000155A145000D0E552E7CFD9FF1200E1
:02277E00D9CFB1
:10278000E6FFE1CFD9FFFD0EDBCF14F0FE0EDBCF6D
:1027900015F00001800E15140BE0FD0EDBCF14F0D8
:1027A000FE0EDBCF15F0146C151E000E152206D0A0
:1027B000FD0EDBCF14F0FE0EDBCF15F014C0F3FFDF
:1027C00015C0F4FF00D0E552E7CFD9FF1200020197
:1027D000FA5100D01200D9CFE6FFE1CFD9FFFD0EAC
:1027E000DBCF14F0FE0EDBCF15F0153404E21450ED
:1027F0007F08000E155408E27F0EF36EFD0EF3CF36
:10280000DBFFFE0EDB6A15D0FD0EDBCF14F0FE0EF3
:10281000DBCF15F0D880155004E7810E145CFF0E55
:10282000155807E2810EF36EFD0EF3CFDBFFFE0EAF
:10283000DB68D950FD0FE96EFF0EDA20EA6E7F0EDD
:10284000EE26000EED22FD0EDBCF14F0FE0EDBCFE8
:1028500015F014C0F3FF15C0F4FF00D0E552E7CF28
:10286000D9FF120001018C918C938C958C978C99D7
:102870008C9B8C9D8C9F8D918D938D95030109056B
:1028800003E10201010E04D00A0503E10201020E78
:10289000FA6F0201FA51020A06E0030A01E005D0CC
:1028A00001018C8103D001018C8500D0120003014D
:1028B000036B03C302F303C301F303C300F3076B0A
:1028C00007C306F307C305F307C304F30A6B0AC380
:1028D00009F30AC308F30101AEAF03D00301010EEF
:1028E000036F0101AEA903D00301010E026F0101C4
:1028F000AEAB03D00301010E016F0101AEAD03D0F9
:102900000301010E006F040E0101B85D03E2030133
:10291000010E076F0101B851146E156AD890155059
:1029200004E6A90E145C000E15580DE3B851166E9E
:10293000176A173404E21650AC08000E175403E36C
:102940000301010E086F0101B851146E156AD89089
:10295000155004E6BD0E145C000E15580EE3B85178
:10296000166E176A173404E21650C008000E17548A
:1029700004E30301010E086F076F040E0101B45D4B
:1029800003E20301010E056F0101B451146E156AD3
:10299000D890155004E6A90E145C000E15580DE3EE
:1029A000B451166E176A173404E21650AC08000EC4
:1029B000175403E30301010E066F0101B451146EB5
:1029C000156AD890155004E6BD0E145C000E15581B
:1029D0000EE3B451166E176A173404E21650C0089D
:1029E000000E175404E30301010E056F066F040E79
:1029F0000101BC5D03E20301010E096F0101BC513D
:102A0000146E156AD890155004E6A90E145C000ED9
:102A100015580DE3BC51166E176A173404E21650B0
:102A2000AC08000E175403E30301010E0A6F010105
:102A3000BC51146E156AD890155004E6BD0E145C96
:102A4000000E15580EE3BC51166E176A173404E2D7
:102A50001650C008000E175404E30301010E0A6F5C
:102A6000096F0101BC51146E156AD890155004E627
:102A7000D20E145C000E15580DE3BC51166E176A89
:102A8000173404E21650D508000E175403E303016F
:102A9000010E046F0101BC51146E156AD8901550D7
:102AA00004E6DF0E145C000E15580EE3BC51166EE2
:102AB000176A173404E21650E408000E175404E3B2
:102AC0000301010E0A6F046F0101BC51146E156AF7
:102AD000D890155004E6E40E145C000E15580EE371
:102AE000BC51166E176A173404E21650E808000E3F
:102AF000175404E30301010E046F096F0101BC5177
:102B0000146E156AD890155004E6BC0E145C000EC5
:102B100015580FE3BC51166E176A173404E21650AD
:102B2000C108000E175405E30301010E0A6F096F77
:102B3000046F1200D9CFE6FFE1CFD9FF080EE126DE
:102B40000201FF5101E093D0FB2B000EFC23FD2B73
:102B5000FE230A0EFD1901E1FE510BE1630EE66E44
:102B60004C0EE66E000EE66E58EC26F0E552E5528D
:102B7000E55202013C0EFD1901E1FE5102E106ECB5
:102B80001AF02C0E0201FD1902E1010EFE190FE1EF
:102B900014EC1AF068EC1AF05D0EE66E4C0EE66E60
:102BA000000EE66E58EC26F0E552E552E5520201C1
:102BB0001E0EFB5D000EFC595AE32C0EFD5D010E4E
:102BC000FE5955E354EC1AF0060EF3CFDBFF070E67
:102BD000F4CFDBFFFFEC18F0F3CFDEFFF4CFDDFF27
:102BE00087EC19F0020E06C0DBFF030E07C0DBFF07
:102BF000040E08C0DBFF050E09C0DBFF060EDBCFAD
:102C0000E6FF070EDBCFE6FF4D0EE66E4C0EE66EDE
:102C1000000EE66E58EC26F0146E050EE15E1450C0
:102C2000DECFE6FFDDCFE6FF3D0EE66E4C0EE66E34
:102C3000000EE66E58EC26F0146E050EE15E1450A0
:102C4000020EDBCFE6FF030EDBCFE6FF2B0EE66EB8
:102C50004C0EE66E000EE66E58EC26F0146E050E75
:102C6000E15E14500201FB6BFC6B010EFF6F080E5E
:102C7000E15C02E2E16AE552E16EE552E7CFD9FF9D
:102C800012008850800B02E08D9601D08D861200D4
:102C900002D84DEF16F0F0981200F09A1200F2965A
:022CA000120020
:0E2CA200D9CFE6FFE1CFD9FF140EE126FB0EDD
:102CB000DBCF18F0FC0EDBCF19F0F90EDB50185CFF
:102CC000146EFA0EDB501958156E166A176A15AE97
:102CD00002D0166817680C0E14C0DBFF0D0E15C06D
:102CE000DBFF0E0E16C0DBFF0F0E17C0DBFFFD0E65
:102CF000DBCFE9FFFE0EDBCFEAFF0A0EE926000E6E
:102D0000EA22EECF14F0EFCF15F0166A176A15AE6F
:102D100002D01668176814C006F015C007F016C078
:102D200008F017C009F00C0EDBCF0BF00D0EDBCF57
:102D30000CF00E0EDBCF0DF00F0EDBCF0EF0E6EC3D
:102D400026F002C006F003C007F004C008F005C07A
:102D500009F0E80E0B6E030E0C6E0D6A0E6AE2ECC3
:102D60001BF006C0DEFF07C0DEFF08C0DEFF09C0A3
:102D7000DDFFDD52DD520C0EDBCF14F00D0EDBCF8C
:102D800015F0FD0EDBCFE9FFFE0EDBCFEAFF020EF2
:102D9000E926000EEA221450EE261550ED22FD0E13
:102DA000DBCFE9FFFE0EDBCFEAFF020EE926000EC5
:102DB000EA22EECF14F0EFCF15F0FD0EDBCFE9FFE6
:102DC000FE0EDBCFEAFF040EE926000EEA22EECF6C
:102DD00016F0EFCF17F017501518E8AE02D01534E3
:102DE00004D01450165C1550175808E2FD0EDBCFC6
:102DF000E9FFFE0EDBCFEAFF040E2ED0FD0EDBCF87
:102E0000E9FFFE0EDBCFEAFF020EE926000EEA2202
:102E1000EECF14F0EFCF15F0FD0EDBCFE9FFFE0E85
:102E2000DBCFEAFF060EE926000EEA22EECF16F00F
:102E3000EFCF17F015501718E8AE02D0173404D0B2
:102E40001650145C175015581CE2FD0EDBCFE9FF3D
:102E5000FE0EDBCFEAFF060EE926000EEA22EECFD9
:102E600014F0EFCF15F0FD0EDBCFE9FFFE0EDBCF48
:102E7000EAFF020EE926000EEA2214C0EEFF15C09A
:102E8000EDFFFD0EDBCFE9FFFE0EDBCFEAFF080E04
:102E9000E926000EEA22EECF18F0EFCF19F0FD0E72
:102EA000DBCFE9FFFE0EDBCFEAFF020EE926000EC4
:102EB000EA22EECF1AF0EFCF1BF000011A501802F1
:102EC000F3CF14F0F4CF15F01902F35015261B5070
:102ED0001802F3501526E80E0D6E030E0E6E14C088
:102EE00008F015C009F0BCEC1BF008C014F009C0D4
:102EF00015F0166A176A15AE02D016681768080E24
:102F000014C0DBFF090E15C0DBFF0A0E16C0DBFF85
:102F10000B0E17C0DBFFFD0EDBCFE9FFFE0EDBCF94
:102F2000EAFFEECF1CF0EFCF1DF01E6A1F6A1DAE48
:102F300002D01E681F68D9500C0FE96EDACFEAFF85
:102F40001C50EE5C186E1D50EE58196E1E50EE5857
:102F50001A6E1F50EE581B6EFD0EDBCFE9FFFE0E02
:102F6000DBCFEAFF0C0EE926000EEA22EECF14F0CA
:102F7000EFCF15F0166A176A15AE02D016681768FB
:102F800014C006F015C007F016C008F017C009F00D
:102F900018C00BF019C00CF01AC00DF01BC00EF0D9
:102FA000E6EC26F002C006F003C007F004C008F00B
:102FB00005C009F0E80E0B6E030E0C6E0D6A0E6A6A
:102FC000E2EC1BF0040E06C0DBFF050E07C0DBFFC2
:102FD000060E08C0DBFF070E09C0DBFFFD0EDBCFCE
:102FE000E9FFFE0EDBCFEAFF0C0EDBCFEEFF0D0E8E
:102FF000DBCFEDFF040EDBCF18F0050EDBCF19F0B1
:10300000060EDBCF1AF0070EDBCF1BF0D9CFE9FF9E
:10301000DACFEAFFEE501826EE501922EE501A22AF
:10302000EE501B22D950080FE96EDACFEAFF185094
:10303000EE24146E1950EE20156E1A50EE20166E06
:103040001B50EE20176E100E14C0DBFF110E15C0C2
:10305000DBFF120E16C0DBFF130E17C0DBFF100ED6
:10306000DBCF07F0110EDBCF08F0120EDBCF09F03B
:10307000130EDBCF0AF00A34000E0A1809E6D880D6
:103080007F0E0754000E0854000E0954000E0A5417
:103090000CE27F0EF36E100EF3CFDBFF110EDB6A36
:1030A000120EDB6A130EDB6A1ED0D950100FE96EC8
:1030B000DACFEAFFD880030EEB50FF0A08E6810E54
:1030C000EE5CFF0EEE58FF0EEE58FF0EEE580BE2D0
:1030D000810EF36E100EF3CFDBFF110EDB68120EC4
:1030E000DB68130EDB68100EDB50146E140EE15C0F
:1030F00003E200D0E16AE552E16E1450E552E7CFF9
:10310000D9FF1200D9CFE6FFE1CFD9FFFD0EDBCF0B
:10311000E9FFFE0EDBCFEAFF0A0EE926000EEA22E7
:10312000FB0EDBCFEEFFFC0EDBCFEDFFFD0EDBCFAA
:10313000E9FFFE0EDBCFEAFF080EE926000EEA22C9
:10314000F90EDBCFEEFFFA0EDBCFEDFFFD0EDBCF8E
:10315000E9FFFE0EDBCFEAFF0C0EE926000EEA22A5
:10316000F70EDBCFEEFFF80EDBCFEDFFF50EDBCF7A
:1031700014F0F60EDBCF15F0146C151E000E1522A0
:10318000FD0EDBCFE9FFFE0EDBCFEAFF060EE926E0
:10319000000EEA2214C0EEFF15C0EDFFFD0EDBCFDE
:1031A000E9FFFE0EDBCFEAFF040EE926000EEA225D
:1031B000F50EDBCFEEFFF60EDBCFEDFFE552E7CFEE
:0431C000D9FF120021
:0C31C4000001646B656B666B676B786BD9
:1031D000440E686F1B0E696F6A6B6B6B6C6B100E25
:1031E0006D6F6E6B6F6BBA0E706F020E716F726BDC
:1031F000736B746B280E756F766B776B1200D9CF7B
:10320000E6FFE1CFD9FF040EE12662C018F063C0EB
:1032100019F01A6A1B6A19AE02D01A681B6818C026
:1032200006F019C007F01AC008F01BC009F068C00A
:103230000BF069C00CF06AC00DF06BC00EF0E6EC4C
:1032400026F002C014F003C015F004C016F005C04B
:1032500017F014C006F015C007F016C008F017C02C
:1032600009F06CC00BF06DC00CF06EC00DF06FC0BB
:103270000EF0E2EC1BF006C0DEFF07C0DEFF08C068
:10328000DEFF09C0DDFFDD52DD52D9CFE9FFDACF25
:10329000EAFFEECF06F0EECF07F0EECF08F0EFCF6B
:1032A00009F0E80E0B6E030E0C6E0D6A0E6AE6EC6A
:1032B00026F002C006F003C007F004C008F005C005
:1032C00009F0E80E0B6E030E0C6E0D6A0E6AE2EC4E
:1032D0001BF006C0DEFF07C0DEFF08C0DEFF09C02E
:1032E000DDFFDD52DD52DFCF14F0010EDBCF15F034
:1032F00014C0F3FF15C0F4FF040EE15C03E200D03C
:10330000E16AE552E16EE552E7CFD9FF1200D9CF6D
:10331000E6FFE1CFD9FF040EE12664C006F065C0E8
:1033200007F066C008F067C009F070C00BF071C00C
:103330000CF072C00DF073C00EF0E6EC26F002C087
:1033400014F003C015F004C016F005C017F014C047
:1033500006F015C007F016C008F017C009F074C0D9
:103360000BF075C00CF076C00DF077C00EF0E2ECFB
:103370001BF006C0DEFF07C0DEFF08C0DEFF09C08D
:10338000DDFFDD52DD52D9CFE9FFDACFEAFFEECF24
:1033900006F0EECF07F0EECF08F0EFCF09F0E80E21
:1033A0000B6E030E0C6E0D6A0E6AE6EC26F002C080
:1033B00006F003C007F004C008F005C009F0E80EED
:1033C0000B6E030E0C6E0D6A0E6AE2EC1BF006C06B
:1033D000DEFF07C0DEFF08C0DEFF09C0DDFFDD52F3
:1033E000DD52DECF06F0DECF07F0DECF08F0DDCF16
:1033F00009F0DD52DD52040EE15C03E200D0E16A27
:10340000E552E16EE552E7CFD9FF12000001785195
:103410000AE1796B7A6B7B6B7C6B03011A6B010E93
:10342000196F0001786F1200D9CFE6FFE1CFD9FF05
:10343000E652000178052FE1DF6A400EDF5C1AE2F8
:10344000EA6ADF34FE0BEA36E96E7D0EE926000EED
:10345000EA22EECF14F0EFCF15F000011450000176
:1034600079270001155000017A23000E7B237C236D
:10347000DF2AE3D7060ED8907C337B337A33793357
:10348000E806F9E179C060F07AC061F00301040E4A
:10349000196F0001786BE552E552E7CFD9FF1200B2
:1034A0000301195100D0120060C0F3FF61C0F4FFA6
:1034B00000D01200D9CFE6FFE1CFD9FFFD0EDBCF60
:1034C00060F0FE0EDBCF61F0E552E7CFD9FF1200CE
:1034D0000001646B656B666B676B1200D9CFE6FF0A
:1034E000E1CFD9FF020EE126CAEC1FF0000969E026
:1034F0000001780521E1010EE66E51EC1FF0E55266
:10350000F3CF14F0F4CF15F003011A51E96EEA6A13
:10351000D890E936EA367D0EE926000EEA2214C07C
:10352000EEFF15C0EDFF1A2B3F0E1A5D02E1020EF1
:10353000196F3F0E1A1740D0010EE66E51EC1FF0C6
:10354000E55200016051F35C146E6151F458156E40
:1035500014C0DEFF15C0DDFFDECF14F0DDCF15F0A7
:10356000D880155004E7F80E145CFF0E15580BE3D5
:10357000DECF16F0DDCF17F0173404E2165008083E
:10358000000E175417E2DECF62F0DDCF63F0DECF1E
:1035900014F0DDCF15F0166A176A15AE02D0166862
:1035A000176814506427155065231650662317506A
:1035B000672302D0626B636BFE0EDB5002E0DAEC35
:1035C0001FF0020EE15C02E2E16AE552E16EE552B3
:0635D000E7CFD9FF120055
:0A35D600019E05D0019E09AE02D04F
:1035E000096C018E09C003F0026A136A126A860E22
:1035F000046E056A86EF1CF0016AC2EC1CF0DAEC7E
:103600001CF001B66AEF1CF001A205D001BA6AEF06
:103610001CF071EF1CF001BA7DEF1CF001A005D089
:1036200001B86AEF1CF07DEF1CF001B871EF1CF0DF
:10363000056A7F0E0A24046EE86A05220F50045EB4
:10364000E86A055A1A0E106E0A6A126A136A026A4A
:10365000036A0C50075E0D50085A0E50095A000EAE
:103660000A5A09E70C5007260D5008220E5009226D
:10367000000E0A2201D0128AD89007360836093681
:103680000A36D8901236133602360336102EE1D79A
:10369000095008100710D8A4128A86EF1CF0016A9E
:1036A000C2EC1CF0DAEC1CF001B66AEF1CF001A2CF
:1036B00005D001B86AEF1CF071EF1CF001AA05D02B
:1036C00001B06AEF1CF071EF1CF001B002D001A84C
:1036D00002D07DEF1CF0056A0F500A24046EE86AE0
:1036E00005227E0E045EE86A055A126A136A026AAF
:1036F000036A0E500902F4CF03F0F3CF02F00D502D
:103700000902F3501326F4500222000E03220E5039
:103710000802F3501326F4500222000E03220C502C
:103720000902F3501226F4501322000E0222032243
:103730000D500802F3501226F4501322000E0222FC
:1037400003220E500702F3501226F4501322000EEB
:10375000022203220C500802F4501226000E1322FB
:10376000022203220D500702F4501226000E1322EB
:103770000222032286EF1CF0006A0EAEC5EF1BF09A
:103780000D6C0E1EE86A0E22001E09AECDEF1BF076
:10379000086C091EE86A0922001EC5EC27F009BE64
:1037A000DDEF1BF000AE000C086C091EE86A092270
:1037B000046C051EE86A0522000C00BED4EF1BF065
:1037C0000188FF0C006AE86A0EAEEFEF1BF00B6C8D
:1037D0000C1E0D1E0E1E0C220D220E22001E09AE06
:1037E000FAEF1BF0066C071E081E091E07220822AE
:1037F0000922001E84EC27F009BE11EF1CF000AE78
:10380000000C066C071E081E091EE86A0722082223
:103810000922026C031E041E051E03220422052237
:10382000000C00BE01EF1CF00188FF0C09C013F072
:1038300008C012F008500D02F4CF07F0F3CF06F0E5
:1038400009500E02F4CF09F0F3CF08F00D02F35047
:103850000726F4500822E86A092212500E02F3509B
:103860000726F4500822E86A09220EAE3CEF1CF04D
:103870001250085E1350095A13AE000C0D50085E2A
:103880000E50095A000C016AC2EC1CF001B64DEF53
:103890001CF001A20AD001B403D07F0E096E19D02A
:1038A000800E096E16D0096A14D001B0FCD7870EBD
:1038B0000A60F1D77E0E0A64F6D7860E0A5C04E031
:1038C000D89009320A2AF9D701A403D0096C09AEAD
:1038D000EAD712007F0E0A6EFF0E096E086E076EA1
:1038E00012007F0E01BEFF0E0A6E02D07F0E0A6E1E
:1038F000800E096E086A076AF3D701AE04D0800E05
:103900000A6E096AF7D70A6A096AF4D703500210E7
:1039100013101210F8E005BEF0D703BE0CD004500F
:103920000510EBE0D8901236133602360336040643
:10393000D8A00506F2D70550D4E10428D2E012AE93
:1039400011D07F0E121402E113A00CD0132AE86AE2
:103950000222032207E3D880033202321332042A00
:103960000428BFE00450C9E013C007F002C008F00B
:103970000334096E04300A6E09320A9E01BE0A8EB3
:1039800070EF1CF009360A3602E30184017E06E17D
:1039900001800A6A096A086A076A12000A2803E0B5
:1039A000D88009321200D890093202E10182120057
:1039B000018612000E360F3602E3018C017E06E10D
:1039C00001880F6A0E6A0D6A0C6A12000F2803E064
:1039D000D8800E321200D8900E32EAE1018A12002D
:1039E0000DD8E6C1E6FFE7C1E6FFEBEC13F0E552C8
:1039F000E552F3CF97F1F3CF96F11200DAC2DCF281
:103A0000DBC2DDF20201FC0EDC5F080EDD5B010EA5
:103A1000E66E51EC1FF0E552F3CFEAF1F4CFEBF193
:103A2000E6C1E6FFE7C1E6FFD4C2E6FFD5C2E6FF86
:103A30000201DF51E66EE66ADCC2E6FFDDC2E6FFA8
:103A4000DAC2E6FFDBC2E6FFEAC1E6FFEBC1E6FF52
:103A5000E60EE66E4B0EE66E000EE66E58EC26F0B5
:103A6000146E0F0EE15E14500101B5510201D86FC2
:103A7000D96B7F0ED85F000ED95B0101AEAD04D0CB
:103A8000010E0201D46FD56B0101AEA904D0020E64
:103A90000201D46FD56B0101AEAF04D0070E020155
:103AA000D46FD56B0201050ED41901E1D55101E0A7
:103AB000D36B070ED41901E1D55101E136D1060EC1
:103AC000D41901E1D55101E118D1050ED41901E154
:103AD000D55101E1E6D0030ED41901E1D55101E140
:103AE000D9D0040ED41901E1D55101E1C7D0080E97
:103AF000D41901E1D55101E1B3D0020ED41901E18D
:103B0000D55101E190D00B0ED41901E1D55101E15D
:103B100084D00D0ED41901E1D55101E17AD00C0EFB
:103B2000D41901E1D5514EE0010ED41901E1D5516E
:103B30002EE00A0ED41901E1D55128E0090ED4195E
:103B400001E1D55104E0070ED46FD56BF6D0010129
:103B5000E66BE76B0201010EE16FD6510101EA1934
:103B600004E10201D7510101EB190DE10201DF2B44
:103B7000090EDF5D07E3EAC1DAF2EBC1DBF2070E03
:103B8000D46FD56B02D00201DF6BD7D0D6D0DAC2AA
:103B900014F0DBC215F0520E145E030E155A01012B
:103BA0001550EB19E8AE02D0EB3504D0EA51145CA5
:103BB000EB51155802E20C0E01D00D0E0201D46F2C
:103BC000D56BBBD0010EE16F0101C00EE66FE76956
:103BD000DAC214F0DBC215F0520E145E030E155A51
:103BE000190E1426000E15221550EB19E8AE02D05E
:103BF000EB3504D0EA51145CEB51155809E302018E
:103C0000E16BE051070803E20B0ED46FD56BE02B9C
:103C100094D0070ED46FD56B90D0E06BE16B0101AF
:103C2000E66BE76B8AD0010EE16F0101810EE66F52
:103C3000E7690201DD510101EB19E8AE02D0EB3575
:103C400007D0EA510201DC5D0101EB510201DD59AF
:103C500006E30201E16B080ED46FD56BDE6B6DD00D
:103C6000E16B0101810EE66FE7690201DE510A088E
:103C700003E2030ED46FD56BDE2B5FD0E16B010145
:103C8000E66BE76B0101AEAB04D0050E0201D46F09
:103C9000D56B53D0DE6B0101E66BE76B0201E16B84
:103CA0004CD0010EE16FD6510101EA1904E1020185
:103CB000D7510101EB1903E00201010ED36F02019C
:103CC000D35104E07F0E0101E66F02D00101E66BE3
:103CD000E76BEB510201DB19E8AE02D0DB3507D010
:103CE000DA510101EA5D0201DB510101EB5904E304
:103CF000070E0201D46FD56B20D0010EE16F800E4C
:103D0000D91501E100D0D8C2E6F1D9C2E7F1020E1F
:103D10000D6E0E6AE6C108F0E7C109F0BCEC1BF0BD
:103D200008C0E6F109C0E7F108D00101E66BE76BD6
:103D30000201010EE16FDF6B00D0EAC1D6F2EBC1E8
:103D4000D7F20101BD517F0808E2AFA904D00201FA
:103D5000010EE16F02D00201E16B0201E15102E0CC
:103D600003D801D004D812008D888C9812008D9849
:103D70008C981200640EE66EE66A000EE66EE66A45
:103D8000E66EE66A0D0EE66EE66AEC0EE66E010E73
:103D9000E66E82EC18F0146E0A0EE15E145012000A
:103DA000D9CFE6FFE1CFD9FFE6520201400EBD6F49
:103DB000060EBE6F020EC16F030EC26F200EBF6FE4
:103DC000C06BDF6AC151DF5C10E2DF50040DF3CF3E
:103DD000E9FFF4CFEAFFC30EE926020EEA22EE6AFB
:103DE000EE6AEE6AEE6ADF2AEDD7CF6BD06BD16B4D
:103DF000010EC26EC16ABE0EC06E9D9CBD5102E135
:103E0000190EBE1932E0800EBD1902E10C0EBE196A
:103E100028E0400EBD1902E1060EBE191EE0200E7C
:103E2000BD1902E1030EBE1914E0900EBD1902E1A6
:103E3000010EBE190AE0C80EBD1901E1BE5101E034
:103E400000D06A0E766EDD0E03D0520E766E8C0EAA
:103E500003D0520E766E450E03D0510E766E8C0E48
:103E600003D0510E766E450E03D0500E766E8C0E3A
:103E7000776E00D0786AA596A496A3867684E552DC
:103E8000E552E7CFD9FF1200D9CFE6FFE1CFD9FF46
:103E9000E652A3967694C26AE552E552E7CFD9FF7F
:103EA0001200D9CFE6FFE1CFD9FF020EE126FE0EC8
:103EB000DBCF14F00201C151D880145412E3A39651
:103EC000FE0EDB04E96EEA6AD890E936EA36CB0EDC
:103ED000E926020EEA22EECFDEFFEDCFDDFFA3865C
:103EE00002D0DE6ADD6ADECF14F0DDCF15F014C03B
:103EF000F3FF15C0F4FF020EE15C03E200D0E16ABB
:103F0000E552E16EE552E7CFD9FF1200D9CFE6FFC7
:103F1000E1CFD9FFFD0EDBCF14F0FE0EDBCF15F0A5
:103F2000166A176A880E0B6E130E0C6E0D6A0E6AF7
:103F300014C006F015C007F016C008F017C009F04D
:103F4000E6EC26F002C014F003C015F004C016F031
:103F500005C017F00B6A100E0C6E0D6A0E6A14C0C5
:103F600006F015C007F016C008F017C009F0E2EC23
:103F70001BF006C014F007C015F008C016F009C009
:103F800017F014C0F3FF15C0F4FF00D0E552E7CFDF
:103F9000D9FF1200D9CFE6FFE1CFD9FFE652A396B1
:103FA0001DC3DFFFA386DF5000D0E552E552E7CF07
:103FB000D9FF1200A39603011D6BA3861200D9CF6F
:103FC000E6FFE1CFD9FF050EE126C450DE6EDD6AC3
:103FD000D9CFE9FFDACFEAFFEE50ED6EEF6AC350BA
:103FE000DE26000EDD22DECF20F0DDCF21F0226ABA
:103FF000236A0201D151040DF3CFE9FFF4CFEAFFA8
:10400000C30EE926020EEA222050EE262150EE22AF
:104010002250EE222350EE22D12BC151D15D04E378
:10402000D16BCF2B000ED023020ED1C2DBFFDB50B1
:10403000040D020EF3CFDBFFDB80DB50C26EC282C9
:10404000BF51CF5DC051D05968E3030EDB6A040E47
:10405000DB6A030EDBCF20F0040EDBCF21F0020180
:10406000C151000121AE02D0D89003D0205C000ED7
:1040700021584EE2030EDBCFE9FF040EDBCFEAFF4F
:10408000D890E936EA36D890E936EA36C30EE92602
:10409000020EEA220201C2511F0BEECF20F0EECF3A
:1040A00021F0EECF22F0EECF23F007E0D8902332BC
:1040B000223221322032E806F9E1030EDBCFE9FF9C
:1040C000040EDBCFEAFFD890E936EA36CB0EE926BC
:1040D000020EEA2220C0EEFF21C0EDFF030EDBCF6F
:1040E000E9FF040EDBCFEAFFD890E936EA36D89034
:1040F000E936EA36C30EE926020EEA22EE6AEE6AD5
:10410000EE6AEE6A030EDB2A040E01E3DB2AA1D776
:1041100003011D2B0201CF6BD06B050EE15C02E2A7
:0E412000E16AE552E16EE552E7CFD9FF1200E9
:02412E00D9CFE7
:10413000E6FFE1CFD9FFFE0EDB50080A20E00F0AB0
:104140001CE0010A18E0030A14E0010A10E0070A63
:104150000AE0010A06E0030A02E0150E09D0810E0A
:1041600001D0400E01D02A0EAF6EAC940CD0810E5F
:1041700001D0400E01D02A0E01D0150E01D00A0E3A
:10418000AF6EAC8400D09D9A9D98AC98AC9E948EF6
:10419000AB9CAB96AB8AAB889F9A9D8A030117694B
:1041A0001869949CAC9CAC969F989D88AC8AAB8E09
:1041B000E552E7CFD9FF1200D9CFE6FFE1CFD9FF13
:1041C000FE0EDB50080A20E00F0A1CE0010A18E08E
:1041D000030A14E0010A10E0070A0AE0010A06E0F7
:1041E000030A02E0400E01D0810E01D0400E01D042
:1041F0002A0E6F6E6C940CD0810E01D0400E01D04F
:104200002A0E01D0150E01D00A0E6F6E6C8400D0FC
:10421000A39AA3986C986C9E98846B9C6B966B8AFF
:104220006B88A59AA38A03011769186998926C9CF8
:104230006C96A598A3886C8A6B8EE552E7CFD9FF60
:104240001200D9CFE6FFE1CFD9FFE6529D9AD2C145
:10425000DFFF9D8ADF5000D0E552E552E7CFD9FF5E
:104260001200D9CFE6FFE1CFD9FFE652A39ADEC113
:10427000DFFFA38ADF5000D0E552E552E7CFD9FF38
:104280001200D9CFE6FFE1CFD9FFE6520101CF51AD
:1042900003E0000E17D016D0D051EA6A000FE96E85
:1042A000020EEA22EFCFDFFFD207D02B1F0ED0176E
:1042B0009D9AD151D05D02E1010ECF6F9D8ACE6BE8
:1042C000DF5000D0E552E552E7CFD9FF1200D9CF39
:1042D000E6FFE1CFD9FFE6520101DB5103E0000E1A
:1042E00017D016D0DC51EA6A400FE96E020EEA22BE
:1042F000EFCFDFFFDE07DC2B1F0EDC17A39ADD51AB
:10430000DC5D02E1010EDB6FA38ADA6BDF5000D0C7
:10431000E552E552E7CFD9FF1200D9CFE6FFE1CF52
:10432000D9FF0101D55101E0FCD7D851EA6A200F2D
:10433000E96E020EEA22FE0EDBCFEFFFD92BD82B5F
:104340001F0ED8179D98D851D75D02E1010ED56F89
:104350009D88D66BE552E7CFD9FF1200D9CFE6FF93
:10436000E1CFD9FF0101E15101E0FCD7E451EA6A54
:10437000600FE96E020EEA22FE0EDBCFEFFFE52BA7
:10438000E42B1F0EE417A398E451E35D02E1010E54
:10439000E16FA388E26BE552E7CFD9FF120001017C
:1043A000CE5102E09D9A19D0D151EA6A000FE96E10
:1043B000020EEA22AECFEFFFABA203D0AB98AB88E0
:1043C000D32BABB4D42BD22BD12B1F0ED117D15161
:1043D000D05D02E1010ECE6FCF6B12000101DA5108
:1043E00002E0A39A19D0DD51EA6A400FE96E020E8D
:1043F000EA226ECFEFFF6BA203D06B986B88DF2BA6
:104400006BB4E02BDE2BDD2B1F0EDD17DD51DC5DE9
:1044100002E1010EDA6FDB6B12000101D65102E0FE
:104420009D9812D0D751EA6A200FE96E020EEA2257
:10443000EF50AD6ED907D72B1F0ED717D851D75DC8
:1044400002E1010ED66FD56B12000101E25102E0CC
:10445000A39812D0E351EA6A600FE96E020EEA22D5
:10446000EF506D6EE507E32B1F0EE317E451E35D9C
:1044700002E1010EE26FE16B1200D9CFE6FFE1CF5E
:10448000D9FF0101CD5101E10FD0CD0505E1FE0EAF
:10449000DBCFE6FF42DF07D0020ECD5D05E1FE0E69
:1044A000DBCFE6FF5BDFE552E552E7CFD9FF120035
:1044B00081CFFBF163EC0AF00101010ECD6F070E15
:1044C000E66E97EC20F0E552020EE66EDCEC20F092
:1044D000E5525EEC24F082EC25F08C0EE66E010EC7
:1044E000E66E14EC0BF0E552E552D6EC0AF0010151
:1044F000CC910101ADAF23D00101010EFE6FFD6F24
:104500000101CCA119D0AC0EE66E010EE66EDBEC1B
:104510000AF0E552E5520101FC0504E107EC04F064
:104520000101FC6B08EC04F08C0EE66E010EE66EE9
:1045300014EC0BF0E552E55209EC04F063D0ADAD9C
:1045400031D00101CCA12BD0AC0EE66E010EE66E8F
:10455000DBEC0AF0E552E5520101FD0508E15FECF4
:1045600025F051EC27F00101FD6B010EFE6F52ECBE
:1045700027F09FC1E6FF9EC1E6FF9DC1E6FF9CC1FB
:10458000E6FF6AEC24F0E552E552E552E5528C0E66
:10459000E66E010EE66E14EC0BF0E552E55283EC8C
:1045A00027F030D00101CCA12BD0AC0EE66E010E6D
:1045B000E66EDBEC0AF0E552E5520101FE0508E18A
:1045C0005FEC25F0BFEC25F00101FE6B010EFD6FE5
:1045D000C0EC25F09FC1E6FF9EC1E6FF9DC1E6FF4E
:1045E0009CC1E6FF6AEC24F0E552E552E552E55243
:1045F0008C0EE66E010EE66E14EC0BF0E552E55201
:10460000F2EC25F076D71200D8CFE4FFE0CFE4FF3C
:10461000E46EDACFE4FFE2CFDAFFE9CFE4FFEACFDE
:10462000E4FFF3CFE4FFF4CFE4FF00EE00F0140E5C
:10463000E80403E3EECFE4FFFBD7E652D9CFE6FF71
:10464000E1CFD9FF020EE1269E50200B06E09D50DF
:10465000200B03E0CFEC21F024D0A450200B06E087
:10466000A350200B03E0EEEC21F01BD0A450080B6C
:1046700007E0A350080B04E0A496DFEC1FF011D074
:104680009E50100B06E09D50100B03E00DEC22F045
:1046900008D0A450100B05E0A350100B02E025EC4D
:1046A00022F0020EE15C02E2E16AE552E16EE552BF
:1046B000E7CFD9FFE55200EE13F0140EE80403E350
:1046C000E5CFEDFFFBD7E5CFF4FFE5CFF3FFE5CF77
:1046D000EAFFE5CFE9FFE5CFDAFFE550E5CFE0FF00
:0646E000E5CFD8FF100039
:0A46E6009384F09EF188F092F088B2
:1046F00012009386F192F186F094F08A120093886A
:10470000938A938C938EF190F290F2861200D9CF17
:10471000E6FFE1CFD9FF040EE126F098E2C2DFFF09
:10472000010EE3C2DBFF020EE4C2DBFF030EE5C2B3
:10473000DBFFF088DECF06F0DECF07F0DECF08F03B
:10474000DDCF09F0DD52DD52040EE15C03E200D062
:10475000E16AE552E16EE552E7CFD9FF1200F09829
:104760000201E26BE36BE46BE56BF088120088B248
:1047700007D00201E207000EE35BE45BE55B06D0D5
:104780000201E22B000EE323E423E5231200D9CF3C
:10479000E6FFE1CFD9FF040EE126F09AE6C2DFFF83
:1047A000010EE7C2DBFF020EE8C2DBFF030EE9C227
:1047B000DBFFF08ADECF06F0DECF07F0DECF08F0B9
:1047C000DDCF09F0DD52DD52040EE15C03E200D0E2
:1047D000E16AE552E16EE552E7CFD9FF1200F09AA7
:1047E0000201E66BE76BE86BE96BF08A120088B4B4
:1047F00007D00201E607000EE75BE85BE95B06D045
:104800000201E62B000EE723E823E9231200D9CFAB
:10481000E6FFE1CFD9FF040EE126F296EAC2DFFF00
:10482000010EEBC2DBFF020EECC2DBFF030EEDC29A
:10483000DBFFF286DECF06F0DECF07F0DECF08F03A
:10484000DDCF09F0DD52DD52040EE15C03E200D061
:10485000E16AE552E16EE552E7CFD9FF1200F29628
:104860000201EA6BEB6BEC6BED6BF2861200D9CFB9
:10487000E6FFE1CFD9FFFE0EDB0416E188B60AD0D1
:104880000101FF0506E10201EA07000EEB5BEC5BAC
:10489000ED5B09D00101FF5106E10201EA2B000E98
:1048A000EB23EC23ED2306D08850080B01E0010E2A
:0C48B0000101FF6FE552E7CFD9FF1200B5
:0448BC00B18EB18682
:1048C000B19CB19AB198B192A092A090A390A392FA
:1048D000A3941200D9CFE6FFE1CFD9FF080EE1265D
:1048E000B190B36AB26ABA6AB76A736A706AFE0E46
:1048F000DB50320DF3CF14F0F4CF15F0980E1426E0
:104900003A0E1522CE0E145E180E155A14C0DEFF94
:1049100015C0DDFFFD0EDB50320DF3CF14F0F4CFE8
:1049200015F0980E14263A0E1522CE0E145E180EAF
:10493000155A020E14C0DBFF030E15C0DBFFFC0E80
:10494000DB50320DF3CF14F0F4CF15F0980E14268F
:104950003A0E1522CE0E145E180E155A040E14C00F
:10496000DBFF050E15C0DBFFFB0EDB50320DF3CF76
:1049700014F0F4CF15F0980E14263A0E1522CE0E30
:10498000145E180E155A060E14C0DBFF070E15C074
:10499000DBFFDF50BB6EDECF14F0DDCF15F015C0AE
:1049A00014F0156A1450BC6E020EDB50B86E020E85
:1049B000DBCF14F0030EDBCF15F015C014F0156A31
:1049C0001450B96E040EDB50746E040EDBCF14F07D
:1049D000050EDBCF15F015C014F0156A1450756E76
:1049E000060EDB50716E060EDBCF14F0070EDBCF28
:1049F00015F015C014F0156A1450726EF29E090E6F
:104A0000BA6EB76E736E706EB180F28E080EE15C96
:104A100002E2E16AE552E16EE552E7CFD9FF12000A
:104A20001E0EF66E080EF76E000EF86E03010900FA
:104A3000F550106F0900F550116F03E1106701D0B8
:104A40003DD00900F5500B6F0900F5500C6F0900BF
:104A5000F5500D6F09000900F550E96E0900F55099
:104A6000EA6E090009000900F5500E6F0900F550C3
:104A70000F6F09000900F6CF12F3F7CF13F3F8CF49
:104A800014F30BC3F6FF0CC3F7FF0DC3F8FF0301CC
:104A90000E5302E10F5307E00900F550EE6E0E07CA
:104AA000F8E20F07F9D712C3F6FF13C3F7FF14C3D9
:104AB000F8FF03011007000E115BBFD712000101C0
:104AC0007F0E906F916F926F936F946F956F966F4B
:104AD000976F986F996F9A6F9B6F9C6F9D6F9E6F8A
:104AE0009F6F8D908C908D928C928D948C948D96DE
:104AF0008C968D988C988D9A8C9A8D9C8C9C91908C
:044B00008C9E120075
:0C4B0400938493869388938A938C938EFD
:104B100099809982998499869A829A849A869480B7
:104B20009A889A8A9A8C9A8E8A948A968A988A9A6D
:104B30008A9C8A9E90909092909490969192919453
:104B400091968B909198919A919C919EA20EE66E6F
:104B50004C0EE66E000EE66E58EC26F0E552E5527D
:104B6000E552D0EC1EF07D0EE66E4C0EE66E000EA9
:104B7000E66E58EC26F0E552E552E55212001200BE
:104B80002CEC0EF00101AFA302D016EC0FF00101E6
:104B9000AFA102D013EC0FF00101AEA302D02DECB7
:104BA0000FF00101AEA102D031EC0FF0C1EC10F01A
:104BB00041EC16F00101B451146E156A153404E28B
:104BC00014509608000E155402E28D9201D08D8289
:104BD0008D50020B02E08C9201D08C82F0EC1CF024
:064BE0009BEF12F0120031
:0A4BE600506F743A20253464207CDF
:104BF00020546F703A20253464207C20426F7474F6
:104C00006F6D3A20253464207C207469636B733A9D
:104C1000202564207C2073746174653A202564200B
:104C20007C206D3A202533640A0D004779726F208D
:104C3000416E676C653D25640D0A0D0A00204779B9
:104C4000726F20526174653D25640D0A002047791A
:104C5000726F20426961733D25640D0A00446F6ED6
:104C6000650D000D43616C63756C6174696E67203E
:104C70004779726F20426961732E2E2E0049464992
:104C800020557365722050726F636573736F722065
:104C9000496E697469616C697A6564202E2E2E0DE7
:104CA0000A004265666F726520414443210D0A0087
:104CB000D9CFE6FFDACFE6FFE1CFD9FFE2CFDAFFC7
:104CC000E652E652E652E652D950FB0F146EFF0E42
:104CD000DA20156E14C0DEFFDD6EDECFE6FFDDCF1D
:104CE000E6FFFB0EDBCFE6FFFC0EDBCFE6FFFD0EA3
:104CF000DBCFE6FF17C3E6FF18C3E6FF68EC04F05E
:104D0000146E070EE15C02E2E16AE552E16E1450B6
:104D1000020EF3CFDBFF030EF4CFDBFF020EDBCF7F
:104D200014F0030EDBCF15F014C0F3FF15C0F4FF31
:104D3000040EE15C02E2E16AE552E16EE552E5CF84
:084D4000DAFFE7CFD9FF1200F2
:084D4800D9CFE6FFDACFE6FF48
:104D5000E1CFD9FFE2CFDAFFFB0EDBCF14F0FC0E80
:104D6000DBCF15F00001800E15141AE1FB0EDBCF2E
:104D7000E9FFFC0EDBCFEAFFEECFF3FFEDCFF4FF50
:104D8000EE2A000EEF22F3CFE9FFF4CFEAFFFD0E8B
:104D9000DBCFEFFFEF50156AF36E15C0F4FF10D0B4
:104DA000FB0EDB50FE0806E1FD0EDBCFE6FFFFEC5D
:104DB00027F005D0FD0EDBCFE6FF3DEC22F0E552FB
:0C4DC000E552E5CFDAFFE7CFD9FF120083
:044DCC0006500B0280
:104DD000F3CF02F0F4CF03F00C02F3500326000EE1
:104DE000F420046E06500D02F3500426000EF42049
:104DF000056E06500E02F350052607500B02F350C5
:104E00000326F4500422000E052207500C02F35032
:104E10000426F450052207500D02F35005260850D1
:104E20000B02F3500426F450052208500C02F350F4
:0C4E3000052609500B02F3500526120065
:044E3C00FE0EE3CFB4
:104E4000E9FFFF0EE3CFEAFFF36AF46AEE5203E0F4
:104E5000F34AF42AFBD71200FF0EE3CFF8FFE55226
:104E6000FF0EE3CFF7FFE552FF0EE3CFF6FFE5526B
:104E7000E66AE66AE66A0900F55209E0FD0EE32AF1
:104E800005E1FE0EE32A02E1FF0EE32AF4D7FD0E50
:104E9000E3CF07F0FE0EE3CF08F0FF0EE3CF09F0FB
:024EA0001200FE
:0E4EA200120013EC0FF00301D8901C5104E62F
:104EB000180E1B5D010E1C5905E2000EE66EE66A37
:104EC0007F0E0CD0D8901C5104E6270E1B5D010EFE
:104ED0001C5905E29C0EE66EE668000E04D0000E3A
:104EE000E66EE66A500EE66EE66A3FEC0EF0E552BC
:104EF000E552E552E55203011B2B000E1C23C1ECC9
:084F000010F041EF16F0120061
:084F0800056A046A036A026AEB
:104F1000200EE76ED8900636073608360936023678
:104F20000336043605360B50025C0C5003580D5006
:104F300004580E50055809E30B50025E0C50035AFA
:104F40000D50045A0E50055A062AE72EE4D71200D7
:104F5000436F7079726967687420A93230303720E6
:104F6000522E204B6576696E20576174736F6E2EDA
:104F700020416C6C207269676874732061726520CF
:0A4F800072657365727665642E0099
:064F8A00056A046A100E26
:104F9000E76ED89008360936043605360D50045CA5
:104FA0000E50055805E30D50045E0E50055A082AB0
:064FB000E72EF0D712000D
:0A4FB6001EEE00F02EEE00F0F86A87
:104FC000019C00EE00F00F0EEE6AEA62FDD710ECD5
:0A4FD00025F058EC22F0FDD7120086
:064FDA00F36AF46AFF0E09
:104FE000E124E96EFF0EE220EA6EED6607D02F0E97
:0E4FF000EF6404D03A0EEF6001D0F32A1200F5
:024FFE00FF0EA4
:10500000E350ACBA04D0AF6AAB8EAC8A949CACA22D
:0A501000FED7AD6EF36EF46A1200D5
:06501A0030313233343561
:0B502000363738396162636465660052
:05502B0000000100007F
:10503000000000000100000000010000000000006E
:04504000010000006B
:0650440001000000000065
:06504A0000000900000057
:0A5050000000DC05E803000000008A
:04505A00FF01010150
:02505E00000050
:0C50600000000000000000000000000044
:04506C00000100003F
:08507000000000000000000038
:02507800010035
:020000040030CA
:0100010006F8
:010002001EDF
:010003001EDE
:01000400F308
:010005008377
:010006008178
:01000800FFF8
:010009008076
:01000A00FFF6
:01000B008074
:01000C00FFF4
:01000D0000F2
:00000001FF
