:020000040000FA
:06080000A7EF2BF012002F
:02080600FEFFF3
:06080800B7EF11F0120031
:02080E000100E7
:050810000000000000E3
:020815000000E1
:06081800B6EF24F012000F
:02081E000C00CC
:100820003B5200008003000001000000135800004C
:10083000F00200000E0000000F58000078030000D6
:10084000040000000A580000FB0100000500000041
:10085000FE570000400300000C00000015080000D7
:100860007E03000002000000FA570000740300003D
:1008700004000000F25700006103000008000000BF
:10088000DC57000000030000160000000E08000006
:100890006903000007000000C3570000D7020000F2
:1008A00019000000060800007C03000002000000A0
:1008B00094EC09F0FB0EDBCFF3FFDB06F3500009ED
:1008C0000AE0E2EC09F0FA0E4DEC0AF0F3E1151C37
:1008D000F1E1010E01D0000EC3EF09F094EC09F034
:1008E0003B0EE12402E3E168E652E16E010EDB6AB1
:1008F000020EDB6AF90EDBCFF6FFFA0EDBCFF7FF55
:10090000FB0EDBCFF8FF0800F550DF6EDF5002E191
:10091000E7EF08F0250EDF5C02E0DAEF08F0030EE7
:10092000DB6A040EDB6A050EDB6A060EDB6A070E65
:10093000DB6AFCEC08F02D0EDF5C0CE02B0EDF5CBC
:1009400009E0200EDF5C06E0230EDF5C03E0300EE2
:10095000DF5C1AE1DF50300A14E0130A0FE0030AEB
:100960000AE00B0A05E0060AE4E1030EDB80E1D7AA
:10097000030EDB82DED7030EDB84DBD7030EDB86C0
:10098000D8D7030EDB88D5D72A0EDF5C1BE1F8EC45
:1009900008F046EC09F010E0030EDB8008680968F7
:1009A000130EDBCF0DF0140EDBCF0EF0A9EC1FF011
:1009B000040E06C0DBFF03D0130E2FEC09F0FCEC95
:1009C00008F00BD0090EDB6A9DEC09F003E011EC96
:1009D0000AF0FAD7090E2FEC09F0030EDBB0DB9812
:1009E0002E0EDF5C1BE1FCEC08F02A0EDF5C0BE155
:1009F000F8EC08F046EC09F003E1130E81EC09F085
:100A0000FCEC08F00BD0090EDB6A9DEC09F003E06A
:100A100011EC0AF0FAD7090E81EC09F0680EDF5CE0
:100A200007E1FCEC08F0680EDF5C1DE1030E18D056
:100A3000740EDF5C17E07A0EDF5C14E0480EDF5CBA
:100A400006E0540EDF5C03E05A0EDF5C02E1020EAA
:100A500007D06C0EDF5C03E06A0EDF5C04E1010E80
:100A6000D4EC09F0C9DBDF506E0A01E17FD31E0A26
:100A700001E192D1200A01E18FD13F0A01E149D180
:100A80001A0A01E146D10D0A01E143D1200A01E130
:100A900040D13A0A01E13DD1200A01E13AD1260ACA
:100AA00001E135D10D0A01E132D11A0A01E1D9D0B3
:100AB000200A4AE0300A1FE0460A0EE0250A01E05B
:100AC00083D3D950F90FE96EFF0EDA20EA6E010EDA
:100AD000EE5E000EEE5AEE5AE2EC09F0250EE66EDE
:100AE00095DB03E1151C01E169D3DEEC09F001E2BD
:100AF0006BD3DB2A69D3080EDB6A040EDB500108D6
:100B000006E2040EDB04A6EC09F0DB508BDB080EDA
:100B1000DB5009E0030EDB50010B05E172DB01E065
:100B20004DD3080EDB6A64DBEFCFDFFF56EC0AF033
:100B300003E1151C01E142D3DEEC09F001E3DB2AFD
:100B400060DB01E141D33AD3070EDB5002080FE12D
:100B500022EC0AF0030EE9EC09F00E0EEECFDBFFFB
:100B60000F0EEECFDBFF100EEECFDBFF20D0F70E27
:100B7000DBCF17F0F80EDBCF18F0020E175E000E79
:100B8000185AF70E17C0DBFFF80E18C0DBFF17C0AE
:100B9000E9FF18C0EAFFD9EC09F0166A0E0E14C07E
:100BA000DBFF0F0E15C0DBFF100E16C0DBFF0E0EB5
:100BB000DBCFE6FF0F0EDBCFE6FF100EDBCFE6FF4D
:100BC0002BEC2BF0E552E552E552130E07C0DBFF8C
:100BD000140E08C0DBFF060EDB5005E0130E1DEC03
:100BE0000AF001E26ADB41EC0AF002E2130E37DBA5
:100BF00004EC0AF006E0040E1DEC0AF002E2050E19
:100C00002EDB030EDBB005D0FCDA01E0D7D2080EF4
:100C1000DB6A090EDB6A0E0EDBCFF6FF0F0EDBCFB1
:100C2000F7FF100EDBCFF8FF0800F550DF6EDF5046
:100C300014E047EC0AF011E256EC0AF003E1151C4F
:100C400001E1BCD2BBDB01E3DB2A090EDB2AD95070
:100C50000E0FE96E000ECBDBE7D7D3DA01E1B4D299
:100C6000ADD2C6DA110EEECFDBFF120EEDCFDBFFF9
:100C7000110EDBCFE6FF120EDBCFE6FF1DEC2BF0F3
:100C8000E552E552130EF3CFDBFF140EF4CFDBFF7A
:100C9000060EDB5004E0130ED0DB01E20EDB41EC6C
:100CA0000AF002E2130EDBDAAFDB05E0040EC5DB6F
:100CB00002E2050ED4DA030EDBB005D0A2DA01E0C1
:100CC0007DD2080EDB6A090EDB6A110EDBCFE9FF6D
:100CD000120EDBCFEAFFEFCFDFFFDF5014E0D7DBF0
:100CE00012E2E4DB03E1151C01E168D267DB01E3FA
:100CF000DB2A090EDB2A110EDB2ADBCFE9FF120EFD
:100D0000E8E3DB2AE6D77DDA01E15ED257D2030EB3
:100D1000DB8E070EDB0410E195DB040E5ADB0A0EB6
:100D2000EECFDBFF0B0EEECFDBFF0C0EEECFDBFFCB
:100D30000D0EEECFDBFF6CD0070EDB5003082CE16D
:100D4000030EDBAE0DD0B2DA020E76DAEFCF14F07E
:100D5000156A166A176A14AE39D01568166835D048
:100D6000F70EDBCF15F0F80EDBCF16F0020E155E96
:100D7000000E165AF70E15C0DBFFF80E16C0DBFF8B
:100D800015C0E9FF16C0EAFFEFCF14F00A0E14C039
:100D9000DBFF0B0EDB6A38D0070EDB50020809E1DF
:100DA000030EDBAE04D059DB16AE10D00ED055DBEF
:100DB0000DD0030EDBAE12D079DA020E3DDAF9DA8D
:100DC000166A176A15AE02D016681768E2DA0C0EBA
:100DD00016C0DBFF0D0E17C0DBFF1AD0F70EDBCFFE
:100DE00016F0F80EDBCF17F0020E165E000E175A43
:100DF000F70E16C0DBFFF80E17C0DBFF16C0E9FFC9
:100E000017C0EAFFD6DAC5DA0C0EDB6A0D0EDB6A14
:100E1000060EDB5005E1010EF36E050EF3CFDBFF8E
:100E2000150EDB6A160EDB6AD950370F146E000EF2
:100E3000DA20156E390E14C0DBFF3A0E15C0DBFF49
:100E4000380EDB6A080EDB6A0A0EAEDADF50780A6B
:100E500012E0200A10E0280A0CE0200A0AE03F0A0B
:100E600006E00D0A02E0200A08E1020E05D0080E95
:100E700003D0080EDF26100E97DA030EDBBE02D079
:100E8000DB92DB94DB50800B24E08ADAD890030EEF
:100E9000EB50000A08E6000EEE5C000EEE58000E65
:100EA000EE58000EEE5815E213DA0B680C680D6868
:100EB0000E68E5EC2AF00A0E02C0DBFF0B0E03C041
:100EC000DBFF0C0E04C0DBFF0D0E05C0DBFF2D0E9B
:100ED00008D0030EDBA202D02B0E03D0DBA408D077
:100EE000200EF36E170EF3CFDBFF150EDB2A02D0B8
:100EF000170EDB6A050EDB5003E1B7D901E189D09B
:100F0000B20E146E570E156E000E166E070EDBCF66
:100F100017F0186A196A1A6A17C00BF018C00CF09B
:100F200019C00DF01AC00EF0D3D950EC2BF01450AC
:100F30000224F36E15500320F46E16500420F86E50
:100F4000F4CFF7FFF3CFF6FF0800090EF5CFDBFF74
:100F5000580EDF5C0FE1610EF36E090E7BD90AE3D8
:100F6000200E146E090EDBCFE7FF1450E75E090E6A
:100F7000E7CFDBFF070EDBCF14F0156A166A176A9E
:100F80000FDA14C00BF015C00CF016C00DF017C02E
:100F90000EF0EECF06F0EECF07F0EECF08F0EFCF79
:100FA00009F050EC2BF009C0EDFF08C0EDFF07C0C1
:100FB000EDFF06C0EFFF390EDBCFE9FFDB063A0E8F
:100FC000DBCFEAFF01E2DB06090EDBCFEFFF150EF8
:100FD000DB2A4BD995E1030EDBA61DD06F0EDF5C3B
:100FE00006E1C1D918E3150EDB285BDA14D0780EC0
:100FF000DF5C09E0580EDF5C06E0620EDF5C03E0B8
:10100000420EDF5C08E1020EF36E160EF3CFDBFF3B
:1010100002D0150EDB6A030EDB50100B0EE0040E3F
:10102000DBCF14F0050EDB50D880145406E2060E18
:10103000DB5003E1040EDB5034DA95D90AE2050EE9
:10104000DBCFE7FF150EDB50E75E050EE7CFDBFFDA
:1010500002D0050EDB6A040EDBCF14F0160E45D964
:10106000D880145414E2160EDBCFE6FF150EDBCF4A
:10107000E6FF040EDBCFE6FF050EDB50E552E75C32
:10108000E552D880E754E552D880E7545FD9030E83
:10109000DB50010B0BE1080EDB5008E0B2D801E099
:1010A0008DD0080EDB50BED8080EDB6A170EDB5061
:1010B00007E088D9170EF1D903E1151C01E17ED0B4
:1010C000160EDB5016E07ED9300EE66E9FD802E198
:1010D000151C74E077D9DFCFE6FFA3EC2AF0E552C8
:1010E000E552E552F4CF15F00001F31C02E1151CA6
:1010F00065E0050EDBCF14F0160EDB50D8801454DB
:1011000009E2050EDBCFE7FF160EDB50E75E050EAA
:10111000E7CFDBFF300EE66E050ECBD94FE1390E7F
:10112000DB2ADBCFE9FF3A0E01E3DB2ADBCFEAFF64
:10113000090EEFCFDBFFDB500EE044D9090EADD92D
:1011400002E1151C3BE0390EDB2ADBCFE9FF3A0E4A
:10115000EDE3DB2AEBD755D831E1160EDBCFE6FF06
:10116000080EC3D8E552E7245DD82ED0070EDB5019
:10117000030A1CE0010A14E0030A07E07BD9DBCF75
:10118000EEFF020EDBCFEDFF1FD0F5D8196A17AEC8
:1011900002D0186819682CD8BCD819C0EEFF14D03A
:1011A000EAD817BE186824D8B4D80ED063D9DBCFDC
:1011B000EFFF0AD07BD905E1151C03E1F368F46861
:1011C00010D0FCD801E3DB2A79D983EF04F0010EBB
:1011D000DBCF14F0020EDBCF15F014C0F3FF15C007
:1011E000F4FF3B0EE15C02E2E16AE552E16ECBD036
:1011F00029D9020EE9EF09F061D90800F550DF6E38
:101200001200200EE66E080E59EF0AF0A3EC2AF049
:10121000E552E552E552F3CF14F0F4CF15F000019A
:10122000F31C1200146E156AD950010F4DD91450D9
:10123000EE261550ED221200185E000E195AF70E18
:1012400018C0DBFFF80E19C0DBFF18C0E9FF19C09A
:10125000EAFF1200DBCFF4FFF350F45C1200DB5026
:10126000E76E040EE7CFDBFF12000A0EDBCF14F0AF
:101270000B0EDBCF15F00C0EDBCF16F00D0EDBCF17
:1012800017F014501510161017101200130EEECF91
:10129000DBFF140EEDCFDBFF130EDBCF14F0140ECB
:1012A000DBCF15F00001800E15141200F70EDBCF16
:1012B00018F0F80EDBCF19F01200050EDB50E66EC9
:1012C000D950130F01D9E552E750EE6EED6A1200C6
:1012D0000A0EDBCF06F00B0EDBCF07F00C0EDBCFD8
:1012E00008F00D0EDBCF09F01200DBCFE6FF150E84
:1012F000DBCFE6FF050EDB50E552E724E552E7249D
:101300001200DB50CED8010EF36E060EF3CFDBFFDA
:101310001200EE50EFCFEAFFE96E16C0EEFF17C0E5
:10132000EEFF18C0EEFF1200D9CFE6FFDACFE6FFDE
:10133000E1CFD9FFE2CFDAFF1200DFCFE6FFE66AA6
:10134000B9EC2BF0E552E552F3501200E76E080EAF
:10135000E7CFDBFF1200EECF14F0EECF15F0EFCFAA
:1013600016F0176A1200050EDBCF14F0150EDB50D5
:10137000D88014541200010EDBCF16F0020EDBCF22
:1013800017F0186A1200E552E5CFDAFFE7CFD9FF70
:1013900012000A0E14C0DBFF0B0E15C0DBFF12009B
:1013A000D9500A0F64EF0AF0F36E070EF3CFDBFF9C
:1013B0001200EECF14F0EFCF15F01200010EDB2A71
:1013C000020E1200FC0EDBCFE6FFFD0EDBCFE6FFC8
:1013D0001200145E000E155AF70E14C0DBFFF80E53
:1013E00015C0DBFF14C0E9FF15C0EAFF1200DA20C8
:1013F000EA6EEF2AEECFF6FF000EEF22EECFF7FFF8
:10140000EF22EECFF8FF1200040EDBCFE6FF130E43
:10141000DB50E552E75C9ADFDB5004DF060EDB5061
:101420001200090EDB500A0DF350DF24D00FE76ED7
:10143000090EE7CFDBFFFCEF08F0DB50F36E050E83
:101440002AEF09F0F70EDBCF14F0F80EDBCF15F022
:101450001200DFCFE6FF06EF09F028DF030EECDE17
:10146000ABEF09F058EC04F0E552E552E552E552D5
:1014700000091200BDDEEE50EFCFEAFFE96E010E6B
:101480001200130EDB50F36E040E2AEF09F0040E67
:10149000DB50F36E090E2AEF09F0DBCFE6FF06EF13
:1014A00009F0E76E050EE7CFDBFF12008BDF29EFB7
:1014B0000AF0DBCFE6FF86DF32EF0AF0D950F90FF2
:1014C000E96EFF0EF7EF09F0E96E000EDA20EA6E22
:0214D000120008
:0E14D200020184511DE1010E846F0A0EA46F09
:1014E000A56BA66BA76BA86BA96B9C0EAA6FAB69CB
:1014F000640EAC6FAD6B0A0EAE6FAF6BB06BB16BC1
:10150000B26BB36B9C0EB46FB569640EB66FB76BFC
:1015100000D0ACC2E6FFADC2E6FFA8C2E6FFA9C29A
:10152000E6FFA6C2E6FFA7C2E6FFA4C2E6FFA5C289
:10153000E6FF860EE66E020EE66E8DEC19F0146E76
:101540000A0EE15E1450B6C2E6FFB7C2E6FFB2C2B1
:10155000E6FFB3C2E6FFB0C2E6FFB1C2E6FFAEC22D
:10156000E6FFAFC2E6FF950EE66E020EE66E8DEC6C
:1015700019F0146E0A0EE15E145004D80201010E37
:10158000846F1200BAEC26F0FAEC26F0FBEF1DF0A7
:101590000201240EBC6FBD6BBE6BBF6BE7EC1DF090
:1015A000F3CF14F0F4CF15F0153404E21450900882
:1015B000010E15540EE292EC1CF0F3CFB8F2F4CF0A
:1015C000B9F20201BA6BBB6BB9AF02D0BA69BB69A1
:1015D00005D00201B86BB96BBA6BBB6B0101AEA150
:1015E00005D00201BC6BBD6BBE6BBF6BB8C214F003
:1015F000B9C215F0BAC216F0BBC217F0000E146CD7
:10160000151E1522161E1622171E172214C006F0CC
:1016100015C007F016C008F017C009F0BCC20BF0E7
:10162000BDC20CF0BEC20DF0BFC20EF0E5EC2AF058
:1016300002C0C8F203C0C9F204C0CAF205C0CBF2AE
:10164000900E0B6E010E0C6E0D6A0E6AC8C206F08B
:10165000C9C207F0CAC208F0CBC209F075EC1FF08E
:1016600006C0C8F207C0C9F208C0CAF209C0CBF26E
:101670000101FD6B0101B2510201806F816B7F0E90
:10168000805F000E815B0101B3510201826F836BA9
:101690007F0E825F000E835B82C2E6FF83C2E6FF9D
:1016A00080C2E6FF81C2E6FF5F0EE66E510EE66E77
:1016B000000EE66E57EC2AF0146E070EE15E145031
:1016C0000201C8518027C9518123C851825FC95185
:1016D000835BB8C2C4F2B9C2C5F2BAC2C6F2BBC219
:1016E000C7F21200D9CFE6FFE1CFD9FF0201250EE4
:1016F000BC6FBD6BBE6BBF6BE7EC1DF0F3CF14F09E
:10170000F4CF15F0153404E214509008010E15546E
:101710000EE292EC1CF0F3CFB8F2F4CFB9F2020172
:10172000BA6BBB6BB9AF02D0BA69BB6905D0020115
:10173000B86BB96BBA6BBB6BB8C214F0B9C215F019
:10174000BAC216F0BBC217F0000E146C151E15229B
:10175000161E1622171E172214C006F015C007F019
:1017600016C008F017C009F0BCC20BF0BDC20CF0E7
:10177000BEC20DF0BFC20EF0E5EC2AF002C0C8F206
:1017800003C0C9F204C0CAF205C0CBF2900E0B6EC2
:10179000010E0C6E0D6A0E6AC8C206F0C9C207F0CF
:1017A000CAC208F0CBC209F075EC1FF006C0C8F23F
:1017B00007C0C9F208C0CAF209C0CBF20101FD6B33
:1017C000FB0EDBCF14F0FC0EDBCF15F0FD0EDB5073
:1017D000000114240201806FFE0EDB500001152071
:1017E0000201816FFD0EDBCF14F0FE0EDBCF15F092
:1017F000FB0EDB500001145C0201826FFC0EDB501B
:10180000000115580201836FC8518027C9518123F7
:10181000C851825FC951835BE552E7CFD9FF1200FF
:10182000D9CFE6FFE1CFD9FF0E0EE1260101B3517A
:10183000146E156A7F0E145E000E155A14C0DEFF7A
:1018400015C0DDFFB751146E156A7F0E145E000ED1
:10185000155A020E14C0DBFF030E15C0DBFFDECFEE
:10186000E6FFDDCFE6FF21EC12F0E552E552040E73
:10187000F3CFDBFF050EF4CFDBFF020EDBCFE6FF7D
:10188000030EDBCFE6FF21EC12F0E552E552060E27
:10189000F3CFDBFF070EF4CFDBFFD9CFE9FFDACFC1
:1018A000EAFF080EEECFDBFF090EEDCFDBFF020EE5
:1018B000DBCF08F0030EDBCF09F00A0E08C0DBFF18
:1018C0000B0E09C0DBFF040EDBCF14F0050EDBCFDF
:1018D00015F07F0ED8801456000E15563C0E1426B7
:1018E000000E15220C0E14C0DBFF0D0E15C0DBFF21
:1018F0000A0EDBCF08F00B0EDBCF09F00C0EDBCFAE
:101900000DF00D0EDBCF0EF0A9EC1FF006C014F0A9
:1019100007C015F0BB0E0D6E0E6814C008F015C0A0
:1019200009F04FEC1FF008C014F009C015F00A0EC2
:1019300014C0DBFF0B0E15C0DBFF0A0EDBCFE6FF8A
:101940000B0EDBCFE6FF080EDBCFE6FF090EDBCF89
:10195000E6FFC8DEE552E552E552E5520E0EE15CC7
:1019600002E2E16AE552E16EE552E7CFD9FF1200EB
:101970000101FB6B12000101010EFB6F120001015E
:10198000FB5102E0000E01D0010EFB6F1200D9CF17
:10199000E6FFE1CFD9FFFE0EDBCFFBF1E552E7CF4B
:1019A000D9FF12000101010EFC6F12000101FC6B56
:1019B0001200D9CFE6FFE1CFD9FF020EE1261AECE3
:1019C0001DF006C0DEFF07C0DDFFDECF14F0DDCF67
:1019D00015F0FD0EDBCF16F0FE0EDBCF17F0050E77
:1019E000165E000E175A15501718E8AE02D01734BD
:1019F00004D01650145C175015581BE3DECF18F0B6
:101A0000DDCF19F0050EE76EFD0EDBCF1AF0FE0EEE
:101A1000DBCF1BF0E7501A26000E1B221B501918B3
:101A2000E8AE02D0193404D018501A5C19501B5873
:101A300021E2FD0EDBCFE6FFFE0EDBCFE6FFDECFC1
:101A4000E6FFDDCFE6FF860EE66E020EE66E5CEC8C
:101A500017F0146E060EE15E1450E66EE66A000E94
:101A6000E66EE66A3FDEE552E552E552E552000ECB
:101A700003D002D0010E00D0146E020EE15C02E22F
:101A8000E16AE552E16E1450E552E7CFD9FF12004A
:101A9000D9CFE6FFE1CFD9FF020EE1261AEC1DF007
:101AA00006C0DEFF07C0DDFF000EE66EE66ADECF91
:101AB000E6FFDDCFE6FF860EE66E020EE66E5CEC1C
:101AC00017F0146E060EE15E1450E66EE66AFE0E26
:101AD000DBCFE6FFE66A06DEE552E552E552E55267
:101AE000020EE15C02E2E16AE552E16EE552E7CF07
:101AF000D9FF1200D9CFE6FFE1CFD9FF92EC26F053
:101B000006C014F007C015F008C016F009C017F0A1
:101B100014C0E6FF15C0E6FF16C0E6FF17C0E6FFDB
:101B2000D2EC26F0E552E7CF17F0E552E7CF16F0FA
:101B3000E552E7CF15F0E552E7CF14F01450062434
:101B4000066E15500720076E16500820086E1750B5
:101B50000920096E020E0B6E0C6A0D6A0E6A75EC96
:101B60001FF006C0FEF107C0FFF1FC0EDBCF14F042
:101B7000FD0EDBCF15F0050E145E000E155A0101A7
:101B8000FF511518E8AE02D0153404D01450FE5D94
:101B90001550FF5917E3050EE76EFC0EDBCF16F06C
:101BA000FD0EDBCF17F0E7501626000E1722175058
:101BB000FF19E8AE02D0FF3504D0FE51165CFF518C
:101BC00017581AE2FC0EDBCFE6FFFD0EDBCFE6FF77
:101BD000FEC1E6FFFFC1E6FF950EE66E020EE66E61
:101BE0005CEC17F0146E060EE15E1450E66E50DFEA
:101BF000E552000E03D002D0010E00D0E552E7CF2F
:101C0000D9FF12000201D4510101BB5D06E0BB51B6
:101C10007F0802E203D801D005D812000201010EAC
:101C2000856F12000201856B1200D9CFE6FFE1CF6C
:101C3000D9FFFE0EDB50146E156A02011550831990
:101C4000E8AE02D0833504D08251145C835115581C
:101C500003E2FE0EDB5010D0FE0EDB50FF0DF35002
:101C600083AF02D0D89003D0825D000E835906E284
:101C7000FE0EDB50FF0DF350826F836BFE0EDB50C8
:101C8000146E156A15508119E8AE02D0813504D062
:101C90008051145C8151155803E2FE0EDB5010D0C8
:101CA000FE0EDB50FF0DF35081AF02D0D89003D071
:101CB000805D000E815906E2FE0EDB50FF0DF350F1
:101CC000806F816BE552E7CFD9FF12000101010E51
:101CD000FD6F12000201845102E169EC0AF001017A
:101CE000FB5103E08D808C9002D08D908C80FC5154
:101CF0001BE080C214F081C215F0141E151E14C022
:101D0000E6FF15C0E6FF4DEC12F0E552E552F3CFC9
:101D1000D5F282C2E6FF83C2E6FF4DEC12F0E55237
:101D2000E552F3CFD6F21AD080C214F081C215F07A
:101D3000141E151E14C0E6FF15C0E6FF4DEC12F090
:101D4000E552E552F3CFD6F282C2E6FF83C2E6FF48
:101D50004DEC12F0E552E552F3CFD5F2D5C294F135
:0E1D6000D5C293F1D6C291F1D6C290F1120015
:021D6E00D9CFCB
:101D7000E6FFE1CFD9FFE65237D80101CC97CC99E5
:101D8000900E846F010E856FDF6A100EDF5C0AE231
:101D9000DF50EA6A8425E96E8551EA227F0EEF6EF4
:101DA000DF2AF3D7A96B010EAA6FC20EAB6FCC85E9
:101DB000AE6BAF6B8C6B8E6B8F6B8C0EE66E010E09
:101DC000E66E86D8E552E5520101CC938C0EE66EA4
:101DD000010EE66E7DD8E552E5520101CC93E55245
:101DE000E552E7CFD9FF1200806A816A826A836A6E
:101DF000846A856A866A876A886A896A8A6A8B6A57
:101E00008C6A8D6A8E6A8F6A906A916A2F0E926EC2
:101E100093689C0E946E956A966A9768040E986E05
:101E200099680E0E9A6EB0989C8EF26AF16AF06A0A
:101E30009E6AA16AA46A080E9D6EA06AA36A9F6E3C
:101E4000A26AA56A050EC66EC68AD08EF288F28C8A
:101E5000F28E120082828088949292981200D9CFDA
:101E6000E6FFE1CFD9FFE6520101CCA12CD0CCA9ED
:101E700005D0400E806F010E816F04D0600E806F20
:101E8000010E816FFD0EDBCF82F1FE0EDBCF83F101
:101E9000DF6A200EDF5C14E2DF50EA6A8025E96E1B
:101EA0008151EA22EF50E66E82C1E9FF83C1EAFF69
:101EB000822B000E8323E552E750EF6EDF2AE9D72D
:101EC0009D96CC919D86E552E552E7CFD9FF120051
:101ED000D9CFE6FFE1CFD9FFE6520101CCB350D014
:101EE000FD0EDBCFE9FFFE0EDBCFEAFF1E0EE9267B
:101EF000000EEA22EF50020809E1FD0EDBCFE6FFFB
:101F0000FE0EDBCFE6FF46D8E552E552FD0EDBCFF5
:101F1000E9FFFE0EDBCFEAFF150EE926000EEA22EE
:101F2000EF9E0101CCA705D0200E806F010E816FBE
:101F300004D0000E806F010E816FFD0EDBCF84F1A7
:101F4000FE0EDBCF85F1DF6A200EDF5C14E284C178
:101F5000E9FF85C1EAFF842B000E8523EF50E66E72
:101F6000DF50EA6A8025E96E8151EA22E552E750A6
:101F7000EF6EDF2AE9D79D96CC77CC839D86A92B7F
:101F8000E552E552E7CFD9FF12009D960101CC91B1
:101F90009D861200D9CFE6FFE1CFD9FFFD0EDBCF42
:101FA000E9FFFE0EDBCFEAFF1C0EE926000EEA2257
:101FB000EF6AFD0EDBCFE9FFFE0EDBCFEAFF170E67
:101FC000E926000EEA22EF6AC6AE0ED0C69EFD0ECE
:101FD000DBCFE9FFFE0EDBCFEAFF170EE926000E8E
:101FE000EA22010EEF6E22D0F150800B10E0F25089
:101FF000080B0DE0FD0EDBCFE9FFFE0EDBCFEAFFA5
:10200000170EE926000EEA22020EEF6E0FD0F0A6A0
:102010000DD0909EFD0EDBCFE9FFFE0EDBCFEAFF79
:10202000170EE926000EEA22030EEF6E250EC614E7
:10203000250819E0FD0EDBCFE9FFFE0EDBCFEAFF3E
:102040001C0EE926000EEA22010EEF6EFD0EDBCF1C
:10205000E9FFFE0EDBCFEAFF170EE926000EEA22AB
:10206000C6CFEFFF80D1C55019E0FD0EDBCFE9FFF1
:10207000FE0EDBCFEAFF1C0EE926000EEA22020E5E
:10208000EF6EFD0EDBCFE9FFFE0EDBCFEAFF170E92
:10209000E926000EEA22C5CFEFFF65D1D0BE19D0E8
:1020A000FD0EDBCFE9FFFE0EDBCFEAFF1C0EE926BB
:1020B000000EEA22030EEF6EFD0EDBCFE9FFFE0EEF
:1020C000DBCFEAFF170EE926000EEA22D0CFEFFFA2
:1020D0004AD19DB619D0FD0EDBCFE9FFFE0EDBCF56
:1020E000EAFF1C0EE926000EEA22040EEF6EFD0E3A
:1020F000DBCFE9FFFE0EDBCFEAFF170EE926000E6D
:10210000EA229DCFEFFF2FD19C5019E0FD0EDBCFCF
:10211000E9FFFE0EDBCFEAFF1C0EE926000EEA22E5
:10212000050EEF6EFD0EDBCFE9FFFE0EDBCFEAFF03
:10213000170EE926000EEA229CCFEFFF14D1080EFD
:102140009F5C19E0FD0EDBCFE9FFFE0EDBCFEAFF5F
:102150001C0EE926000EEA22060EEF6EFD0EDBCF06
:10216000E9FFFE0EDBCFEAFF170EE926000EEA229A
:102170009FCFEFFFF8D0A25019E0FD0EDBCFE9FFB3
:10218000FE0EDBCFEAFF1C0EE926000EEA22070E48
:10219000EF6EFD0EDBCFE9FFFE0EDBCFEAFF170E81
:1021A000E926000EEA22A2CFEFFFDDD0A55019E00C
:1021B000FD0EDBCFE9FFFE0EDBCFEAFF1C0EE926AA
:1021C000000EEA22080EEF6EFD0EDBCFE9FFFE0ED9
:1021D000DBCFEAFF170EE926000EEA22A5CFEFFFBC
:1021E000C2D0100EF214100819E0FD0EDBCFE9FF8B
:1021F000FE0EDBCFEAFF1C0EE926000EEA22090ED6
:10220000EF6EFD0EDBCFE9FFFE0EDBCFEAFF170E10
:10221000E926000EEA22F2CFEFFFA5D0470EF11417
:1022200019E0FD0EDBCFE9FFFE0EDBCFEAFF1C0E4F
:10223000E926000EEA220A0EEF6EFD0EDBCFE9FF63
:10224000FE0EDBCFEAFF170EE926000EEA22F1CFE1
:10225000EFFF89D0C00EF01419E0FD0EDBCFE9FFCF
:10226000FE0EDBCFEAFF1C0EE926000EEA220B0E63
:10227000EF6EFD0EDBCFE9FFFE0EDBCFEAFF170EA0
:10228000E926000EEA22F0CFEFFF6DD092A819D018
:10229000FD0EDBCFE9FFFE0EDBCFEAFF1C0EE926C9
:1022A000000EEA220C0EEF6EFD0EDBCFE9FFFE0EF4
:1022B000DBCFEAFF170EE926000EEA2292CFEFFFEE
:1022C00052D093B019D0FD0EDBCFE9FFFE0EDBCF6D
:1022D000EAFF1C0EE926000EEA220D0EEF6EFD0E3F
:1022E000DBCFE9FFFE0EDBCFEAFF170EE926000E7B
:1022F000EA2293CFEFFF37D03E0E94141C0819E06A
:10230000FD0EDBCFE9FFFE0EDBCFEAFF1C0EE92658
:10231000000EEA220E0EEF6EFD0EDBCFE9FFFE0E81
:10232000DBCFEAFF170EE926000EEA2294CFEFFF7B
:102330001AD097BE18D0FD0EDBCFE9FFFE0EDBCF23
:10234000EAFF1C0EE926000EEA220F0EEF6EFD0ECC
:10235000DBCFE9FFFE0EDBCFEAFF170EE926000E0A
:10236000EA2297CFEFFFE552E7CFD9FF1200D8CF8F
:10237000E4FFE0CFE4FFE46EDACFE4FFE2CFDAFF80
:10238000E9CFE4FFEACFE4FFE6529EA624D09E9672
:10239000C9CF8BF101018A5100081BE288C1E9FF16
:1023A00089C1EAFF882B000E89238BC1EFFF86C10C
:1023B000E9FF87C1EAFF862B8723EFCF8BF18BC123
:1023C000C9FF8A078A5104E1020EAA6FCC93CC811F
:1023D00001D0C96A29D0F2A227D0F2920101200EC1
:1023E0008A6FCCA905D0600E886F010E896F04D06A
:1023F000400E886F010E896FCCA1CC79CCA705D097
:10240000000E866F010E876F04D0200E866F010EBE
:10241000876FC9CF8BF186C1E9FF87C1EAFF862BA1
:10242000000E8723EF50C96EE552E5CFEAFFE5CFF6
:10243000E9FFE5CFDAFFE550E5CFE0FFE5CFD8FFD4
:0224400010008A
:0E244200D9CFE6FFE1CFD9FFFD0EDBCF14F0BE
:10245000FE0EDBCF15F00001800E15140BE0FD0E13
:10246000DBCF14F0FE0EDBCF15F0146C151E000E42
:10247000152206D0FD0EDBCF14F0FE0EDBCF15F0DB
:1024800014C0F3FF15C0F4FF00D0E552E7CFD9FF29
:1024900012000301695100D01200D9CFE6FFE1CF4D
:1024A000D9FFFD0EDBCF14F0FE0EDBCF15F0153497
:1024B00004E214507F08000E155408E27F0EF36EFC
:1024C000FD0EF3CFDBFFFE0EDB6A15D0FD0EDBCF7A
:1024D00014F0FE0EDBCF15F0D880155004E7810E06
:1024E000145CFF0E155807E2810EF36EFD0EF3CF5C
:1024F000DBFFFE0EDB68D950FD0FE96EFF0EDA2020
:10250000EA6E7F0EEE26000EED22FD0EDBCF14F0FC
:10251000FE0EDBCF15F014C0F3FF15C0F4FF00D0A2
:10252000E552E7CFD9FF120001018C918C938C9575
:102530008C978C998C9B8C9D8C9F8D918D938D9578
:102540000301550503E10301010E04D0560503E123
:102550000301020E696F03016951020A06E0030AD2
:1025600001E005D001018C8103D001018C8500D0F0
:10257000120003014F6B4FC34EF34FC34DF34FC3D4
:102580004CF3536B53C352F353C351F353C350F340
:10259000566B56C355F356C354F30101AEAF03D087
:1025A0000301010E4F6F0101AEA903D00301010E1B
:1025B0004E6F0101AEAB03D00301010E4D6F01015F
:1025C000AEAD03D00301010E4C6F040E0101B85DE6
:1025D00003E20301010E536F0101B851146E156A35
:1025E000D890155004E6A90E145C000E15580DE3A2
:1025F000B851166E176A173404E21650AC08000E74
:10260000175403E30301010E546F0101B851146E16
:10261000156AD890155004E6BD0E145C000E1558CE
:102620000EE3B851166E176A173404E21650C0084C
:10263000000E175404E30301010E546F536F040E90
:102640000101B45D03E20301010E516F0101B451B8
:10265000146E156AD890155004E6A90E145C000E8D
:1026600015580DE3B451166E176A173404E216506C
:10267000AC08000E175403E30301010E526F010171
:10268000B451146E156AD890155004E6BD0E145C52
:10269000000E15580EE3B451166E176A173404E293
:1026A0001650C008000E175404E30301010E516FC9
:1026B000526F040E0101BC5D03E20301010E556F70
:1026C0000101BC51146E156AD890155004E6A90E8C
:1026D000145C000E15580DE3BC51166E176A1734C2
:1026E00004E21650AC08000E175403E30301010E78
:1026F000566F0101BC51146E156AD890155004E64E
:10270000BD0E145C000E15580EE3BC51166E176A10
:10271000173404E21650C008000E175404E30301F6
:10272000010E566F556F0101BC51146E156AD89099
:10273000155004E6D20E145C000E15580DE3BC5182
:10274000166E176A173404E21650D508000E175497
:1027500003E30301010E506F0101BC51146E156AB1
:10276000D890155004E6DF0E145C000E15580EE3E9
:10277000BC51166E176A173404E21650E408000EB6
:10278000175404E30301010E566F506F0101BC5151
:10279000146E156AD890155004E6E40E145C000E11
:1027A00015580EE3BC51166E176A173404E2165022
:1027B000E808000E175404E30301010E506F556F33
:1027C0000101BC51146E156AD890155004E6BC0E78
:1027D000145C000E15580FE3BC51166E176A1734BF
:1027E00004E21650C108000E175405E30301010E60
:1027F000566F556F506F1200D9CFE6FFE1CFD9FF6A
:10280000080EE12603016F5101E093D06B2B000EFF
:102810006C236D2B6E230A0E6D1901E16E510BE1D5
:10282000EE0EE66E510EE66E000EE66E57EC2AF0E6
:10283000E552E552E55203013C0E6D1901E16E517E
:1028400002E199EC1DF02C0E03016D1902E1010E5D
:102850006E190FE1A7EC1DF0FBEC1DF0E80EE66E23
:10286000510EE66E000EE66E57EC2AF0E552E55288
:10287000E55203011E0E6B5D000E6C595AE32C0EDF
:102880006D5D010E6E5955E3E7EC1DF0060EF3CFBA
:10289000DBFF070EF4CFDBFF92EC1CF0F3CFDEFF83
:1028A000F4CFDDFF1AEC1DF0020E06C0DBFF030EB5
:1028B00007C0DBFF040E08C0DBFF050E09C0DBFF0D
:1028C000060EDBCFE6FF070EDBCFE6FFD80EE66E87
:1028D000510EE66E000EE66E57EC2AF0146E050EF1
:1028E000E15E1450DECFE6FFDDCFE6FFC80EE66EF8
:1028F000510EE66E000EE66E57EC2AF0146E050ED1
:10290000E15E1450020EDBCFE6FF030EDBCFE6FFE5
:10291000B60EE66E510EE66E000EE66E57EC2AF02D
:10292000146E050EE15E145003016B6B6C6B010EAF
:102930006F6F080EE15C02E2E16AE552E16EE5527A
:10294000E7CFD9FF120003016A6B12000301010EE9
:102950006A6F120003016A5107E18850800B02E0A0
:102960008D9601D08D8601D08D96120002D8BBEFD6
:0E29700014F0F0981200F09A1200F296120085
:02297E00B2C1E4
:1029800090F1B3C191F1B4C192F1B5C193F1B6C167
:1029900094F1B7C195F1B8C196F1B9C197F1BAC137
:1029A00098F1BBC199F1BCC19AF1BDC19BF1010184
:1029B000B251146E156AFF0ED8801456000E1556CB
:1029C00014C0B6F101019451146E156AFF0ED8803F
:1029D0001456000E155614C0B2F10101B251176A17
:1029E000D00F166E070E1722B65100011624146E72
:1029F000000E1720156E7F0E145E000E155A14C0BF
:102A0000E6FF15C0E6FF1ADAE552E55201019D6FB7
:102A10009C6F0101B251176AD00F166E070E172274
:102A2000B651186E196A1850165C146E1950175862
:102A3000156E7F0E1426000E152214C0E6FF15C079
:102A4000E6FFFCD9E552E55201019F6F9E6F815070
:102A5000040B01E0010E146E0101AE51010B1414C0
:102A6000E8B08D80E8A08D908150080B01E0010E48
:102A7000146EAE51020B01E0010E1414E8B08C800C
:102A8000E8A08C908150100B01E0010E146EAF5144
:102A9000010B1414E8B08D82E8A08D928150200BB8
:102AA00001E0010E146EAF51020B01E0010E14148F
:102AB000E8B08C82E8A08C92AE51100B02E08D84BD
:102AC00001D08D94AE51200B02E08C8401D08C9407
:102AD000AF51100B02E08D8601D08D96AF51200BC7
:102AE00002E08C8601D08C96AE51040B02E08D88FA
:102AF00001D08D98AE51080B02E08C8801D08C98E3
:102B0000AE51400B02E08D8A01D08D9AAE51800B00
:102B100002E08C8A01D08C9AAF51400B02E08D8C80
:102B200001D08D9CAF51800B02E08C8C01D08C9C2D
:102B30008850800B02E0919001D091808C9E920E83
:102B4000E66E010EE66E8150400B01E0010EE66E6E
:102B50003BD9E552E552E552920EE66E010EE66E65
:102B60008150800B01E0010EE66E4AD9E552E55234
:102B7000E552930EE66E010EE66E8750010BE66E8F
:102B800023D9E552E552E552930EE66E010EE66E4C
:102B90008750020B01E0010EE66E32D9E552E55294
:102BA000E552980EE66E010EE66E8750040B01E0CA
:102BB000010EE66E09D9E552E552E552980EE66E31
:102BC000010EE66E8750080B01E0010EE66E18D983
:102BD000E552E552E552990EE66E010EE66E88501A
:102BE000020B01E0010EE66EEFD8E552E552E55228
:102BF000990EE66E010EE66E8850040B01E0010EA0
:102C0000E66EFED8E552E552E5529A0EE66E010EEA
:102C1000E66E8850080B01E0010EE66ED5D8E5524D
:102C2000E552E5529A0EE66E010EE66E8250010BF9
:102C3000E66EE6D8E552E552E5529B0EE66E010ED1
:102C4000E66E8850100B01E0010EE66EBDD8E5522D
:102C5000E552E5529B0EE66E010EE66E8850200BA3
:102C600001E0010EE66ECCD8E552E552E5521200C5
:102C70000101ADBB56D07D0EB25D0EE3B251146EB4
:102C8000156A153404E214508108000E155404E34B
:102C900001018C818C8303D001018C918C938C9BDE
:102CA0008D50010B01E08C8B8C998C50010B01E055
:102CB0008C898C9F8D50020B01E08C8F8C9D8C50E9
:102CC000020B01E08C8D8150040B01E0010E146EAB
:102CD000156A1450151002E0000E01D0010E8D91FE
:102CE000E8B08D818150080B01E0010E146E156A69
:102CF0001450151002E0000E01D0010E8D93E8B0C3
:102D00008D838150100B01E0010E146E156A145072
:102D1000151002E0000E01D0010E8D95E8B08D85F2
:102D200052D0C3C109F07EEC1EF007C01CF008C0F1
:102D30001DF009C01EF00AC01FF0710E0C6E3D0E92
:102D40000D6E7A0E0E6E410E0F6E1CC007F01DC088
:102D500008F01EC009F01FC00AF0E2EC1EF007C028
:102D600018F008C019F009C01AF00AC01BF00C6A6C
:102D70000D6A800E0E6E430E0F6E18C007F019C05C
:102D800008F01AC009F01BC00AF08FEC1EF007C053
:102D900014F008C015F009C016F00AC017F00C6A4C
:102DA0000D6A200E0E6E410E0F6E14C007F015C096
:102DB00008F016C009F017C00AF0E2EC1EF0D6ECDD
:102DC0001FF009C08CF11200D9CFE6FFE1CFD9FF87
:102DD000FE0EDB5011E1FC0EDBCFE9FFFD0EDBCF79
:102DE000EAFFEF507F0808E2FC0EDBCFE9FFFD0EA3
:102DF000DBCFEAFF7F0EEF6EE552E7CFD9FF12007F
:102E0000D9CFE6FFE1CFD9FFFE0EDB5013E1FC0E78
:102E1000DBCFE9FFFD0EDBCFEAFFEFCF14F07F0E33
:102E2000145C08E2FC0EDBCFE9FFFD0EDBCFEAFF0E
:102E30007F0EEF6EE552E7CFD9FF1200D9CFE6FF44
:102E4000E1CFD9FFFD0EDBCF14F0FE0EDBCF15F086
:102E5000D890155004E6D00E145C070E155805E204
:102E60000001D00EFD6F070E11D0FD0EDBCF14F068
:102E7000FE0EDBCF15F0153404E21450CE08080E18
:102E8000155406E20001CE0EFD6F080EFE6F06D04F
:102E9000FD0EDBCFFDF0FE0EDBCFFEF0FDC014F02B
:102EA000FEC015F0D00E145E070E155A145000D057
:082EB000E552E7CFD9FF120043
:082EB800D9CFE6FFE1CFD9FFFD
:102EC000140EE126FB0EDBCF18F0FC0EDBCF19F061
:102ED000F90EDB50185C146EFA0EDB501958156EA3
:102EE000166A176A15AE02D0166817680C0E14C061
:102EF000DBFF0D0E15C0DBFF0E0E16C0DBFF0F0E45
:102F000017C0DBFFFD0EDBCFE9FFFE0EDBCFEAFFD4
:102F10000A0EE926000EEA22EECF14F0EFCF15F0EC
:102F2000166A176A15AE02D01668176814C006F044
:102F300015C007F016C008F017C009F00C0EDBCF63
:102F40000BF00D0EDBCF0CF00E0EDBCF0DF00F0EE5
:102F5000DBCF0EF0E5EC2AF002C006F003C007F06C
:102F600004C008F005C009F0E80E0B6E030E0C6EED
:102F70000D6A0E6A75EC1FF006C0DEFF07C0DEFFAB
:102F800008C0DEFF09C0DDFFDD52DD520C0EDBCFD5
:102F900014F00D0EDBCF15F0FD0EDBCFE9FFFE0EBA
:102FA000DBCFEAFF020EE926000EEA221450EE26DD
:102FB0001550ED22FD0EDBCFE9FFFE0EDBCFEAFF61
:102FC000020EE926000EEA22EECF14F0EFCF15F044
:102FD000FD0EDBCFE9FFFE0EDBCFEAFF040EE92694
:102FE000000EEA22EECF16F0EFCF17F017501518AB
:102FF000E8AE02D0153404D01450165C15501758A2
:1030000008E2FD0EDBCFE9FFFE0EDBCFEAFF040E88
:103010002ED0FD0EDBCFE9FFFE0EDBCFEAFF020E66
:10302000E926000EEA22EECF14F0EFCF15F0FD0EE8
:10303000DBCFE9FFFE0EDBCFEAFF060EE926000E2E
:10304000EA22EECF16F0EFCF17F015501718E8AEC2
:1030500002D0173404D01650145C175015581CE2D7
:10306000FD0EDBCFE9FFFE0EDBCFEAFF060EE92601
:10307000000EEA22EECF14F0EFCF15F0FD0EDBCFFD
:10308000E9FFFE0EDBCFEAFF020EE926000EEA2280
:1030900014C0EEFF15C0EDFFFD0EDBCFE9FFFE0E05
:1030A000DBCFEAFF080EE926000EEA22EECF18F089
:1030B000EFCF19F0FD0EDBCFE9FFFE0EDBCFEAFF0D
:1030C000020EE926000EEA22EECF1AF0EFCF1BF037
:1030D00000011A501802F3CF14F0F4CF15F01902C2
:1030E000F35015261B501802F3501526E80E0D6EEE
:1030F000030E0E6E14C008F015C009F04FEC1FF05F
:1031000008C014F009C015F0166A176A15AE02D08F
:1031100016681768080E14C0DBFF090E15C0DBFF28
:103120000A0E16C0DBFF0B0E17C0DBFFFD0EDBCF58
:10313000E9FFFE0EDBCFEAFFEECF1CF0EFCF1DF074
:103140001E6A1F6A1DAE02D01E681F68D9500C0F80
:10315000E96EDACFEAFF1C50EE5C186E1D50EE5897
:10316000196E1E50EE581A6E1F50EE581B6EFD0E53
:10317000DBCFE9FFFE0EDBCFEAFF0C0EE926000EE7
:10318000EA22EECF14F0EFCF15F0166A176A15AEEB
:1031900002D01668176814C006F015C007F016C0F4
:1031A00008F017C009F018C00BF019C00CF01AC0D5
:1031B0000DF01BC00EF0E5EC2AF002C006F003C0D3
:1031C00007F004C008F005C009F0E80E0B6E030E0E
:1031D0000C6E0D6A0E6A75EC1FF0040E06C0DBFF64
:1031E000050E07C0DBFF060E08C0DBFF070E09C097
:1031F000DBFFFD0EDBCFE9FFFE0EDBCFEAFF0C0E9F
:10320000DBCFEEFF0D0EDBCFEDFF040EDBCF18F0B2
:10321000050EDBCF19F0060EDBCF1AF0070EDBCF61
:103220001BF0D9CFE9FFDACFEAFFEE501826EE50B7
:103230001922EE501A22EE501B22D950080FE96EC7
:10324000DACFEAFF1850EE24146E1950EE20156EF6
:103250001A50EE20166E1B50EE20176E100E14C082
:10326000DBFF110E15C0DBFF120E16C0DBFF130EC5
:1032700017C0DBFF100EDBCF07F0110EDBCF08F01D
:10328000120EDBCF09F0130EDBCF0AF00A34000E6A
:103290000A1809E6D8807F0E0754000E0854000E65
:1032A0000954000E0A540CE27F0EF36E100EF3CF99
:1032B000DBFF110EDB6A120EDB6A130EDB6A1ED017
:1032C000D950100FE96EDACFEAFFD880030EEB5029
:1032D000FF0A08E6810EEE5CFF0EEE58FF0EEE5878
:1032E000FF0EEE580BE2810EF36E100EF3CFDBFFF4
:1032F000110EDB68120EDB68130EDB68100EDB505C
:10330000146E140EE15C03E200D0E16AE552E16E56
:103310001450E552E7CFD9FF1200D9CFE6FFE1CF35
:10332000D9FFFD0EDBCFE9FFFE0EDBCFEAFF0A0E71
:10333000E926000EEA22FB0EDBCFEEFFFC0EDBCF10
:10334000EDFFFD0EDBCFE9FFFE0EDBCFEAFF080E3F
:10335000E926000EEA22F90EDBCFEEFFFA0EDBCFF4
:10336000EDFFFD0EDBCFE9FFFE0EDBCFEAFF0C0E1B
:10337000E926000EEA22F70EDBCFEEFFF80EDBCFD8
:10338000EDFFF50EDBCF14F0F60EDBCF15F0146C6D
:10339000151E000E1522FD0EDBCFE9FFFE0EDBCF62
:1033A000EAFF060EE926000EEA2214C0EEFF15C061
:1033B000EDFFFD0EDBCFE9FFFE0EDBCFEAFF040ED3
:1033C000E926000EEA22F50EDBCFEEFFF60EDBCF8C
:0A33D000EDFFE552E7CFD9FF120030
:0633DA0029D816C3E6FF2E
:1033E00017C3E6FF4DEC12F0E552E552F3CF97F12B
:1033F000F3CF96F118C3E6FF19C3E6FF4DEC12F0C8
:10340000E552E552F3CF99F118C314F019C315F042
:10341000146C151E000E152214C0E6FF15C0E6FF41
:103420004DEC12F0E552E552F3CF9AF112000AC3C7
:103430000CF30BC30DF30301FC0E0C5F080E0D5BC8
:10344000010EE66E03EC21F0E552F3CF1AF3F4CF50
:103450001BF3020E0301D8901A371B37E806FBE175
:103460000301065103011A5D03010E6F07510301A9
:103470001B5903010F6F0101B5510301086F096B5F
:103480007F0E085F000E095B08C318F309C319F328
:10349000090E041901E1055115E00101AEAD04D09A
:1034A000010E0301046F056B0101AEA904D0020EE9
:1034B0000301046F056B0101AFAB04D0070E0301DC
:1034C000046F056B0301050E041901E1055101E0CC
:1034D000016B070E041901E1055101E1AED1060EA1
:1034E000041901E1055101E1A1D1050E041901E121
:1034F000055101E16FD10E0E041901E1055101E101
:103500004BD1030E041901E1055101E136D1040E3E
:10351000041901E1055101E114D1080E041901E17A
:10352000055101E100D1020E041901E1055101E14B
:10353000CED00B0E041901E1055101E1C1D00D0EF1
:10354000041901E1055101E18BD00C0E041901E1D0
:1035500005515FE0010E041901E105513DE00A0E3D
:10356000041901E1055134E0090E041901E1055186
:1035700010E0700EE66E510EE66E000EE66E57EC31
:103580002AF0E552E552E552070E0301046F056B80
:103590005CD10301166B176B0301010E026F06511C
:1035A00003011A1904E10301075103011B190DE17D
:1035B0000301132B0D0E135D07E31AC30AF31BC39C
:1035C0000BF3070E046F056B02D00301136B3DD1A3
:1035D000070E046F056B39D10AC314F00BC315F045
:1035E000520E145E030E155A030115501B19E8AE56
:1035F00002D01B3504D01A51145C1B51155802E23D
:103600000C0E01D00D0E0301046F056B010E116F3E
:103610001CD1010E026F0301C00E166F17690AC399
:1036200014F00BC315F0520E145E030E155A190E4A
:103630001426000E152215501B19E8AE02D01B35BA
:1036400004D01A51145C1B51155809E30301026B95
:103650001451070803E2030E046F056B142BF5D019
:10366000010E026F0301F60E166F17690301152B89
:103670000AC314F00BC315F0640E145E000E155A45
:1036800003011B511518E8AE02D0153404D01450B4
:103690001A5D15501B590CE3166B176B0301142BA5
:1036A00014510A0805E2146B156B010E046F056BCB
:1036B000030115512A0803E20301166B176BC5D0ED
:1036C000146B156B026B0301166B176BBED0A6EC67
:1036D00014F00301010E026F0301810E166F1769CA
:1036E00003010F3504E20E511408000E0F5503E2DA
:1036F000070E046F056B0D5103011B19E8AE02D0D4
:103700001B3507D01A5103010C5D03011B51030146
:103710000D5906E30301026B080E046F056B106B75
:103720000301116B92D0026B0301810E166F1769B2
:10373000030110510A0803E2030E046F056B102BFE
:1037400084D0026B0301166B176B0101AE51800B25
:1037500008E0AE51200B05E00E0E0301046F056B6F
:1037600074D0AE51200B08E00301035105E1010EB6
:10377000016F050E046F056B68D0146B106B0301AD
:10378000166B176B0301026B0101AEAF04D0040E80
:103790000301046F056B59D0010E026F2C0E03015B
:1037A000166F176B0AC314F00BC315F0640E145E8A
:1037B000000E155A1B511518E8AE02D0153404D06E
:1037C00014501A5D15501B5904E3070E0301046FD2
:1037D000056B3BD00301186B196BA6EC14F00301C9
:1037E000010E026F122B015104E07F0E0301166FD0
:1037F00002D00301166B176B0AC314F00BC315F04C
:10380000640E145E000E155A1B511518E8AE02D056
:10381000153404D014501A5D15501B5906E30301EA
:10382000126B116B070E046F056B0FD0010E026F48
:10383000800E091501E100D008D00301166B176B4B
:103840000301010E026F136B00D01AC306F31BC3F2
:1038500007F30301025102E02BD801D02CD8030159
:103860000351E8B08D82E8A08D928D50020B02E0EA
:103870008C9201D08C8212000301035102E0000EF1
:1038800001D0010E036F1200D9CFE6FFE1CFD9FFBF
:10389000FE0EDB0404E10301010E036F05D0FE0EF2
:1038A000DB5002E10301036BE552E7CFD9FF1200C1
:1038B0008D888C9812008D988C981200640EE66E9C
:1038C000E66A000EE66EE66AE66EE66A0D0EE66EE3
:1038D000E66A1C0EE66E030EE66E8DEC19F0146EB1
:0838E0000A0EE15E1450120013
:0838E8000001646B656B666B67
:1038F000676B786B100E686F270E696F6A6B6B6B66
:103900006C6B040E6D6F6E6B6F6BE80E706F030E59
:10391000716F726B736B746B400E756F010E766F07
:10392000776B1200D9CFE6FFE1CFD9FF040EE12675
:1039300062C018F063C019F01A6A1B6A19AE02D08F
:103940001A681B6818C006F019C007F01AC008F002
:103950001BC009F068C00BF069C00CF06AC00DF024
:103960006BC00EF0E5EC2AF002C014F003C015F0B5
:1039700004C016F005C017F014C006F015C007F01B
:1039800016C008F017C009F06CC00BF06DC00CF049
:103990006EC00DF06FC00EF075EC1FF006C0DEFFBC
:1039A00007C0DEFF08C0DEFF09C0DDFFDD52DD52CB
:1039B000D9CFE9FFDACFEAFFEECF06F0EECF07F07E
:1039C000EECF08F0EFCF09F0E80E0B6E030E0C6E91
:1039D0000D6A0E6AE5EC2AF002C006F003C007F09B
:1039E00004C008F005C009F0E80E0B6E030E0C6E63
:1039F0000D6A0E6A75EC1FF006C0DEFF07C0DEFF21
:103A000008C0DEFF09C0DDFFDD52DD52DFCF14F05C
:103A1000010EDBCF15F014C0F3FF15C0F4FF040E48
:103A2000E15C03E200D0E16AE552E16EE552E7CFE6
:103A3000D9FF1200D9CFE6FFE1CFD9FF040EE1266E
:103A400064C006F065C007F066C008F067C009F002
:103A500070C00BF071C00CF072C00DF073C00EF0AE
:103A6000E5EC2AF002C014F003C015F004C016F013
:103A700005C017F014C006F015C007F016C008F016
:103A800017C009F074C00BF075C00CF076C00DF0D3
:103A900077C00EF075EC1FF006C0DEFF07C0DEFF3A
:103AA00008C0DEFF09C0DDFFDD52DD52D9CFE9FFDE
:103AB000DACFEAFFEECF06F0EECF07F0EECF08F058
:103AC000EFCF09F0E80E0B6E030E0C6E0D6A0E6A56
:103AD000E5EC2AF002C006F003C007F004C008F0CD
:103AE00005C009F0E80E0B6E030E0C6E0D6A0E6A2F
:103AF00075EC1FF006C0DEFF07C0DEFF08C0DEFF6A
:103B000009C0DDFFDD52DD52DECF06F0DECF07F06B
:103B1000DECF08F0DDCF09F0DD52DD52040EE15CAE
:103B200003E200D0E16AE552E16EE552E7CFD9FF4A
:103B30001200000178510AE1796B7A6B7B6B7C6B28
:103B400003017F6B010E7E6F0001786F1200D9CFE9
:103B5000E6FFE1CFD9FFE652000178052FE1DF6AE9
:103B6000400EDF5C1AE2EA6ADF34FE0BEA36E96EE9
:103B70007D0EE926000EEA22EECF14F0EFCF15F00D
:103B800000011450000179270001155000017A232B
:103B9000000E7B237C23DF2AE3D7060ED8907C33EC
:103BA0007B337A337933E806F9E179C060F07AC083
:103BB00061F00301040E7E6F0001786BE552E5525F
:103BC000E7CFD9FF120003017E5100D0120060C080
:103BD000F3FF61C0F4FF00D01200D9CFE6FFE1CFC0
:103BE000D9FFFD0EDBCF60F0FE0EDBCF61F0E552BA
:103BF000E7CFD9FF12000001646B656B666B676BE2
:103C00001200D9CFE6FFE1CFD9FF020EE1267CEC0E
:103C100021F0000969E00001780521E1020EE66E5D
:103C200003EC21F0E552F3CF14F0F4CF15F00301CB
:103C30007F51E96EEA6AD890E936EA367D0EE926C8
:103C4000000EEA2214C0EEFF15C0EDFF7F2B3F0EE1
:103C50007F5D02E1020E7E6F3F0E7F1740D0020EA5
:103C6000E66E03EC21F0E55200016051F35C146E46
:103C70006151F458156E14C0DEFF15C0DDFFDECFB4
:103C800014F0DDCF15F0D880155004E7F80E145C61
:103C9000FF0E15580BE3DECF16F0DDCF17F017340B
:103CA00004E216500808000E175417E2DECF62F047
:103CB000DDCF63F0DECF14F0DDCF15F0166A176AA2
:103CC00015AE02D016681768145064271550652386
:103CD000165066231750672302D0626B636BFE0E8B
:103CE000DB5002E08CEC21F0020EE15C02E2E16AC2
:0C3CF000E552E16EE552E7CFD9FF12006B
:043CFC00019E05D050
:103D0000019E09AE02D0096C018E09C003F0026A5F
:103D1000136A126A860E046E056A19EF20F0016AB2
:103D200055EC20F06DEC20F001B6FDEF1FF001A284
:103D300005D001BAFDEF1FF004EF20F001BA10EF3B
:103D400020F001A005D001B8FDEF1FF010EF20F02A
:103D500001B804EF20F0056A7F0E0A24046EE86AB9
:103D600005220F50045EE86A055A1A0E106E0A6AA0
:103D7000126A136A026A036A0C50075E0D50085AF1
:103D80000E50095A000E0A5A09E70C5007260D502A
:103D900008220E500922000E0A2201D0128AD89061
:103DA0000736083609360A36D890123613360236E8
:103DB0000336102EE1D7095008100710D8A4128A34
:103DC00019EF20F0016A55EC20F06DEC20F001B6FF
:103DD000FDEF1FF001A205D001B8FDEF1FF004EFC9
:103DE00020F001AA05D001B0FDEF1FF004EF20F094
:103DF00001B002D001A802D010EF20F0056A0F50E8
:103E00000A24046EE86A05227E0E045EE86A055AFA
:103E1000126A136A026A036A0E500902F4CF03F0B1
:103E2000F3CF02F00D500902F3501326F450022292
:103E3000000E03220E500802F3501326F450022203
:103E4000000E03220C500902F3501226F4501322E4
:103E5000000E022203220D500802F3501226F450E5
:103E60001322000E022203220E500702F3501226E4
:103E7000F4501322000E022203220C500802F450C8
:103E80001226000E1322022203220D500702F450C4
:103E90001226000E13220222032219EF20F0006ADC
:103EA0000EAE58EF1FF00D6C0E1EE86A0E22001EBB
:103EB00009AE60EF1FF0086C091EE86A0922001EB7
:103EC00091EC2BF009BE70EF1FF000AE000C086CF7
:103ED000091EE86A0922046C051EE86A0522000C26
:103EE00000BE67EF1FF00188FF0C006AE86A0EAEA3
:103EF00082EF1FF00B6C0C1E0D1E0E1E0C220D22ED
:103F00000E22001E09AE8DEF1FF0066C071E081E64
:103F1000091E072208220922001E50EC2BF009BEC0
:103F2000A4EF1FF000AE000C066C071E081E091E51
:103F3000E86A072208220922026C031E041E051EDD
:103F4000032204220522000C00BE94EF1FF001881A
:103F5000FF0C09C013F008C012F008500D02F4CF96
:103F600007F0F3CF06F009500E02F4CF09F0F3CFBB
:103F700008F00D02F3500726F4500822E86A0922DF
:103F800012500E02F3500726F4500822E86A092264
:103F90000EAECFEF1FF01250085E1350095A13AE49
:103FA000000C0D50085E0E50095A000C016A55ECC9
:103FB00020F001B6E0EF1FF001A20AD001B403D057
:103FC0007F0E096E19D0800E096E16D0096A14D0C2
:103FD00001B0FCD7870E0A60F1D77E0E0A64F6D7CF
:103FE000860E0A5C04E0D89009320A2AF9D701A4A7
:103FF00003D0096C09AEEAD712007F0E0A6EFF0EDD
:10400000096E086E076E12007F0E01BEFF0E0A6E6B
:1040100002D07F0E0A6E800E096E086A076AF3D717
:1040200001AE04D0800E0A6E096AF7D70A6A096ADF
:10403000F4D70350021013101210F8E005BEF0D7A9
:1040400003BE0CD004500510EBE0D89012361336A6
:10405000023603360406D8A00506F2D70550D4E18F
:104060000428D2E012AE11D07F0E121402E113A088
:104070000CD0132AE86A0222032207E3D880033215
:1040800002321332042A0428BFE00450C9E013C0EE
:1040900007F002C008F00334096E04300A6E0932DA
:1040A0000A9E01BE0A8E03EF20F009360A3602E3AB
:1040B0000184017E06E101800A6A096A086A076ACA
:1040C00012000A2803E0D88009321200D890093281
:1040D00002E101821200018612000E360F3602E361
:1040E000018C017E06E101880F6A0E6A0D6A0C6A76
:1040F00012000F2803E0D8800E321200D8900E3242
:06410000EAE1018A120051
:0A410600D9CFE6FFE1CFD9FFE65262
:104110000301400E2B6F060E2C6F020E2F6F306BBB
:10412000010E2D6F2E6BDF6A2F51DF5C10E2DF5026
:10413000040DF3CFE9FFF4CFEAFF310EE926030EB9
:10414000EA22EE6AEE6AEE6AEE6ADF2AEDD73D6B8E
:104150003E6B3F6B010EC26EC16ABE0EC06E9D9C6F
:104160002B5102E1190E2C1932E0800E2B1902E1BD
:104170000C0E2C1928E0400E2B1902E1060E2C190A
:104180001EE0200E2B1902E1030E2C1914E0900EF4
:104190002B1902E1010E2C190AE0C80E2B1901E1BE
:1041A0002C5101E000D06A0E766EDD0E03D0520E67
:1041B000766E8C0E03D0520E766E450E03D0510EE5
:1041C000766E8C0E03D0510E766E450E03D0500ED7
:1041D000766E8C0E776E00D0786AA596A496A3862C
:1041E0007684E552E552E7CFD9FF1200D9CFE6FF3A
:1041F000E1CFD9FFE652A3967694C26AE552E55222
:10420000E7CFD9FF1200D9CFE6FFE1CFD9FF020EE9
:10421000E126FE0EDBCF14F003012F51D880145499
:1042200012E3A396FE0EDB04E96EEA6AD890E93643
:10423000EA36390EE926030EEA22EECFDEFFEDCF95
:10424000DDFFA38602D0DE6ADD6ADECF14F0DDCFAB
:1042500015F014C0F3FF15C0F4FF020EE15C03E299
:1042600000D0E16AE552E16EE552E7CFD9FF1200D6
:10427000D9CFE6FFE1CFD9FFFD0EDBCF14F0FE0E64
:10428000DBCF15F0166A176A880E0B6E130E0C6ED4
:104290000D6A0E6A14C006F015C007F016C008F0CB
:1042A00017C009F0E5EC2AF002C014F003C015F0C5
:1042B00004C016F005C017F00B6A040E0C6E0D6AF0
:1042C0000E6A14C006F015C007F016C008F017C03B
:1042D00009F075EC1FF006C014F007C015F008C017
:1042E00016F009C017F014C0F3FF15C0F4FF00D09A
:1042F000E552E7CFD9FF1200D9CFE6FFE1CFD9FFD2
:10430000E652A39680C3DFFFA386DF5000D0E552BC
:10431000E552E7CFD9FF1200A3960301806BA38675
:104320001200D9CFE6FFE1CFD9FF050EE126C45038
:10433000DE6EDD6AD9CFE9FFDACFEAFFEE50ED6E2F
:10434000EF6AC350DE26000EDD22DECF20F0DDCF87
:1043500021F0226A236A03013F51040DF3CFE9FFE4
:10436000F4CFEAFF310EE926030EEA222050EE26B2
:104370002150EE222250EE222350EE223F2B2F51CD
:104380003F5D04E33F6B3D2B000E3E23020E3FC317
:10439000DBFFDB50040D020EF3CFDBFFDB80DB50D5
:1043A000C26EC2822D513D5D2E513E5968E3030E0F
:1043B000DB6A040EDB6A030EDBCF20F0040EDBCFDA
:1043C00021F003012F51000121AE02D0D89003D07B
:1043D000205C000E21584EE2030EDBCFE9FF040EF5
:1043E000DBCFEAFFD890E936EA36D890E936EA36EC
:1043F000310EE926030EEA22030130511F0BEECFE6
:1044000020F0EECF21F0EECF22F0EECF23F007E048
:10441000D8902332223221322032E806F9E1030E0D
:10442000DBCFE9FF040EDBCFEAFFD890E936EA36AE
:10443000390EE926030EEA2220C0EEFF21C0EDFF6F
:10444000030EDBCFE9FF040EDBCFEAFFD890E9369D
:10445000EA36D890E936EA36310EE926030EEA222A
:10446000EE6AEE6AEE6AEE6A030EDB2A040E01E3E0
:10447000DB2AA1D70301802B03013D6B3E6B050EA8
:10448000E15C02E2E16AE552E16EE552E7CFD9FF75
:02449000120018
:0E449200D9CFE6FFE1CFD9FFFE0EDB50080ABE
:1044A00020E00F0A1CE0010A18E0030A14E0010AE8
:1044B00010E0070A0AE0010A06E0030A02E0150E0E
:1044C00009D0810E01D0400E01D02A0EAF6EAC94FF
:1044D0000CD0810E01D0400E01D02A0E01D0150E55
:1044E00001D00A0EAF6EAC8400D09D9A9D98AC9816
:1044F000AC9E948EAB9CAB96AB8AAB889F9A9D8A00
:1045000003017C697D69949CAC9CAC969F989D88C6
:10451000AC8AAB8EE552E7CFD9FF1200D9CFE6FFC8
:10452000E1CFD9FFFE0EDB50080A20E00F0A1CE0A5
:10453000010A18E0030A14E0010A10E0070A0AE081
:10454000010A06E0030A02E0400E01D0810E01D00C
:10455000400E01D02A0E6F6E6C940CD0810E01D0EB
:10456000400E01D02A0E01D0150E01D00A0E6F6E3A
:104570006C8400D0A39AA3986C986C9E98846B9CD2
:104580006B966B8A6B88A59AA38A03017C697D6907
:1045900098926C9C6C96A598A3886C8A6B8EE55259
:1045A000E7CFD9FF1200D9CFE6FFE1CFD9FFE6521E
:1045B0009D9ADCC2DFFF9D8ADF5000D0E552E552B4
:1045C000E7CFD9FF1200D9CFE6FFE1CFD9FFE652FE
:1045D000A39AE8C2DFFFA38ADF5000D0E552E5527C
:1045E000E7CFD9FF1200D9CFE6FFE1CFD9FFE652DE
:1045F0000201D95103E0000E17D016D0DA51EA6A51
:10460000000FE96E020EEA22EFCFDFFFDC07DA2BA4
:104610001F0EDA179D9ADB51DA5D02E1010ED96FA8
:104620009D8AD86BDF5000D0E552E552E7CFD9FF25
:104630001200D9CFE6FFE1CFD9FFE6520201E551E2
:1046400003E0000E17D016D0E651EA6A400FE96E7B
:10465000020EEA22EFCFDFFFE807E62B1F0EE61778
:10466000A39AE751E65D02E1010EE56FA38AE46BD0
:10467000DF5000D0E552E552E7CFD9FF1200D9CF85
:10468000E6FFE1CFD9FF0201DF5101E0FCD7E251A3
:10469000EA6A200FE96E020EEA22FE0EDBCFEFFF80
:1046A000E32BE22B1F0EE2179D98E251E15D02E140
:1046B000010EDF6F9D88E06BE552E7CFD9FF120056
:1046C000D9CFE6FFE1CFD9FF0201EB5101E0FCD7E2
:1046D000EE51EA6A600FE96E020EEA22FE0EDBCFAF
:1046E000EFFFEF2BEE2B1F0EEE17A398EE51ED5DB3
:1046F00002E1010EEB6FA388EC6BE552E7CFD9FF27
:1047000012000201D85102E09D9A19D0DB51EA6AE9
:10471000000FE96E020EEA22AECFEFFFABA203D08C
:10472000AB98AB88DD2BABB4DE2BDC2BDB2B1F0E69
:10473000DB17DB51DA5D02E1010ED86FD96B120095
:104740000201E45102E0A39A19D0E751EA6A400F4E
:10475000E96E020EEA226ECFEFFF6BA203D06B98D8
:104760006B88E92B6BB4EA2BE82BE72B1F0EE717BE
:10477000E751E65D02E1010EE46FE56B1200020114
:10478000E05102E09D9812D0E151EA6A200FE96EF3
:10479000020EEA22EF50AD6EE307E12B1F0EE11788
:1047A000E251E15D02E1010EE06FDF6B12000201F8
:1047B000EC5102E0A39812D0ED51EA6A600FE96E65
:1047C000020EEA22EF506D6EEF07ED2B1F0EED1774
:1047D000EE51ED5D02E1010EEC6FEB6B1200D9CFF3
:1047E000E6FFE1CFD9FF0201D75101E10FD0D70594
:1047F00005E1FE0EDBCFE6FF42DF07D0020ED75DFC
:1048000005E1FE0EDBCFE6FF5BDFE552E552E7CFC9
:04481000D9FF1200BA
:0C48140081CF74F3B7EC0EF00201010E2E
:10482000D76F070EE66E49EC22F0E552020EE66EF7
:104830008EEC22F0E55229EC27F090EC29F08C0E5A
:10484000E66E010EE66E68EC0FF0E552E5522AECDA
:104850000FF00101CC910101ADAF23D00301010E96
:10486000776F766F0101CCA119D0AC0EE66E010E08
:10487000E66E2FEC0FF0E552E5520301750504E1F9
:10488000DBEC27F00301756BDCEC27F08C0EE66E99
:10489000010EE66E68EC0FF0E552E55277EC28F079
:1048A00063D0ADAD31D00101CCA12BD0AC0EE66E02
:1048B000010EE66E2FEC0FF0E552E552030176058E
:1048C00008E16DEC29F025EC25F00301766B010E73
:1048D000776F26EC25F09FC1E6FF9EC1E6FF9DC1E4
:1048E000E6FF9CC1E6FF35EC27F0E552E552E552C4
:1048F000E5528C0EE66E010EE66E68EC0FF0E552A6
:10490000E55238EC26F030D00101CCA12BD0AC0E12
:10491000E66E010EE66E2FEC0FF0E552E552030154
:10492000770508E16DEC29F0CFEC29F00301776BF6
:10493000010E766FD0EC29F09FC1E6FF9EC1E6FF25
:104940009DC1E6FF9CC1E6FF35EC27F0E552E5523C
:10495000E552E5528C0EE66E010EE66E68EC0FF045
:10496000E552E552FCEC29F076D71200D8CFE4FFEF
:10497000E0CFE4FFE46EDACFE4FFE2CFDAFFE9CF85
:10498000E4FFEACFE4FFF3CFE4FFF4CFE4FF00EE6F
:1049900000F0140EE80403E3EECFE4FFFBD7E65289
:1049A000D9CFE6FFE1CFD9FF020EE1269E50200BC2
:1049B00006E09D50200B03E081EC23F024D0A450AE
:1049C000200B06E0A350200B03E0A0EC23F01BD04B
:1049D000A450080B07E0A350080B04E0A49691EC48
:1049E00021F011D09E50100B06E09D50100B03E0FB
:1049F000BFEC23F008D0A450100B05E0A350100B1F
:104A000002E0D7EC23F0020EE15C02E2E16AE5523B
:104A1000E16EE552E7CFD9FFE55200EE13F0140E38
:104A2000E80403E3E5CFEDFFFBD7E5CFF4FFE5CFE7
:104A3000F3FFE5CFEAFFE5CFE9FFE5CFDAFFE55089
:0A4A4000E5CFE0FFE5CFD8FF10003E
:064A4A001200D9CFE6FFC7
:104A5000E1CFD9FF020EE126BBEC0CF002EC2AF00C
:104A60000101F76FF86B0201FA6BFB6B1AEC1DF09A
:104A700006C014F007C015F014C0E6FF15C0E6FF2D
:104A8000050EE66E510EE66E000EE66E57EC2AF04D
:104A9000166E050EE15E16500101F751F81103E1A3
:104AA0000201FC6BFD6B0101010EF71901E1F851E8
:104AB00016E10201FC51FD110EE00101F76BF86BEC
:104AC000FA0EE66E500EE66E000EE66E57EC2AF019
:104AD000E552E552E5520201FC2B000EFD230101D7
:104AE000020EF71901E1F8510BE10201FC51FD1131
:104AF00003E00101F76BF86B0201FC2B000EFD23B4
:104B0000040E0101F71901E1F85150E0030EF71905
:104B100001E1F8511DE0020EF71901E1F85110E032
:104B2000010EF71901E1F85101E010D03A0E02012F
:104B3000F227000EF3230101FA0ECD6FCE695FD08C
:104B40000201F26BF36B3CEC1CF00101CD6B55D014
:104B50000201F33504E2F2510008000EF35504E2BD
:104B60003A0EF26FF36B06D0800EF31503E0C60E1B
:104B7000F26FF369F33504E2F2517408000EF35555
:104B800001E208D0D880F35104E78C0EF25DFF0EED
:104B9000F35903E20101790E02D00101920ECD6FAB
:104BA000CE69010E0201F46FF56B29D00201F335D5
:104BB00004E2F2510008000EF35504E23A0EF26FDF
:104BC000F36B06D0800EF31503E0C60EF26FF369A7
:104BD000F33504E2F2517408000EF35501E208D0F7
:104BE000D880F35104E78C0EF25DFF0EF35902E218
:104BF000870E01D06E0E0101CD6FCE6B00D0020189
:104C0000F33504E2F2517408000EF35504E2740E19
:104C1000F26FF36B0BD0D880F35104E78C0EF25D8A
:104C2000FF0EF35903E28C0EF26FF369CDC1E6FF7C
:104C3000CEC1E6FFF2C2E6FFF3C2E6FF72EC0BF074
:104C4000E552E552E552E5520201F82B000EF92338
:104C50006AEC0EF0EDEC19F0AAEC14F0020EE15C37
:104C600002E2E16AE552E16EE552E7CFD9FF1200B8
:0C4C7000010EE66E01EC1EF0E552120091
:044C7C009384F09E8F
:104C8000F188F092F08812009386F192F186F09408
:104C9000F08A12009388938A938C938EF190F2900D
:104CA000F2861200D9CFE6FFE1CFD9FF040EE1264C
:104CB000F09840C3DFFF010E41C3DBFF020E42C389
:104CC000DBFF030E43C3DBFFF088DECF06F0DECF51
:104CD00007F0DECF08F0DDCF09F0DD52DD52040E23
:104CE000E15C03E200D0E16AE552E16EE552E7CF14
:104CF000D9FF1200F0980301406B416B426B436B8C
:104D0000F088120088B207D003014007000E415B13
:104D1000425B435B06D00301402B000E412342233C
:104D200043231200D9CFE6FFE1CFD9FF040EE126DD
:104D3000F09A44C3DFFF010E45C3DBFF020E46C3FA
:104D4000DBFF030E47C3DBFFF08ADECF06F0DECFCA
:104D500007F0DECF08F0DDCF09F0DD52DD52040EA2
:104D6000E15C03E200D0E16AE552E16EE552E7CF93
:104D7000D9FF1200F09A0301446B456B466B476BF9
:104D8000F08A120088B407D003014407000E455B87
:104D9000465B475B06D00301442B000E45234623A8
:104DA00047231200D9CFE6FFE1CFD9FF040EE12659
:104DB000F29648C3DFFF010E49C3DBFF020E4AC370
:104DC000DBFF030E4BC3DBFFF286DECF06F0DECF48
:104DD00007F0DECF08F0DDCF09F0DD52DD52040E22
:104DE000E15C03E200D0E16AE552E16EE552E7CF13
:104DF000D9FF1200F2960301486B496B4A6B4B6B6B
:104E0000F2861200D9CFE6FFE1CFD9FFFE0EDB0418
:104E100016E188B60AD00001FF0506E10301480744
:104E2000000E495B4A5B4B5B09D00001FF5106E174
:104E30000301482B000E49234A234B2306D08850F8
:104E4000080B01E0010E0001FF6FE552E7CFD9FF2B
:024E500012004E
:0E4E5200B18EB186B19CB19AB198B192A09286
:104E6000A090A390A392A3941200D9CFE6FFE1CF24
:104E7000D9FF080EE126B190B36AB26ABA6AB76A7E
:104E8000736A706AFE0EDB50320DF3CF14F0F4CF6C
:104E900015F0980E14263A0E1522CE0E145E180E3A
:104EA000155A14C0DEFF15C0DDFFFD0EDB50320DBC
:104EB000F3CF14F0F4CF15F0980E14263A0E152205
:104EC000CE0E145E180E155A020E14C0DBFF030E30
:104ED00015C0DBFFFC0EDB50320DF3CF14F0F4CF26
:104EE00015F0980E14263A0E1522CE0E145E180EEA
:104EF000155A040E14C0DBFF050E15C0DBFFFB0EB8
:104F0000DB50320DF3CF14F0F4CF15F0980E1426C9
:104F10003A0E1522CE0E145E180E155A060E14C047
:104F2000DBFF070E15C0DBFFDF50BB6EDECF14F0DA
:104F3000DDCF15F015C014F0156A1450BC6E020ECA
:104F4000DB50B86E020EDBCF14F0030EDBCF15F092
:104F500015C014F0156A1450B96E040EDB50746E4F
:104F6000040EDBCF14F0050EDBCF15F015C014F0E6
:104F7000156A1450756E060EDB50716E060EDBCF8F
:104F800014F0070EDBCF15F015C014F0156A14509D
:104F9000726EF29E090EBA6EB76E736E706EB1804D
:104FA000F28E080EE15C02E2E16AE552E16EE55242
:064FB000E7CFD9FF12005B
:0A4FB6001200D9CFE6FFE1CFD9FFCA
:104FC0000C0EE1260301782B000E79237A2B7B232C
:104FD0000A0E7A1901E17B510BE1420EE66E510E89
:104FE000E66E000EE66E57EC2AF0E552E552E55209
:104FF0000301260E7A1901E17B5102E199EC1DF0C3
:105000000301820E7A1901E17B511EE1A7EC1DF02C
:10501000FBEC1DF0E7EC1DF0060EF3CFDBFF070EF7
:10502000F4CFDBFF060EDBCFE6FF070EDBCFE6FF9C
:10503000330EE66E510EE66E000EE66E57EC2AF069
:10504000146E050EE15E14500301230E781901E180
:1050500079513BE1BF0E7A5D000E7B5936E392EC4D
:105060001CF0F3CFDEFFF4CFDDFF1AEC1DF0020ED3
:1050700006C0DBFF030E07C0DBFF040E08C0DBFF2A
:10508000050E09C0DBFFDECFE6FFDDCFE6FF240E15
:10509000E66E510EE66E000EE66E57EC2AF0146EC8
:1050A000050EE15E1450020EDBCFE6FF030EDBCFF0
:1050B000E6FF120EE66E510EE66E000EE66E57EC3F
:1050C0002AF0146E050EE15E14500301260E785D81
:1050D000000E795902E3786B796B0C0EE15C02E209
:1050E000E16AE552E16EE552E7CFD9FF1200010E09
:0A50F000E66E01EC1EF0E55212001E
:0650FA006C61746368693B
:105100006E670D0A00616E676C653A202564200D9C
:105110000A004779726F20416E676C653D25640D0A
:105120000A0D0A004779726F20526174653D25644B
:105130000D0A004779726F20426961733D25640D45
:105140000A000D0A43616C63756C6174696E6720B7
:105150004779726F20426961732E2E2E0D0A00313D
:105160003A202564207C20323A202564200D0A0054
:105170002A2A2A2057652064656661756C74656407
:105180002E20536F6D657468696E67206973207295
:1051900065616C6C792077726F6E672E2043616C4D
:1051A0006C20746865206669726520627269676147
:1051B00064652E0D0A004779726F20416E676C6539
:1051C0003D25640D0A0D0A00204779726F20526157
:1051D00074653D25640D0A00204779726F2042698D
:1051E00061733D25640D0A00446F6E650D000D432B
:1051F000616C63756C6174696E67204779726F20AA
:10520000426961732E2E2E004946492055736572FE
:105210002050726F636573736F7220496E69746991
:10522000616C697A6564202E2E2E0D0A0042656637
:0B5230006F726520414443210D0A000D
:01523B000072
:04523C001E0EF66EDE
:10524000080EF76E000EF86E03010900F5505C6F52
:105250000900F5505D6F03E15C6701D03DD00900A6
:10526000F550576F0900F550586F0900F550596F08
:1052700009000900F550E96E0900F550EA6E0900D1
:1052800009000900F5505A6F0900F5505B6F0900DD
:105290000900F6CF5EF3F7CF5FF3F8CF60F357C3A3
:1052A000F6FF58C3F7FF59C3F8FF03015A5302E151
:1052B0005B5307E00900F550EE6E5A07F8E25B0712
:1052C000F9D75EC3F6FF5FC3F7FF60C3F8FF0301C2
:1052D0005C07000E5D5BBFD7120001017F0E906F6F
:1052E000916F926F936F946F956F966F976F986FA2
:1052F000996F9A6F9B6F9C6F9D6F9E6F9F6F8D9044
:105300008C908D928C928D948C948D968C968D9899
:105310008C988D9A8C9A8D9C8C9C91908C9E12006E
:10532000938493869388938A938C938E99809982A1
:10533000998499869A829A849A8694809A889A8A7D
:105340009A8C9A8E8A948A968A988A9A8A9C8A9E3D
:1053500090909092909490969192919491968B9037
:105360009198919A919C919E2D0EE66E520EE66E4A
:10537000000EE66E57EC2AF0E552E552E55283EC5A
:1053800020F074EC1CF0080EE66E520EE66E000E75
:10539000E66E57EC2AF0E552E552E5521200120093
:1053A0000201FE2B000EFF23A3EC14F0C8EC0AF060
:1053B0000101B451146E156A153404E214509608B4
:1053C000000E155403E2010EE66E01D0E66A44ECCD
:1053D0001CF0E5520101AFA302D0BBEC0CF00101BF
:1053E000AFA102D0B8EC0CF0EDEC19F06AEC0EF0C5
:1053F000AAEC14F038EF16F0010EE66E01EC1EF088
:04540000E55212005F
:0C54040087A404D00301010E656F616BEA
:105410000301655108E08750040B05E1612B6151E0
:10542000050801E2656B88A203D0010E666F626B0E
:10543000665108E08850020B05E1622B62510508B5
:1054400001E2666B88A403D0010E676F636B67513E
:1054500008E08850040B05E1632B6351050801E265
:10546000676B87A603D0010E686F646B685108E014
:105470008750080B05E1642B6451050801E2686B55
:10548000655103E0010E12D011D0665103E0020E07
:105490000DD00CD0675103E0030E08D007D068513F
:0E54A00003E0040E03D002D0000E00D0120074
:0254AE00D9CF54
:1054B000E6FFDACFE6FFE1CFD9FFE2CFDAFFE6522F
:1054C000E652E652E652D950FB0F146EFF0EDA2078
:1054D000156E14C0DEFFDD6EDECFE6FFDDCFE6FF2A
:1054E000FB0EDBCFE6FFFC0EDBCFE6FFFD0EDBCFD6
:1054F000E6FF7CC3E6FF7DC3E6FF6EEC04F0146EAE
:10550000070EE15C02E2E16AE552E16E1450020E20
:10551000F3CFDBFF030EF4CFDBFF020EDBCF14F083
:10552000030EDBCF15F014C0F3FF15C0F4FF040E1B
:10553000E15C02E2E16AE552E16EE552E5CFDAFFB5
:06554000E7CFD9FF1200C5
:0A554600D9CFE6FFDACFE6FFE1CF90
:10555000D9FFE2CFDAFFFB0EDBCF14F0FC0EDBCF7E
:1055600015F00001800E15141AE1FB0EDBCFE9FFE8
:10557000FC0EDBCFEAFFEECFF3FFEDCFF4FFEE2A18
:10558000000EEF22F3CFE9FFF4CFEAFFFD0EDBCFF1
:10559000EFFFEF50156AF36E15C0F4FF10D0FB0E4D
:1055A000DB50FE0806E1FD0EDBCFE6FFCBEC2BF077
:1055B00005D0FD0EDBCFE6FFEFEC23F0E552E55220
:0A55C000E5CFDAFFE7CFD9FF1200B4
:0655CA0006500B02F3CFB6
:1055D00002F0F4CF03F00C02F3500326000EF42087
:1055E000046E06500D02F3500426000EF420056EE2
:1055F00006500E02F350052607500B02F350032607
:10560000F4500422000E052207500C02F350042629
:10561000F450052207500D02F350052608500B02E6
:10562000F3500426F450052208500C02F3500526CE
:0A56300009500B02F350052612008A
:06563A00FE0EE3CFE9FFC4
:10564000FF0EE3CFEAFFF36AF46AEE5203E0F34A97
:10565000F42AFBD71200FF0EE3CFF8FFE552FF0E4E
:10566000E3CFF7FFE552FF0EE3CFF6FFE552E66A20
:10567000E66AE66A0900F55209E0FD0EE32A05E153
:10568000FE0EE32A02E1FF0EE32AF4D7FD0EE3CF7C
:1056900007F0FE0EE3CF08F0FF0EE3CF09F0120093
:1056A000056A046A036A026A200EE76ED89006361D
:1056B00007360836093602360336043605360B50EF
:1056C000025C0C5003580D5004580E50055809E365
:1056D0000B50025E0C50035A0D50045A0E50055ADE
:0856E000062AE72EE4D71200B0
:0856E800436F70797269676875
:1056F0007420A93230303720522E204B6576696EE7
:1057000020576174736F6E2E20416C6C2072696734
:105710006874732061726520726573657276656462
:025720002E0059
:0E572200056A046A100EE76ED8900836093644
:10573000043605360D50045C0E50055805E30D5037
:0E574000045E0E50055A082AE72EF0D712001C
:02574E001EEE4D
:1057500000F02EEE00F0F86A019C00EE00F00F0E53
:10576000EE6AEA62FDD71EEC29F00AEC24F0FDD7C0
:02577000120025
:0E577200F36AF46AFF0EE124E96EFF0EE220F6
:10578000EA6EED6607D02F0EEF6404D03A0EEF609C
:0657900001D0F32A120013
:0A579600FF0EE350ACBA04D0AF6A76
:1057A000AB8EAC8A949CACA2FED7AD6EF36EF46A5D
:0257B0001200E5
:0E57B200303132333435363738396162636452
:0357C0006566001B
:0D57C30000000100000000000001000000D7
:0C57D000000100000000000001000000CB
:0457DC0000000000C9
:1057E0000900000000006009E8030000000000005C
:0257F0000000B7
:0857F2000000000000000000AF
:0457FA00FF010101A9
:0257FE000000A9
:0A580000000000000000000000009E
:05580A00000100000098
:01580F000098
:0358100000000095
:0D5813000000000000007F00010000000008
:015820000087
:020000040030CA
:0100010006F8
:010002001EDF
:010003001EDE
:01000400F308
:010005008377
:010006008178
:01000800FFF8
:010009008076
:01000A00FFF6
:01000B008074
:01000C00FFF4
:01000D0000F2
:00000001FF
