:020000040000FA
:06080000D9EF2CF01200FC
:02080600FEFFF3
:06080800B6EF11F0120032
:02080E000100E7
:050810000000000000E3
:020815000000E1
:0108170000E0
:06081800A2EF26F0120021
:02081E000C00CC
:10082000170800008703000001000000775A00004D
:100830004103000013000000735A00007D03000014
:10084000040000006E5A000078030000050000005C
:10085000625A0000F00200000C00000015080000C1
:1008600085030000020000005E5A0000FC02000048
:1008700004000000565A0000690300000800000050
:10088000405A000016030000160000000E08000089
:100890007103000007000000275A0000D702000083
:1008A0001900000006080000830300000200000099
:1008B00094EC09F0FB0EDBCFF3FFDB06F3500009ED
:1008C0000AE0E2EC09F0FA0E4DEC0AF0F3E1151C37
:1008D000F1E1010E01D0000EC3EF09F094EC09F034
:1008E0003B0EE12402E3E168E652E16E010EDB6AB1
:1008F000020EDB6AF90EDBCFF6FFFA0EDBCFF7FF55
:10090000FB0EDBCFF8FF0800F550DF6EDF5002E191
:10091000E7EF08F0250EDF5C02E0DAEF08F0030EE7
:10092000DB6A040EDB6A050EDB6A060EDB6A070E65
:10093000DB6AFCEC08F02D0EDF5C0CE02B0EDF5CBC
:1009400009E0200EDF5C06E0230EDF5C03E0300EE2
:10095000DF5C1AE1DF50300A14E0130A0FE0030AEB
:100960000AE00B0A05E0060AE4E1030EDB80E1D7AA
:10097000030EDB82DED7030EDB84DBD7030EDB86C0
:10098000D8D7030EDB88D5D72A0EDF5C1BE1F8EC45
:1009900008F046EC09F010E0030EDB8008680968F7
:1009A000130EDBCF0DF0140EDBCF0EF0D6EC1FF0E4
:1009B000040E06C0DBFF03D0130E2FEC09F0FCEC95
:1009C00008F00BD0090EDB6A9DEC09F003E011EC96
:1009D0000AF0FAD7090E2FEC09F0030EDBB0DB9812
:1009E0002E0EDF5C1BE1FCEC08F02A0EDF5C0BE155
:1009F000F8EC08F046EC09F003E1130E81EC09F085
:100A0000FCEC08F00BD0090EDB6A9DEC09F003E06A
:100A100011EC0AF0FAD7090E81EC09F0680EDF5CE0
:100A200007E1FCEC08F0680EDF5C1DE1030E18D056
:100A3000740EDF5C17E07A0EDF5C14E0480EDF5CBA
:100A400006E0540EDF5C03E05A0EDF5C02E1020EAA
:100A500007D06C0EDF5C03E06A0EDF5C04E1010E80
:100A6000D4EC09F0C9DBDF506E0A01E17FD31E0A26
:100A700001E192D1200A01E18FD13F0A01E149D180
:100A80001A0A01E146D10D0A01E143D1200A01E130
:100A900040D13A0A01E13DD1200A01E13AD1260ACA
:100AA00001E135D10D0A01E132D11A0A01E1D9D0B3
:100AB000200A4AE0300A1FE0460A0EE0250A01E05B
:100AC00083D3D950F90FE96EFF0EDA20EA6E010EDA
:100AD000EE5E000EEE5AEE5AE2EC09F0250EE66EDE
:100AE00095DB03E1151C01E169D3DEEC09F001E2BD
:100AF0006BD3DB2A69D3080EDB6A040EDB500108D6
:100B000006E2040EDB04A6EC09F0DB508BDB080EDA
:100B1000DB5009E0030EDB50010B05E172DB01E065
:100B20004DD3080EDB6A64DBEFCFDFFF56EC0AF033
:100B300003E1151C01E142D3DEEC09F001E3DB2AFD
:100B400060DB01E141D33AD3070EDB5002080FE12D
:100B500022EC0AF0030EE9EC09F00E0EEECFDBFFFB
:100B60000F0EEECFDBFF100EEECFDBFF20D0F70E27
:100B7000DBCF17F0F80EDBCF18F0020E175E000E79
:100B8000185AF70E17C0DBFFF80E18C0DBFF17C0AE
:100B9000E9FF18C0EAFFD9EC09F0166A0E0E14C07E
:100BA000DBFF0F0E15C0DBFF100E16C0DBFF0E0EB5
:100BB000DBCFE6FF0F0EDBCFE6FF100EDBCFE6FF4D
:100BC0005DEC2CF0E552E552E552130E07C0DBFF59
:100BD000140E08C0DBFF060EDB5005E0130E1DEC03
:100BE0000AF001E26ADB41EC0AF002E2130E37DBA5
:100BF00004EC0AF006E0040E1DEC0AF002E2050E19
:100C00002EDB030EDBB005D0FCDA01E0D7D2080EF4
:100C1000DB6A090EDB6A0E0EDBCFF6FF0F0EDBCFB1
:100C2000F7FF100EDBCFF8FF0800F550DF6EDF5046
:100C300014E047EC0AF011E256EC0AF003E1151C4F
:100C400001E1BCD2BBDB01E3DB2A090EDB2AD95070
:100C50000E0FE96E000ECBDBE7D7D3DA01E1B4D299
:100C6000ADD2C6DA110EEECFDBFF120EEDCFDBFFF9
:100C7000110EDBCFE6FF120EDBCFE6FF4FEC2CF0C0
:100C8000E552E552130EF3CFDBFF140EF4CFDBFF7A
:100C9000060EDB5004E0130ED0DB01E20EDB41EC6C
:100CA0000AF002E2130EDBDAAFDB05E0040EC5DB6F
:100CB00002E2050ED4DA030EDBB005D0A2DA01E0C1
:100CC0007DD2080EDB6A090EDB6A110EDBCFE9FF6D
:100CD000120EDBCFEAFFEFCFDFFFDF5014E0D7DBF0
:100CE00012E2E4DB03E1151C01E168D267DB01E3FA
:100CF000DB2A090EDB2A110EDB2ADBCFE9FF120EFD
:100D0000E8E3DB2AE6D77DDA01E15ED257D2030EB3
:100D1000DB8E070EDB0410E195DB040E5ADB0A0EB6
:100D2000EECFDBFF0B0EEECFDBFF0C0EEECFDBFFCB
:100D30000D0EEECFDBFF6CD0070EDB5003082CE16D
:100D4000030EDBAE0DD0B2DA020E76DAEFCF14F07E
:100D5000156A166A176A14AE39D01568166835D048
:100D6000F70EDBCF15F0F80EDBCF16F0020E155E96
:100D7000000E165AF70E15C0DBFFF80E16C0DBFF8B
:100D800015C0E9FF16C0EAFFEFCF14F00A0E14C039
:100D9000DBFF0B0EDB6A38D0070EDB50020809E1DF
:100DA000030EDBAE04D059DB16AE10D00ED055DBEF
:100DB0000DD0030EDBAE12D079DA020E3DDAF9DA8D
:100DC000166A176A15AE02D016681768E2DA0C0EBA
:100DD00016C0DBFF0D0E17C0DBFF1AD0F70EDBCFFE
:100DE00016F0F80EDBCF17F0020E165E000E175A43
:100DF000F70E16C0DBFFF80E17C0DBFF16C0E9FFC9
:100E000017C0EAFFD6DAC5DA0C0EDB6A0D0EDB6A14
:100E1000060EDB5005E1010EF36E050EF3CFDBFF8E
:100E2000150EDB6A160EDB6AD950370F146E000EF2
:100E3000DA20156E390E14C0DBFF3A0E15C0DBFF49
:100E4000380EDB6A080EDB6A0A0EAEDADF50780A6B
:100E500012E0200A10E0280A0CE0200A0AE03F0A0B
:100E600006E00D0A02E0200A08E1020E05D0080E95
:100E700003D0080EDF26100E97DA030EDBBE02D079
:100E8000DB92DB94DB50800B24E08ADAD890030EEF
:100E9000EB50000A08E6000EEE5C000EEE58000E65
:100EA000EE58000EEE5815E213DA0B680C680D6868
:100EB0000E6817EC2CF00A0E02C0DBFF0B0E03C00D
:100EC000DBFF0C0E04C0DBFF0D0E05C0DBFF2D0E9B
:100ED00008D0030EDBA202D02B0E03D0DBA408D077
:100EE000200EF36E170EF3CFDBFF150EDB2A02D0B8
:100EF000170EDB6A050EDB5003E1B7D901E189D09B
:100F0000160E146E5A0E156E000E166E070EDBCFFF
:100F100017F0186A196A1A6A17C00BF018C00CF09B
:100F200019C00DF01AC00EF0D3D982EC2CF0145079
:100F30000224F36E15500320F46E16500420F86E50
:100F4000F4CFF7FFF3CFF6FF0800090EF5CFDBFF74
:100F5000580EDF5C0FE1610EF36E090E7BD90AE3D8
:100F6000200E146E090EDBCFE7FF1450E75E090E6A
:100F7000E7CFDBFF070EDBCF14F0156A166A176A9E
:100F80000FDA14C00BF015C00CF016C00DF017C02E
:100F90000EF0EECF06F0EECF07F0EECF08F0EFCF79
:100FA00009F082EC2CF009C0EDFF08C0EDFF07C08E
:100FB000EDFF06C0EFFF390EDBCFE9FFDB063A0E8F
:100FC000DBCFEAFF01E2DB06090EDBCFEFFF150EF8
:100FD000DB2A4BD995E1030EDBA61DD06F0EDF5C3B
:100FE00006E1C1D918E3150EDB285BDA14D0780EC0
:100FF000DF5C09E0580EDF5C06E0620EDF5C03E0B8
:10100000420EDF5C08E1020EF36E160EF3CFDBFF3B
:1010100002D0150EDB6A030EDB50100B0EE0040E3F
:10102000DBCF14F0050EDB50D880145406E2060E18
:10103000DB5003E1040EDB5034DA95D90AE2050EE9
:10104000DBCFE7FF150EDB50E75E050EE7CFDBFFDA
:1010500002D0050EDB6A040EDBCF14F0160E45D964
:10106000D880145414E2160EDBCFE6FF150EDBCF4A
:10107000E6FF040EDBCFE6FF050EDB50E552E75C32
:10108000E552D880E754E552D880E7545FD9030E83
:10109000DB50010B0BE1080EDB5008E0B2D801E099
:1010A0008DD0080EDB50BED8080EDB6A170EDB5061
:1010B00007E088D9170EF1D903E1151C01E17ED0B4
:1010C000160EDB5016E07ED9300EE66E9FD802E198
:1010D000151C74E077D9DFCFE6FFD5EC2BF0E55295
:1010E000E552E552F4CF15F00001F31C02E1151CA6
:1010F00065E0050EDBCF14F0160EDB50D8801454DB
:1011000009E2050EDBCFE7FF160EDB50E75E050EAA
:10111000E7CFDBFF300EE66E050ECBD94FE1390E7F
:10112000DB2ADBCFE9FF3A0E01E3DB2ADBCFEAFF64
:10113000090EEFCFDBFFDB500EE044D9090EADD92D
:1011400002E1151C3BE0390EDB2ADBCFE9FF3A0E4A
:10115000EDE3DB2AEBD755D831E1160EDBCFE6FF06
:10116000080EC3D8E552E7245DD82ED0070EDB5019
:10117000030A1CE0010A14E0030A07E07BD9DBCF75
:10118000EEFF020EDBCFEDFF1FD0F5D8196A17AEC8
:1011900002D0186819682CD8BCD819C0EEFF14D03A
:1011A000EAD817BE186824D8B4D80ED063D9DBCFDC
:1011B000EFFF0AD07BD905E1151C03E1F368F46861
:1011C00010D0FCD801E3DB2A79D983EF04F0010EBB
:1011D000DBCF14F0020EDBCF15F014C0F3FF15C007
:1011E000F4FF3B0EE15C02E2E16AE552E16ECBD036
:1011F00029D9020EE9EF09F061D90800F550DF6E38
:101200001200200EE66E080E59EF0AF0D5EC2BF016
:10121000E552E552E552F3CF14F0F4CF15F000019A
:10122000F31C1200146E156AD950010F4DD91450D9
:10123000EE261550ED221200185E000E195AF70E18
:1012400018C0DBFFF80E19C0DBFF18C0E9FF19C09A
:10125000EAFF1200DBCFF4FFF350F45C1200DB5026
:10126000E76E040EE7CFDBFF12000A0EDBCF14F0AF
:101270000B0EDBCF15F00C0EDBCF16F00D0EDBCF17
:1012800017F014501510161017101200130EEECF91
:10129000DBFF140EEDCFDBFF130EDBCF14F0140ECB
:1012A000DBCF15F00001800E15141200F70EDBCF16
:1012B00018F0F80EDBCF19F01200050EDB50E66EC9
:1012C000D950130F01D9E552E750EE6EED6A1200C6
:1012D0000A0EDBCF06F00B0EDBCF07F00C0EDBCFD8
:1012E00008F00D0EDBCF09F01200DBCFE6FF150E84
:1012F000DBCFE6FF050EDB50E552E724E552E7249D
:101300001200DB50CED8010EF36E060EF3CFDBFFDA
:101310001200EE50EFCFEAFFE96E16C0EEFF17C0E5
:10132000EEFF18C0EEFF1200D9CFE6FFDACFE6FFDE
:10133000E1CFD9FFE2CFDAFF1200DFCFE6FFE66AA6
:10134000EBEC2CF0E552E552F3501200E76E080E7C
:10135000E7CFDBFF1200EECF14F0EECF15F0EFCFAA
:1013600016F0176A1200050EDBCF14F0150EDB50D5
:10137000D88014541200010EDBCF16F0020EDBCF22
:1013800017F0186A1200E552E5CFDAFFE7CFD9FF70
:1013900012000A0E14C0DBFF0B0E15C0DBFF12009B
:1013A000D9500A0F64EF0AF0F36E070EF3CFDBFF9C
:1013B0001200EECF14F0EFCF15F01200010EDB2A71
:1013C000020E1200FC0EDBCFE6FFFD0EDBCFE6FFC8
:1013D0001200145E000E155AF70E14C0DBFFF80E53
:1013E00015C0DBFF14C0E9FF15C0EAFF1200DA20C8
:1013F000EA6EEF2AEECFF6FF000EEF22EECFF7FFF8
:10140000EF22EECFF8FF1200040EDBCFE6FF130E43
:10141000DB50E552E75C9ADFDB5004DF060EDB5061
:101420001200090EDB500A0DF350DF24D00FE76ED7
:10143000090EE7CFDBFFFCEF08F0DB50F36E050E83
:101440002AEF09F0F70EDBCF14F0F80EDBCF15F022
:101450001200DFCFE6FF06EF09F028DF030EECDE17
:10146000ABEF09F058EC04F0E552E552E552E552D5
:1014700000091200BDDEEE50EFCFEAFFE96E010E6B
:101480001200130EDB50F36E040E2AEF09F0040E67
:10149000DB50F36E090E2AEF09F0DBCFE6FF06EF13
:1014A00009F0E76E050EE7CFDBFF12008BDF29EFB7
:1014B0000AF0DBCFE6FF86DF32EF0AF0D950F90FF2
:1014C000E96EFF0EF7EF09F0E96E000EDA20EA6E22
:0214D000120008
:0E14D200020184511DE1010E846F0A0EA46F09
:1014E000A56BA66BA76BA86BA96B9C0EAA6FAB69CB
:1014F000640EAC6FAD6B0A0EAE6FAF6BB06BB16BC1
:10150000B26BB36B9C0EB46FB569640EB66FB76BFC
:1015100000D0ACC2E6FFADC2E6FFA8C2E6FFA9C29A
:10152000E6FFA6C2E6FFA7C2E6FFA4C2E6FFA5C289
:10153000E6FF860EE66E020EE66E41EC1CF0146EBF
:101540000A0EE15E1450B6C2E6FFB7C2E6FFB2C2B1
:10155000E6FFB3C2E6FFB0C2E6FFB1C2E6FFAEC22D
:10156000E6FFAFC2E6FF950EE66E020EE66E41ECB8
:101570001CF0146E0A0EE15E145004D80201010E34
:10158000846F12008DEC27F0CDEC27F028EF1EF0D1
:101590000201240EBC6FBD6BBE6BBF6B14EC1EF062
:1015A000F3CF14F0F4CF15F0153404E21450900882
:1015B000010E155412E2BFEC1CF0F3CFB8F2F4CFD9
:1015C000B9F20201B86DB91F000EB923BA6BBB6B3B
:1015D000B9AF02D0BA69BB6905D00201B86BB96B6B
:1015E000BA6BBB6B0101AEA105D00201BC6BBD6B38
:1015F000BE6BBF6BB8C206F0B9C207F0BAC208F042
:10160000BBC209F0BCC20BF0BDC20CF0BEC20DF0F3
:10161000BFC20EF017EC2CF002C0C8F203C0C9F232
:1016200004C0CAF205C0CBF2900E0B6E010E0C6E18
:101630000D6A0E6AC8C206F0C9C207F0CAC208F035
:10164000CBC209F0A2EC1FF006C0C8F207C0C9F275
:1016500008C0CAF209C0CBF203017A6B0101B25192
:101660000201806F816B7F0E805F000E815B010144
:10167000B3510201826F836B7F0E825F000E835B2A
:10168000C8518027C9518123C851825FC951835BEA
:10169000B8C2C4F2B9C2C5F2BAC2C6F2BBC2C7F27E
:1016A0001200D9CFE6FFE1CFD9FF0201250EBC6FB2
:1016B000BD6BBE6BBF6B14EC1EF0F3CF14F0F4CF18
:1016C00015F0153404E214509008010E155412E27E
:1016D000BFEC1CF0F3CFB8F2F4CFB9F20201B86D51
:1016E000B91F000EB923BA6BBB6BB9AF02D0BA6990
:1016F000BB6905D00201B86BB96BBA6BBB6BB8C2E2
:1017000006F0B9C207F0BAC208F0BBC209F0BCC209
:101710000BF0BDC20CF0BEC20DF0BFC20EF017EC54
:101720002CF002C0C8F203C0C9F204C0CAF205C05E
:10173000CBF2900E0B6E010E0C6E0D6A0E6AC8C2D3
:1017400006F0C9C207F0CAC208F0CBC209F0A2EC89
:101750001FF006C0C8F207C0C9F208C0CAF209C02B
:10176000CBF203017A6BFB0EDBCF14F0FC0EDBCF68
:1017700015F0FD0EDB50000114240201806FFE0EF7
:10178000DB50000115200201816FFD0EDBCF14F04C
:10179000FE0EDBCF15F0FB0EDB500001145C0201E6
:1017A000826FFC0EDB50000115580201836F8135FA
:1017B00004E280517F08000E815504E27F0E806FA5
:1017C000816B0BD0D880815104E7810E805DFF0EC4
:1017D000815903E2810E806F8169833504E2825171
:1017E0007F08000E835504E27F0E826F836B0BD05F
:1017F000D880835104E7810E825DFF0E835903E296
:10180000810E826F8369C8518027C9518123C851D5
:10181000825FC951835BE552E7CFD9FF1200D9CF70
:10182000E6FFE1CFD9FF0E0EE1260101B351146EA0
:10183000156A7F0E145E000E155A14C0DEFF15C027
:10184000DDFFB751146E156A7F0E145E000E155A37
:10185000020E14C0DBFF030E15C0DBFFDECFE6FF78
:10186000DDCFE6FFD5EC14F0E552E552040EF3CFE0
:10187000DBFF050EF4CFDBFF020EDBCFE6FF030E2E
:10188000DBCFE6FFD5EC14F0E552E552060EF3CFC0
:10189000DBFF070EF4CFDBFFD9CFE9FFDACFEAFF9A
:1018A000080EEECFDBFF090EEDCFDBFF020EDBCF24
:1018B00008F0030EDBCF09F00A0E08C0DBFF0B0EA9
:1018C00009C0DBFF040EDBCF14F0050EDBCF15F0F3
:1018D0007F0ED8801456000E15563C0E1426000EAE
:1018E00015220C0E14C0DBFF0D0E15C0DBFF0A0E17
:1018F000DBCF08F00B0EDBCF09F00C0EDBCF0DF0C9
:101900000D0EDBCF0EF0D6EC1FF006C014F007C0B2
:1019100015F0BB0E0D6E0E6814C008F015C009F06E
:101920007CEC1FF008C014F009C015F00A0E14C0BA
:10193000DBFF0B0E15C0DBFF0A0EDBCFE6FF0B0E45
:10194000DBCFE6FF080EDBCFE6FF090EDBCFE6FFBD
:10195000A8DEE552E552E552E5520E0EE15C02E2E8
:10196000E16AE552E16EE552E7CFD9FF12000301CB
:10197000786B12000301010E786F12000301785199
:1019800002E0000E01D0010E786F1200D9CFE6FF01
:10199000E1CFD9FFFE0EDBCF78F3E552E7CFD9FFD9
:1019A00012000301010E796F12000301796B12001E
:1019B000D9CFE6FFE1CFD9FF020EE12647EC1DF0BB
:1019C00006C0DEFF07C0DDFFDECF14F0DDCF15F06F
:1019D000FD0EDBCF16F0FE0EDBCF17F0050E165E08
:1019E000000E175A15501718E8AE02D0173404D05D
:1019F0001650145C175015581BE3DECF18F0DDCFDE
:101A000019F0050EE76EFD0EDBCF1AF0FE0EDBCFF0
:101A10001BF0E7501A26000E1B221B501918E8AEC7
:101A200002D0193404D018501A5C19501B5821E206
:101A3000FD0EDBCFE6FFFE0EDBCFE6FFDECFE6FFDF
:101A4000DDCFE6FF860EE66E020EE66E10EC1AF0B3
:101A5000146E060EE15E1450E66EE66A000EE66E47
:101A6000E66A1FDEE552E552E552E552000E03D06C
:101A700002D0010E00D0146E020EE15C02E2E16AB7
:101A8000E552E16E1450E552E7CFD9FF1200D9CFED
:101A9000E6FFE1CFD9FF020EE12647EC1DF006C0BC
:101AA000DEFF07C0DDFF000EE66EE66ADECFE6FF72
:101AB000DDCFE6FF860EE66E020EE66E10EC1AF043
:101AC000146E060EE15E1450E66EE66AFE0EDBCF83
:101AD000E6FFE66AE6DDE552E552E552E552020E22
:101AE000E15C02E2E16AE552E16EE552E7CFD9FF3F
:101AF0001200D9CFE6FFE1CFD9FF65EC27F006C091
:101B000014F007C015F008C016F009C017F014C093
:101B1000E6FF15C0E6FF16C0E6FF17C0E6FFA5EC1E
:101B200027F0E552E7CF17F0E552E7CF16F0E55280
:101B3000E7CF15F0E552E7CF14F014500624066EF7
:101B400015500720076E16500820086E1750092000
:101B5000096E020E0B6E0C6A0D6A0E6AA2EC1FF083
:101B600006C07BF307C07CF3FC0EDBCF14F0FD0E48
:101B7000DBCF15F0050E145E000E155A03017C51E3
:101B80001518E8AE02D0153404D014507B5D155002
:101B90007C5917E3050EE76EFC0EDBCF16F0FD0E49
:101BA000DBCF17F0E7501626000E172217507C19CE
:101BB000E8AE02D07C3504D07B51165C7C511758BE
:101BC0001AE2FC0EDBCFE6FFFD0EDBCFE6FF7BC3A8
:101BD000E6FF7CC3E6FF950EE66E020EE66E10ECA5
:101BE0001AF0146E060EE15E1450E66E50DFE552F8
:101BF000000E03D002D0010E00D0E552E7CFD9FF8E
:101C000012000201D4510101BB5D06E0BB517F0807
:101C100002E203D801D005D812000201010E856F3F
:101C200012000201856B1200D9CFE6FFE1CFD9FF88
:101C3000FE0EDB50146E156A020115508319E8AED2
:101C400002D0833504D08251145C8351155803E2CD
:101C5000FE0EDB5010D0FE0EDB50FF0DF35083AFB5
:101C600002D0D89003D0825D000E835906E2FE0EAA
:101C7000DB50FF0DF350826F836BFE0EDB50146E52
:101C8000156A15508119E8AE02D0813504D0805113
:101C9000145C8151155803E2FE0EDB5010D0FE0E8D
:101CA000DB50FF0DF35081AF02D0D89003D0805DA0
:101CB000000E815906E2FE0EDB50FF0DF350806FDF
:101CC000816BE552E7CFD9FF12000301010E7A6F55
:101CD00012000201845102E169EC0AF0030178511B
:101CE00003E08D808C9002D08D908C8079511BE028
:101CF00080C214F081C215F0141E151E14C0E6FF38
:101D000015C0E6FF01EC15F0E552E552F3CFD5F230
:101D100082C2E6FF83C2E6FF01EC15F0E552E55210
:101D2000F3CFD6F21AD080C214F081C215F0141E7F
:101D3000151E14C0E6FF15C0E6FF01EC15F0E552D4
:101D4000E552F3CFD6F282C2E6FF83C2E6FF01EC92
:101D500015F0E552E552F3CFD5F2D5C294F1D5C2D4
:0C1D600093F1D6C291F1D6C290F11200AE
:041D6C00D9CFE6FFE6
:101D7000E1CFD9FFE65237D80101CC97CC99900E2C
:101D8000846F010E856FDF6A100EDF5C0AE2DF50A0
:101D9000EA6A8425E96E8551EA227F0EEF6EDF2A1A
:101DA000F3D7A96B010EAA6FC20EAB6FCC85AE6BD9
:101DB000AF6B8C6B8E6B8F6B8C0EE66E010EE66ECE
:101DC00086D8E552E5520101CC938C0EE66E010EE9
:101DD000E66E7DD8E552E5520101CC93E552E5521D
:101DE000E7CFD9FF1200806A816A826A836A846AB7
:101DF000856A866A876A886A896A8A6A8B6A8C6A4F
:101E00008D6A8E6A8F6A906A916A2F0E926E9368BD
:101E10009C0E946E956A966A9768040E986E9968FF
:101E20000E0E9A6EB0989C8EF26AF16AF06A9E6A03
:101E3000A16AA46A080E9D6EA06AA36A9F6EA26A38
:101E4000A56A050EC66EC68AD08EF288F28CF28E16
:101E5000120082828088949292981200D9CFE6FF75
:101E6000E1CFD9FFE6520101CCA12CD0CCA905D0FD
:101E7000400E806F010E816F04D0600E806F010EE6
:101E8000816FFD0EDBCF82F1FE0EDBCF83F1DF6AC7
:101E9000200EDF5C14E2DF50EA6A8025E96E815192
:101EA000EA22EF50E66E82C1E9FF83C1EAFF822B8E
:101EB000000E8323E552E750EF6EDF2AE9D79D96A7
:101EC000CC919D86E552E552E7CFD9FF1200D9CFDC
:101ED000E6FFE1CFD9FFE6520101CCB350D0FD0EB1
:101EE000DBCFE9FFFE0EDBCFEAFF1E0EE926000E78
:101EF000EA22EF50020809E1FD0EDBCFE6FFFE0EFD
:101F0000DBCFE6FF46D8E552E552FD0EDBCFE9FF19
:101F1000FE0EDBCFEAFF150EE926000EEA22EF9E49
:101F20000101CCA705D0200E806F010E816F04D077
:101F3000000E806F010E816FFD0EDBCF84F1FE0E6F
:101F4000DBCF85F1DF6A200EDF5C14E284C1E9FF9C
:101F500085C1EAFF842B000E8523EF50E66EDF502B
:101F6000EA6A8025E96E8151EA22E552E750EF6E78
:101F7000DF2AE9D79D96CC77CC839D86A92BE552A5
:101F8000E552E7CFD9FF12009D960101CC919D86C5
:101F90001200D9CFE6FFE1CFD9FFFD0EDBCFE9FF7D
:101FA000FE0EDBCFEAFF1C0EE926000EEA22EF6AE6
:101FB000FD0EDBCFE9FFFE0EDBCFEAFF170EE926B1
:101FC000000EEA22EF6AC6AE0ED0C69EFD0EDBCF33
:101FD000E9FFFE0EDBCFEAFF170EE926000EEA222C
:101FE000010EEF6E22D0F150800B10E0F250080B82
:101FF0000DE0FD0EDBCFE9FFFE0EDBCFEAFF170E93
:10200000E926000EEA22020EEF6E0FD0F0A60DD0E8
:10201000909EFD0EDBCFE9FFFE0EDBCFEAFF170E31
:10202000E926000EEA22030EEF6E250EC6142508DF
:1020300019E0FD0EDBCFE9FFFE0EDBCFEAFF1C0E41
:10204000E926000EEA22010EEF6EFD0EDBCFE9FF5E
:10205000FE0EDBCFEAFF170EE926000EEA22C6CFFE
:10206000EFFF80D1C55019E0FD0EDBCFE9FFFE0E7A
:10207000DBCFEAFF1C0EE926000EEA22020EEF6E0D
:10208000FD0EDBCFE9FFFE0EDBCFEAFF170EE926E0
:10209000000EEA22C5CFEFFF65D1D0BE19D0FD0EEC
:1020A000DBCFE9FFFE0EDBCFEAFF1C0EE926000EB8
:1020B000EA22030EEF6EFD0EDBCFE9FFFE0EDBCF53
:1020C000EAFF170EE926000EEA22D0CFEFFF4AD131
:1020D0009DB619D0FD0EDBCFE9FFFE0EDBCFEAFF88
:1020E0001C0EE926000EEA22040EEF6EFD0EDBCF79
:1020F000E9FFFE0EDBCFEAFF170EE926000EEA220B
:102100009DCFEFFF2FD19C5019E0FD0EDBCFE9FFF3
:10211000FE0EDBCFEAFF1C0EE926000EEA22050EBA
:10212000EF6EFD0EDBCFE9FFFE0EDBCFEAFF170EF1
:10213000E926000EEA229CCFEFFF14D1080E9F5C27
:1021400019E0FD0EDBCFE9FFFE0EDBCFEAFF1C0E30
:10215000E926000EEA22060EEF6EFD0EDBCFE9FF48
:10216000FE0EDBCFEAFF170EE926000EEA229FCF14
:10217000EFFFF8D0A25019E0FD0EDBCFE9FFFE0E15
:10218000DBCFEAFF1C0EE926000EEA22070EEF6EF7
:10219000FD0EDBCFE9FFFE0EDBCFEAFF170EE926CF
:1021A000000EEA22A2CFEFFFDDD0A55019E0FD0E10
:1021B000DBCFE9FFFE0EDBCFEAFF1C0EE926000EA7
:1021C000EA22080EEF6EFD0EDBCFE9FFFE0EDBCF3D
:1021D000EAFF170EE926000EEA22A5CFEFFFC2D0D4
:1021E000100EF214100819E0FD0EDBCFE9FFFE0E11
:1021F000DBCFEAFF1C0EE926000EEA22090EEF6E85
:10220000FD0EDBCFE9FFFE0EDBCFEAFF170EE9265E
:10221000000EEA22F2CFEFFFA5D0470EF11419E02D
:10222000FD0EDBCFE9FFFE0EDBCFEAFF1C0EE92639
:10223000000EEA220A0EEF6EFD0EDBCFE9FFFE0E66
:10224000DBCFEAFF170EE926000EEA22F1CFEFFFFF
:1022500089D0C00EF01419E0FD0EDBCFE9FFFE0EB1
:10226000DBCFEAFF1C0EE926000EEA220B0EEF6E12
:10227000FD0EDBCFE9FFFE0EDBCFEAFF170EE926EE
:10228000000EEA22F0CFEFFF6DD092A819D0FD0E1C
:10229000DBCFE9FFFE0EDBCFEAFF1C0EE926000EC6
:1022A000EA220C0EEF6EFD0EDBCFE9FFFE0EDBCF58
:1022B000EAFF170EE926000EEA2292CFEFFF52D076
:1022C00093B019D0FD0EDBCFE9FFFE0EDBCFEAFFA6
:1022D0001C0EE926000EEA220D0EEF6EFD0EDBCF7E
:1022E000E9FFFE0EDBCFEAFF170EE926000EEA2219
:1022F00093CFEFFF37D03E0E94141C0819E0FD0E6B
:10230000DBCFE9FFFE0EDBCFEAFF1C0EE926000E55
:10231000EA220E0EEF6EFD0EDBCFE9FFFE0EDBCFE5
:10232000EAFF170EE926000EEA2294CFEFFF1AD03B
:1023300097BE18D0FD0EDBCFE9FFFE0EDBCFEAFF24
:102340001C0EE926000EEA220F0EEF6EFD0EDBCF0B
:10235000E9FFFE0EDBCFEAFF170EE926000EEA22A8
:1023600097CFEFFFE552E7CFD9FF1200D8CFE4FFB8
:10237000E0CFE4FFE46EDACFE4FFE2CFDAFFE9CFAB
:10238000E4FFEACFE4FFE6529EA624D09E96C9CF92
:102390008BF101018A5100081BE288C1E9FF89C164
:1023A000EAFF882B000E89238BC1EFFF86C1E9FF6E
:1023B00087C1EAFF862B8723EFCF8BF18BC1C9FF43
:1023C0008A078A5104E1020EAA6FCC93CC8101D016
:1023D000C96A29D0F2A227D0F2920101200E8A6F99
:1023E000CCA905D0600E886F010E896F04D0400E15
:1023F000886F010E896FCCA1CC79CCA705D0000ED7
:10240000866F010E876F04D0200E866F010E876FD6
:10241000C9CF8BF186C1E9FF87C1EAFF862B000E89
:102420008723EF50C96EE552E5CFEAFFE5CFE9FF1C
:10243000E5CFDAFFE550E5CFE0FFE5CFD8FF1000AC
:1024400048D800C3E6FF01C3E6FF01EC15F0E552F2
:10245000E552F3CF97F1F3CF96F10101700E996F2A
:102460008E0E9A6F120035D800C3E6FF01C3E6FF57
:1024700001EC15F0E552E552F3CF97F1F3CF96F169
:1024800002C3E6FF03C3E6FF01EC15F0E552E55297
:10249000F3CF99F102C314F003C315F0141E151EF7
:1024A00014C0E6FF15C0E6FF01EC15F0E552E55259
:1024B000F3CF9AF11200D9CFE6FFE1CFD9FFFD0E9D
:1024C000DBCF02F3FE0EDBCF03F3E552E7CFD9FFFC
:1024D000120020C322F321C323F30301FC0E225F69
:1024E000080E235B010EE66E30EC21F0E552F3CFCF
:1024F00004F3F4CF05F3020E0301D8900437053737
:10250000E806FBE103011C510301045D0301246F94
:102510001D51030105590301256F0101B551030147
:102520001E6F1F6B7F0E1E5F000E1F5B1EC302F32C
:102530001FC303F3090E1A1901E11B5115E0010134
:10254000AEAD04D0010E03011A6F1B6B0101AEA9E1
:1025500004D0020E03011A6F1B6B0101AFAB04D054
:10256000070E03011A6F1B6B0301050E1A1901E117
:102570001B5101E0176B070E1A1901E11B5101E114
:10258000BDD1060E1A1901E11B5101E1B0D1050EB2
:102590001A1901E11B5101E170D10E0E1A1901E166
:1025A0001B5101E14CD1030E1A1901E11B5101E14C
:1025B00037D1040E1A1901E11B5101E115D1080EA2
:1025C0001A1901E11B5101E101D1020E1A1901E1B1
:1025D0001B5101E1CFD00B0E1A1901E11B5101E192
:1025E000C2D00D0E1A1901E11B5101E18CD00C0E65
:1025F0001A1901E11B5160E0010E1A1901E11B518A
:102600003EE00A0E1A1901E11B5135E0090E1A19B4
:1026100001E11B5110E0710EE66E520EE66E000EE7
:10262000E66E89EC2BF0E552E552E552070E030108
:102630001A6F1B6B6BD10301F80E006F0169030168
:10264000010E186F1C510301041904E103011D510F
:10265000030105190DE10301292B0D0E295D07E387
:1026600004C320F305C321F3010E1A6F1B6B02D0C4
:102670000301296B4BD1070E1A6F1B6B47D120C387
:1026800014F021C315F0B60E145E030E155A0301A3
:1026900015500519E8AE02D0053504D00451145C7C
:1026A0000551155802E20C0E01D00D0E03011A6FF0
:1026B0001B6B010E276F2AD1010E186F0301C90E83
:1026C000006F016920C314F021C315F0B60E145E2B
:1026D000030E155A190E1426000E15221550051951
:1026E000E8AE02D0053504D00451145C05511558EC
:1026F00009E30301186B2A51070803E2030E1A6F5E
:102700001B6B2A2B03D1010E186F0301EF0E006F14
:10271000016903012B2B20C314F021C315F0640EB3
:10272000145E000E155A030105511518E8AE02D0CB
:10273000153404D01450045D155005590CE3006B9A
:10274000016B03012A2B2A510A0805E22A6B2B6B25
:10275000010E1A6F1B6B03012B512A0803E20301C0
:10276000006B016BD3D02A6B2B6B186B0301006BD2
:10277000016BCCD05AEC17F00301010E186F030166
:10278000810E006F01690301253504E2245114080C
:10279000000E255503E2070E1A6F1B6B2351030130
:1027A0000519E8AE02D0053507D004510301225DBA
:1027B000030105510301235906E30301186B080EB9
:1027C0001A6F1B6B266B0301276BA0D0186B0301DC
:1027D000810E006F0169030126510A0803E2030E0E
:1027E0001A6F1B6B262B92D0186B0301006B016BC9
:1027F0000101AE51800B08E0AE51200B05E00E0E3A
:1028000003011A6F1B6B82D0AE51200B08E003014D
:10281000195105E1010E176F050E1A6F1B6B76D06B
:102820002A6B266B0301006B016B0301186B01011E
:10283000AEAF04D0040E03011A6F1B6B67D0010EFC
:10284000186F500E0301006F016B20C314F021C3F9
:1028500015F0640E145E000E155A05511518E8AEF9
:1028600002D0153404D01450045D1550055904E30A
:10287000070E03011A6F1B6B49D00301026B036B38
:102880005AEC17F00301010E186F282B175104E0C2
:102890007F0E0301006F02D00301006B016B20C3A8
:1028A00014F021C315F0640E145E000E155A055184
:1028B0001518E8AE02D0153404D01450045D15503C
:1028C000055914E30301286B276BB7EC0CF0000EDD
:1028D000E66EE66AE66EE66A51EC0BF0E552E5520A
:1028E000E552E552070E03011A6F1B6B0FD0010E64
:1028F000186F800E1F1501E100D008D00301006B96
:10290000016B0301010E186F296B00D004C31CF387
:1029100005C31DF30301185102E02BD801D02CD8B8
:1029200003011951E8B08D82E8A08D928D50020B01
:1029300002E08C9201D08C8212000301195102E056
:10294000000E01D0010E196F1200D9CFE6FFE1CFC2
:10295000D9FFFE0EDB0404E10301010E196F05D05F
:10296000FE0EDB5002E10301196BE552E7CFD9FF00
:1029700012008D888C9812008D988C981200640E2D
:10298000E66EE66A000EE66EE66AE66EE66A0D0E32
:10299000E66EE66A060EE66E030EE66E41EC1CF08D
:0A29A000146E0A0EE15E14501200DE
:0629AA00D9CFE6FFE1CFEA
:1029B000D9FFFD0EDBCF14F0FE0EDBCF15F00001CA
:1029C000800E15140BE0FD0EDBCF14F0FE0EDBCFF6
:1029D00015F0146C151E000E152206D0FD0EDBCF6F
:1029E00014F0FE0EDBCF15F014C0F3FF15C0F4FF9A
:1029F00000D0E552E7CFD9FF12000301715100D09A
:102A00001200D9CFE6FFE1CFD9FFFD0EDBCF14F0E6
:102A1000FE0EDBCF15F0153404E214507F08000ED3
:102A2000155408E27F0EF36EFD0EF3CFDBFFFE0EB2
:102A3000DB6A15D0FD0EDBCF14F0FE0EDBCF15F0F8
:102A4000D880155004E7810E145CFF0E155807E27C
:102A5000810EF36EFD0EF3CFDBFFFE0EDB68D95067
:102A6000FD0FE96EFF0EDA20EA6E7F0EEE26000EF5
:102A7000ED22FD0EDBCF14F0FE0EDBCF15F014C0FF
:102A8000F3FF15C0F4FF00D0E552E7CFD9FF1200E5
:102A900001018C918C938C958C978C998C9B8C9D3F
:102AA0008C9F8D918D938D9503015D0503E103014D
:102AB000010E04D05E0503E10301020E716F0301F4
:102AC0007151020A06E0030A01E005D001018C8180
:102AD00003D001018C8500D012000301576B57C34E
:102AE00056F357C355F357C354F35B6B5BC35AF3A9
:102AF0005BC359F35BC358F35E6B5EC35DF35EC3A8
:102B00005CF30101AEAF03D00301010E576F010169
:102B1000AEA903D00301010E566F0101AEAB03D085
:102B20000301010E556F0101AEAD03D00301010E8B
:102B3000546F040E0101B85D03E20301010E5B6FE7
:102B40000101B851146E156AD890155004E6A90E0B
:102B5000145C000E15580DE3B851166E176A173441
:102B600004E21650AC08000E175403E30301010EF3
:102B70005C6F0101B851146E156AD890155004E6C7
:102B8000BD0E145C000E15580EE3B851166E176A90
:102B9000173404E21650C008000E175404E3030172
:102BA000010E5C6F5B6F040E0101B45D03E2030173
:102BB000010E596F0101B451146E156AD890155069
:102BC00004E6A90E145C000E15580DE3B451166E00
:102BD000176A173404E21650AC08000E175403E3CA
:102BE0000301010E5A6F0101B451146E156AD89099
:102BF000155004E6BD0E145C000E15580EE3B451DA
:102C0000166E176A173404E21650C008000E1754E7
:102C100004E30301010E596F5A6F040E0101BC5DFC
:102C200003E20301010E5D6F0101BC51146E156AD0
:102C3000D890155004E6A90E145C000E15580DE34B
:102C4000BC51166E176A173404E21650AC08000E19
:102C5000175403E30301010E5E6F0101BC51146EB2
:102C6000156AD890155004E6BD0E145C000E155878
:102C70000EE3BC51166E176A173404E21650C008F2
:102C8000000E175404E30301010E5E6F5D6F010136
:102C9000BC51146E156AD890155004E6D20E145C1F
:102CA000000E15580DE3BC51166E176A173404E276
:102CB0001650D508000E175403E30301010E586F98
:102CC0000101BC51146E156AD890155004E6DF0E50
:102CD000145C000E15580EE3BC51166E176A1734BB
:102CE00004E21650E408000E175404E30301010E39
:102CF0005E6F586F0101BC51146E156AD890155063
:102D000004E6E40E145C000E15580EE3BC51166E7A
:102D1000176A173404E21650E808000E175404E34B
:102D20000301010E586F5D6F0101BC51146E156AED
:102D3000D890155004E6BC0E145C000E15580FE335
:102D4000BC51166E176A173404E21650C108000E03
:102D5000175405E30301010E5E6F5D6F586F12009B
:102D6000D9CFE6FFE1CFD9FF080EE1260301775165
:102D700001E093D0732B000E7423752B76230A0E7B
:102D8000751901E176510BE1EF0EE66E520EE66E1B
:102D9000000EE66E89EC2BF0E552E552E552030198
:102DA0003C0E751901E1765102E1C6EC1DF02C0EC6
:102DB0000301751902E1010E76190FE1D4EC1DF043
:102DC00028EC1EF0E90EE66E520EE66E000EE66E80
:102DD00089EC2BF0E552E552E55203011E0E735DBE
:102DE000000E74595AE32C0E755D010E765955E3A9
:102DF00014EC1EF0060EF3CFDBFF070EF4CFDBFF63
:102E0000BFEC1CF0F3CFDEFFF4CFDDFF47EC1DF08D
:102E1000020E06C0DBFF030E07C0DBFF040E08C076
:102E2000DBFF050E09C0DBFF060EDBCFE6FF070E5A
:102E3000DBCFE6FFD90EE66E520EE66E000EE66EB2
:102E400089EC2BF0146E050EE15E1450DECFE6FF28
:102E5000DDCFE6FFC90EE66E520EE66E000EE66EA0
:102E600089EC2BF0146E050EE15E1450020EDBCFE0
:102E7000E6FF030EDBCFE6FFB70EE66E520EE66E00
:102E8000000EE66E89EC2BF0146E050EE15E145018
:102E90000301736B746B010E776F080EE15C02E245
:102EA000E16AE552E16EE552E7CFD9FF1200030176
:102EB000726B12000301010E726F12000301725156
:102EC00007E18850800B02E08D9601D08D8601D0FD
:102ED0008D96120002D86FEF17F0F0981200F09A5A
:062EE0001200F296120040
:0A2EE600B2C190F1B3C191F1B4C183
:102EF00092F1B5C193F1B6C194F1B7C195F1B8C1E2
:102F000096F1B9C197F1BAC198F1BBC199F1BCC1B1
:102F10009AF1BDC19BF10101B251146E156AFF0E09
:102F2000D8801456000E155614C0B6F10101945104
:102F3000146E156AFF0ED8801456000E155614C074
:102F4000B2F10101B251176AD00F166E070E1722A7
:102F5000B65100011624146E000E1720156E7F0E58
:102F6000145E000E155A14C0E6FF15C0E6FF1ADA0B
:102F7000E552E55201019D6F9C6F0101B251176A44
:102F8000D00F166E070E1722B651186E196A185018
:102F9000165C146E19501758156E7F0E1426000E0D
:102FA000152214C0E6FF15C0E6FFFCD9E552E55234
:102FB00001019F6F9E6F8150040B01E0010E146EA2
:102FC0000101AE51010B1414E8B08D80E8A08D9082
:102FD0008150080B01E0010E146EAE51020B01E0AE
:102FE000010E1414E8B08C80E8A08C908150100B76
:102FF00001E0010E146EAF51010B1414E8B08D8284
:10300000E8A08D928150200B01E0010E146EAF51AB
:10301000020B01E0010E1414E8B08C82E8A08C923F
:10302000AE51100B02E08D8401D08D94AE51200B77
:1030300002E08C8401D08C94AF51100B02E08D869D
:1030400001D08D96AF51200B02E08C8601D08C967A
:10305000AE51040B02E08D8801D08D98AE51080B63
:1030600002E08C8801D08C98AE51400B02E08D8A32
:1030700001D08D9AAE51800B02E08C8A01D08C9ADF
:10308000AF51400B02E08D8C01D08D9CAF51800B75
:1030900002E08C8C01D08C9C8850800B02E09190D7
:1030A00001D091808C9E920EE66E010EE66E8150EC
:1030B000400B01E0010EE66E3BD9E552E552E552C8
:1030C000920EE66E010EE66E8150800B01E0010E5D
:1030D000E66E4AD9E552E552E552930EE66E010ED0
:1030E000E66E8750010BE66E23D9E552E552E552B4
:1030F000930EE66E010EE66E8750020B01E0010EA4
:10310000E66E32D9E552E552E552980EE66E010EB2
:10311000E66E8750040B01E0010EE66E09D9E55218
:10312000E552E552980EE66E010EE66E8750080BEA
:1031300001E0010EE66E18D9E552E552E552990E0E
:10314000E66E010EE66E8850020B01E0010EE66E9F
:10315000EFD8E552E552E552990EE66E010EE66EA5
:103160008850040B01E0010EE66EFED8E552E552F0
:10317000E5529A0EE66E010EE66E8850080B01E0ED
:10318000010EE66ED5D8E552E552E5529A0EE66E8E
:10319000010EE66E8250010BE66EE6D8E552E5526E
:1031A000E5529B0EE66E010EE66E8850100B01E0B4
:1031B000010EE66EBDD8E552E552E5529B0EE66E75
:1031C000010EE66E8850200B01E0010EE66ECCD8B1
:1031D000E552E552E55212000101ADBB56D07D0E1D
:1031E000B25D0EE3B251146E156A153404E2145048
:1031F0008108000E155404E301018C818C8303D0F7
:1032000001018C918C938C9B8D50010B01E08C8B78
:103210008C998C50010B01E08C898C9F8D50020B96
:1032200001E08C8F8C9D8C50020B01E08C8D8150C5
:10323000040B01E0010E146E156A1450151002E023
:10324000000E01D0010E8D91E8B08D818150080BE8
:1032500001E0010E146E156A1450151002E0000E04
:1032600001D0010E8D93E8B08D838150100B01E0E9
:10327000010E146E156A1450151002E0000E01D0F4
:10328000010E8D95E8B08D8552D0C3C109F0ABEC2D
:103290001EF007C01CF008C01DF009C01EF00AC0D7
:1032A0001FF0710E0C6E3D0E0D6E7A0E0E6E410EFD
:1032B0000F6E1CC007F01DC008F01EC009F01FC033
:1032C0000AF00FEC1FF007C018F008C019F009C091
:1032D0001AF00AC01BF00C6A0D6A800E0E6E430EC7
:1032E0000F6E18C007F019C008F01AC009F01BC013
:1032F0000AF0BCEC1EF007C014F008C015F009C0BD
:1033000016F00AC017F00C6A0D6A200E0E6E410E00
:103310000F6E14C007F015C008F016C009F017C0F2
:103320000AF00FEC1FF003EC20F009C08CF1120042
:10333000D9CFE6FFE1CFD9FFFE0EDB5011E1FC0E45
:10334000DBCFE9FFFD0EDBCFEAFFEF507F0808E29D
:10335000FC0EDBCFE9FFFD0EDBCFEAFF7F0EEF6E49
:10336000E552E7CFD9FF1200D9CFE6FFE1CFD9FF71
:10337000FE0EDB5013E1FC0EDBCFE9FFFD0EDBCFD1
:10338000EAFFEFCF14F07F0E145C08E2FC0EDBCFF7
:10339000E9FFFD0EDBCFEAFF7F0EEF6EE552E7CFD0
:1033A000D9FF1200D9CFE6FFE1CFD9FFFD0EDBCF69
:1033B00014F0FE0EDBCF15F0D890155004E6D00EB9
:1033C000145C070E155805E20301D00E816F070E3D
:1033D00011D0FD0EDBCF14F0FE0EDBCF15F015344F
:1033E00004E21450CE08080E155406E20301CE0E76
:1033F000816F080E826F06D0FD0EDBCF81F3FE0ECB
:10340000DBCF82F381C314F082C315F0D00E145EBB
:10341000070E155A145000D0E552E7CFD9FF12001D
:10342000D9CFE6FFE1CFD9FF140EE126FB0EDBCFAB
:1034300018F0FC0EDBCF19F0F90EDB50185C146E9F
:10344000FA0EDB501958156E166A176A15AE02D0BF
:10345000166817680C0E14C0DBFF0D0E15C0DBFFDD
:103460000E0E16C0DBFF0F0E17C0DBFFFD0EDBCF0D
:10347000E9FFFE0EDBCFEAFF0A0EE926000EEA2284
:10348000EECF14F0EFCF15F0166A176A15AE02D022
:103490001668176814C006F015C007F016C008F0CB
:1034A00017C009F00C0EDBCF0BF00D0EDBCF0CF0CC
:1034B0000E0EDBCF0DF00F0EDBCF0EF017EC2CF065
:1034C00002C006F003C007F004C008F005C009F010
:1034D000E80E0B6E030E0C6E0D6A0E6AA2EC1FF066
:1034E00006C0DEFF07C0DEFF08C0DEFF09C0DDFF4B
:1034F000DD52DD520C0EDBCF14F00D0EDBCF15F0DC
:10350000FD0EDBCFE9FFFE0EDBCFEAFF020EE92660
:10351000000EEA221450EE261550ED22FD0EDBCFF0
:10352000E9FFFE0EDBCFEAFF020EE926000EEA22DB
:10353000EECF14F0EFCF15F0FD0EDBCFE9FFFE0E5E
:10354000DBCFEAFF040EE926000EEA22EECF16F0EA
:10355000EFCF17F017501518E8AE02D0153404D08D
:103560001450165C1550175808E2FD0EDBCFE9FF2A
:10357000FE0EDBCFEAFF040E2ED0FD0EDBCFE9FFFF
:10358000FE0EDBCFEAFF020EE926000EEA22EECFA6
:1035900014F0EFCF15F0FD0EDBCFE9FFFE0EDBCF11
:1035A000EAFF060EE926000EEA22EECF16F0EFCF74
:1035B00017F015501718E8AE02D0173404D0165083
:1035C000145C175015581CE2FD0EDBCFE9FFFE0E10
:1035D000DBCFEAFF060EE926000EEA22EECF14F05A
:1035E000EFCF15F0FD0EDBCFE9FFFE0EDBCFEAFFDC
:1035F000020EE926000EEA2214C0EEFF15C0EDFF10
:10360000FD0EDBCFE9FFFE0EDBCFEAFF080EE92659
:10361000000EEA22EECF18F0EFCF19F0FD0EDBCF4F
:10362000E9FFFE0EDBCFEAFF020EE926000EEA22DA
:10363000EECF1AF0EFCF1BF000011A501802F3CFB3
:1036400014F0F4CF15F01902F35015261B50180290
:10365000F3501526E80E0D6E030E0E6E14C008F022
:1036600015C009F07CEC1FF008C014F009C015F07B
:10367000166A176A15AE02D016681768080E14C0CD
:10368000DBFF090E15C0DBFF0A0E16C0DBFF0B0EB9
:1036900017C0DBFFFD0EDBCFE9FFFE0EDBCFEAFF3D
:1036A000EECF1CF0EFCF1DF01E6A1F6A1DAE02D0D8
:1036B0001E681F68D9500C0FE96EDACFEAFF1C5064
:1036C000EE5C186E1D50EE58196E1E50EE581A6EB4
:1036D0001F50EE581B6EFD0EDBCFE9FFFE0EDBCF59
:1036E000EAFF0C0EE926000EEA22EECF14F0EFCF2F
:1036F00015F0166A176A15AE02D01668176814C05E
:1037000006F015C007F016C008F017C009F018C081
:103710000BF019C00CF01AC00DF01BC00EF017EC26
:103720002CF002C006F003C007F004C008F005C08A
:1037300009F0E80E0B6E030E0C6E0D6A0E6AA2EC19
:103740001FF0040E06C0DBFF050E07C0DBFF060EF0
:1037500008C0DBFF070E09C0DBFFFD0EDBCFE9FF72
:10376000FE0EDBCFEAFF0C0EDBCFEEFF0D0EDBCF44
:10377000EDFF040EDBCF18F0050EDBCF19F0060EBF
:10378000DBCF1AF0070EDBCF1BF0D9CFE9FFDACF82
:10379000EAFFEE501826EE501922EE501A22EE5093
:1037A0001B22D950080FE96EDACFEAFF1850EE2439
:1037B000146E1950EE20156E1A50EE20166E1B5026
:1037C000EE20176E100E14C0DBFF110E15C0DBFFCC
:1037D000120E16C0DBFF130E17C0DBFF100EDBCF7F
:1037E00007F0110EDBCF08F0120EDBCF09F0130E3D
:1037F000DBCF0AF00A34000E0A1809E6D8807F0EE3
:103800000754000E0854000E0954000E0A540CE22E
:103810007F0EF36E100EF3CFDBFF110EDB6A120E7C
:10382000DB6A130EDB6A1ED0D950100FE96EDACFB7
:10383000EAFFD880030EEB50FF0A08E6810EEE5C2B
:10384000FF0EEE58FF0EEE58FF0EEE580BE2810E03
:10385000F36E100EF3CFDBFF110EDB68120EDB6888
:10386000130EDB68100EDB50146E140EE15C03E2E5
:1038700000D0E16AE552E16E1450E552E7CFD9FF7E
:103880001200D9CFE6FFE1CFD9FFFD0EDBCFE9FF74
:10389000FE0EDBCFEAFF0A0EE926000EEA22FB0E3F
:1038A000DBCFEEFFFC0EDBCFEDFFFD0EDBCFE9FF44
:1038B000FE0EDBCFEAFF080EE926000EEA22F90E23
:1038C000DBCFEEFFFA0EDBCFEDFFFD0EDBCFE9FF26
:1038D000FE0EDBCFEAFF0C0EE926000EEA22F70E01
:1038E000DBCFEEFFF80EDBCFEDFFF50EDBCF14F0F4
:1038F000F60EDBCF15F0146C151E000E1522FD0E12
:10390000DBCFE9FFFE0EDBCFEAFF060EE926000E55
:10391000EA2214C0EEFF15C0EDFFFD0EDBCFE9FF7C
:10392000FE0EDBCFEAFF040EE926000EEA22F50EBA
:10393000DBCFEEFFF60EDBCFEDFFE552E7CFD9FF91
:02394000120073
:0E3942000001646B656B666B676B786B100E33
:10395000686F270E696F6A6B6B6B6C6B040E6D6F13
:103960006E6B6F6BE80E706F030E716F726B736B23
:10397000746B400E756F010E766F776B1200D9CFA6
:10398000E6FFE1CFD9FF040EE12662C018F063C064
:1039900019F01A6A1B6A19AE02D01A681B6818C09F
:1039A00006F019C007F01AC008F01BC009F068C083
:1039B0000BF069C00CF06AC00DF06BC00EF017EC94
:1039C0002CF002C014F003C015F004C016F005C0BE
:1039D00017F014C006F015C007F016C008F017C0A5
:1039E00009F06CC00BF06DC00CF06EC00DF06FC034
:1039F0000EF0A2EC1FF006C0DEFF07C0DEFF08C01D
:103A0000DEFF09C0DDFFDD52DD52D9CFE9FFDACF9D
:103A1000EAFFEECF06F0EECF07F0EECF08F0EFCFE3
:103A200009F0E80E0B6E030E0C6E0D6A0E6A17ECB1
:103A30002CF002C006F003C007F004C008F005C077
:103A400009F0E80E0B6E030E0C6E0D6A0E6AA2EC06
:103A50001FF006C0DEFF07C0DEFF08C0DEFF09C0A2
:103A6000DDFFDD52DD52DFCF14F0010EDBCF15F0AC
:103A700014C0F3FF15C0F4FF040EE15C03E200D0B4
:103A8000E16AE552E16EE552E7CFD9FF1200D9CFE6
:103A9000E6FFE1CFD9FF040EE12664C006F065C061
:103AA00007F066C008F067C009F070C00BF071C085
:103AB0000CF072C00DF073C00EF017EC2CF002C0C9
:103AC00014F003C015F004C016F005C017F014C0C0
:103AD00006F015C007F016C008F017C009F074C052
:103AE0000BF075C00CF076C00DF077C00EF0A2ECB4
:103AF0001FF006C0DEFF07C0DEFF08C0DEFF09C002
:103B0000DDFFDD52DD52D9CFE9FFDACFEAFFEECF9C
:103B100006F0EECF07F0EECF08F0EFCF09F0E80E99
:103B20000B6E030E0C6E0D6A0E6A17EC2CF002C0C1
:103B300006F003C007F004C008F005C009F0E80E65
:103B40000B6E030E0C6E0D6A0E6AA2EC1FF006C01F
:103B5000DEFF07C0DEFF08C0DEFF09C0DDFFDD526B
:103B6000DD52DECF06F0DECF07F0DECF08F0DDCF8E
:103B700009F0DD52DD52040EE15C03E200D0E16A9F
:103B8000E552E16EE552E7CFD9FF1200000178510E
:103B90000AE1796B7A6B7B6B7C6B0301866B010EA0
:103BA000856F0001786F1200D9CFE6FFE1CFD9FF12
:103BB000E652000178052FE1DF6A400EDF5C1AE271
:103BC000EA6ADF34FE0BEA36E96E7D0EE926000E66
:103BD000EA22EECF14F0EFCF15F0000114500001EF
:103BE00079270001155000017A23000E7B237C23E6
:103BF000DF2AE3D7060ED8907C337B337A337933D0
:103C0000E806F9E179C060F07AC061F00301040EC2
:103C1000856F0001786BE552E552E7CFD9FF1200BE
:103C20000301855100D0120060C0F3FF61C0F4FFB2
:103C300000D01200D9CFE6FFE1CFD9FFFD0EDBCFD8
:103C400060F0FE0EDBCF61F0E552E7CFD9FF120046
:103C50000001646B656B666B676B1200D9CFE6FF82
:103C6000E1CFD9FF020EE126A9EC21F0000969E0BD
:103C70000001780521E1020EE66E30EC21F0E552FC
:103C8000F3CF14F0F4CF15F003018651E96EEA6A20
:103C9000D890E936EA367D0EE926000EEA2214C0F5
:103CA000EEFF15C0EDFF862B3F0E865D02E1020E92
:103CB000856F3F0E861740D0020EE66E30EC21F085
:103CC000E55200016051F35C146E6151F458156EB9
:103CD00014C0DEFF15C0DDFFDECF14F0DDCF15F020
:103CE000D880155004E7F80E145CFF0E15580BE34E
:103CF000DECF16F0DDCF17F0173404E216500808B7
:103D0000000E175417E2DECF62F0DDCF63F0DECF96
:103D100014F0DDCF15F0166A176A15AE02D01668DA
:103D200017681450642715506523165066231750E2
:103D3000672302D0626B636BFE0EDB5002E0B9ECCE
:103D400021F0020EE15C02E2E16AE552E16EE55229
:063D5000E7CFD9FF1200CD
:0A3D5600019E05D0019E09AE02D0C7
:103D6000096C018E09C003F0026A136A126A860E9A
:103D7000046E056A46EF20F0016A82EC20F09AECAE
:103D800020F001B62AEF20F001A205D001BA2AEFF7
:103D900020F031EF20F001BA3DEF20F001A005D076
:103DA00001B82AEF20F03DEF20F001B831EF20F00C
:103DB000056A7F0E0A24046EE86A05220F50045E2D
:103DC000E86A055A1A0E106E0A6A126A136A026AC3
:103DD000036A0C50075E0D50085A0E50095A000E27
:103DE0000A5A09E70C5007260D5008220E500922E6
:103DF000000E0A2201D0128AD890073608360936FA
:103E00000A36D8901236133602360336102EE1D712
:103E1000095008100710D8A4128A46EF20F0016A52
:103E200082EC20F09AEC20F001B62AEF20F001A2FB
:103E300005D001B82AEF20F031EF20F001AA05D01B
:103E400001B02AEF20F031EF20F001B002D001A83C
:103E500002D03DEF20F0056A0F500A24046EE86A94
:103E600005227E0E045EE86A055A126A136A026A27
:103E7000036A0E500902F4CF03F0F3CF02F00D50A5
:103E80000902F3501326F4500222000E03220E50B2
:103E90000802F3501326F4500222000E03220C50A5
:103EA0000902F3501226F4501322000E02220322BC
:103EB0000D500802F3501226F4501322000E022275
:103EC00003220E500702F3501226F4501322000E64
:103ED000022203220C500802F4501226000E132274
:103EE000022203220D500702F4501226000E132264
:103EF0000222032246EF20F0006A0EAE85EF1FF08B
:103F00000D6C0E1EE86A0E22001E09AE8DEF1FF02A
:103F1000086C091EE86A0922001EC3EC2CF009BED9
:103F20009DEF1FF000AE000C086C091EE86A092224
:103F3000046C051EE86A0522000C00BE94EF1FF019
:103F40000188FF0C006AE86A0EAEAFEF1FF00B6C41
:103F50000C1E0D1E0E1E0C220D220E22001E09AE7E
:103F6000BAEF1FF0066C071E081E091E0722082262
:103F70000922001E82EC2CF009BED1EF1FF000AE2A
:103F8000000C066C071E081E091EE86A072208229C
:103F90000922026C031E041E051E032204220522B0
:103FA000000C00BEC1EF1FF00188FF0C09C013F028
:103FB00008C012F008500D02F4CF07F0F3CF06F05E
:103FC00009500E02F4CF09F0F3CF08F00D02F350C0
:103FD0000726F4500822E86A092212500E02F35014
:103FE0000726F4500822E86A09220EAEFCEF1FF003
:103FF0001250085E1350095A13AE000C0D50085EA3
:104000000E50095A000C016A82EC20F001B60DEF47
:1040100020F001A20AD001B403D07F0E096E19D09E
:10402000800E096E16D0096A14D001B0FCD7870E35
:104030000A60F1D77E0E0A64F6D7860E0A5C04E0A9
:10404000D89009320A2AF9D701A403D0096C09AE25
:10405000EAD712007F0E0A6EFF0E096E086E076E19
:1040600012007F0E01BEFF0E0A6E02D07F0E0A6E96
:10407000800E096E086A076AF3D701AE04D0800E7D
:104080000A6E096AF7D70A6A096AF4D70350021060
:1040900013101210F8E005BEF0D703BE0CD0045088
:1040A0000510EBE0D89012361336023603360406BC
:1040B000D8A00506F2D70550D4E10428D2E012AE0C
:1040C00011D07F0E121402E113A00CD0132AE86A5B
:1040D0000222032207E3D880033202321332042A79
:1040E0000428BFE00450C9E013C007F002C008F084
:1040F0000334096E04300A6E09320A9E01BE0A8E2C
:1041000030EF20F009360A3602E30184017E06E131
:1041100001800A6A096A086A076A12000A2803E02D
:10412000D88009321200D890093202E101821200CF
:10413000018612000E360F3602E3018C017E06E185
:1041400001880F6A0E6A0D6A0C6A12000F2803E0DC
:10415000D8800E321200D8900E32EAE1018A1200A5
:10416000D9CFE6FFE1CFD9FFE6520301400E2C6F15
:10417000060E2D6F020E306F316B010E2E6F2F6BFE
:10418000DF6A3051DF5C10E2DF50040DF3CFE9FF4E
:10419000F4CFEAFF320EE926030EEA22EE6AEE6A57
:1041A000EE6AEE6ADF2AEDD73E6B3F6B406B010E85
:1041B000C26EC16ABE0EC06E9D9C2C5102E1190EEA
:1041C0002D1932E0800E2C1902E10C0E2D1928E079
:1041D000400E2C1902E1060E2D191EE0200E2C199E
:1041E00002E1030E2D1914E0900E2C1902E1010ECC
:1041F0002D190AE0C80E2C1901E12D5101E000D063
:104200006A0E766EDD0E03D0520E766E8C0E03D0E3
:10421000520E766E450E03D0510E766E8C0E03D084
:10422000510E766E450E03D0500E766E8C0E776E64
:1042300000D0786AA596A496A3867684E552E552C6
:10424000E7CFD9FF1200D9CFE6FFE1CFD9FFE65281
:10425000A3967694C26AE552E552E7CFD9FF1200E1
:10426000D9CFE6FFE1CFD9FF020EE126FE0EDBCF6C
:1042700014F003013051D880145412E3A396FE0EBB
:10428000DB04E96EEA6AD890E936EA363A0EE926A6
:10429000030EEA22EECFDEFFEDCFDDFFA38602D0D4
:1042A000DE6ADD6ADECF14F0DDCF15F014C0F3FF57
:1042B00015C0F4FF020EE15C03E200D0E16AE552B2
:1042C000E16EE552E7CFD9FF1200D9CFE6FFE1CF8B
:1042D000D9FFFD0EDBCF14F0FE0EDBCF15F0166A12
:1042E000176A880E0B6E130E0C6E0D6A0E6A14C0E0
:1042F00006F015C007F016C008F017C009F017EC5B
:104300002CF002C014F003C015F004C016F005C074
:1043100017F00B6A040E0C6E0D6A0E6A14C006F0DC
:1043200015C007F016C008F017C009F0A2EC1FF086
:1043300006C014F007C015F008C016F009C017F049
:1043400014C0F3FF15C0F4FF00D0E552E7CFD9FF4A
:104350001200D9CFE6FFE1CFD9FFE652A39687C37B
:10436000DFFFA386DF5000D0E552E552E7CFD9FF4B
:104370001200A3960301876BA3861200D9CFE6FF34
:10438000E1CFD9FF050EE126C450DE6EDD6AD9CF3C
:10439000E9FFDACFEAFFEE50ED6EEF6AC350DE269A
:1043A000000EDD22DECF20F0DDCF21F0226A236A6D
:1043B00003014051040DF3CFE9FFF4CFEAFF320EC1
:1043C000E926030EEA222050EE262150EE2222504A
:1043D000EE222350EE22402B3051405D04E3406B2F
:1043E0003E2B000E3F23020E40C3DBFFDB50040DCB
:1043F000020EF3CFDBFFDB80DB50C26EC2822E5198
:104400003E5D2F513F5968E3030EDB6A040EDB6A01
:10441000030EDBCF20F0040EDBCF21F0030130517F
:10442000000121AE02D0D89003D0205C000E2158AC
:104430004EE2030EDBCFE9FF040EDBCFEAFFD8909C
:10444000E936EA36D890E936EA36320EE926030E26
:10445000EA22030131511F0BEECF20F0EECF21F005
:10446000EECF22F0EECF23F007E0D89023322232B5
:1044700021322032E806F9E1030EDBCFE9FF040E1A
:10448000DBCFEAFFD890E936EA363A0EE926030E8A
:10449000EA2220C0EEFF21C0EDFF030EDBCFE9FFD3
:1044A000040EDBCFEAFFD890E936EA36D890E93639
:1044B000EA36320EE926030EEA22EE6AEE6AEE6A68
:1044C000EE6A030EDB2A040E01E3DB2AA1D7030107
:1044D000872B03013E6B3F6B050EE15C02E2E16A54
:0C44E000E552E16EE552E7CFD9FF120073
:0444EC00D9CFE6FF3F
:1044F000E1CFD9FFFE0EDB50080A20E00F0A1CE0D6
:10450000010A18E0030A14E0010A10E0070A0AE0B1
:10451000010A06E0030A02E0150E09D0810E01D05F
:10452000400E01D02A0EAF6EAC940CD0810E01D09B
:10453000400E01D02A0E01D0150E01D00A0EAF6E2A
:10454000AC8400D09D9A9D98AC98AC9E948EAB9C08
:10455000AB96AB8AAB889F9A9D8A03018369846975
:10456000949CAC9CAC969F989D88AC8AAB8EE5528F
:10457000E7CFD9FF1200D9CFE6FFE1CFD9FFFE0E7A
:10458000DB50080A20E00F0A1CE0010A18E0030AC9
:1045900014E0010A10E0070A0AE0010A06E0030A33
:1045A00002E0400E01D0810E01D0400E01D02A0E53
:1045B0006F6E6C940CD0810E01D0400E01D02A0E8B
:1045C00001D0150E01D00A0E6F6E6C8400D0A39A34
:1045D000A3986C986C9E98846B9C6B966B8A6B8886
:1045E000A59AA38A03018369846998926C9C6C964E
:1045F000A598A3886C8A6B8EE552E7CFD9FF12008D
:10460000D9CFE6FFE1CFD9FFE6529D9ADCC2DFFFAA
:104610009D8ADF5000D0E552E552E7CFD9FF120066
:10462000D9CFE6FFE1CFD9FFE652A39AE8C2DFFF78
:10463000A38ADF5000D0E552E552E7CFD9FF120040
:10464000D9CFE6FFE1CFD9FFE6520201D95103E00D
:10465000000E17D016D0DA51EA6A000FE96E020E8A
:10466000EA22EFCFDFFFDC07DA2B1F0EDA179D9A65
:10467000DB51DA5D02E1010ED96F9D8AD86BDF5004
:1046800000D0E552E552E7CFD9FF1200D9CFE6FFBF
:10469000E1CFD9FFE6520201E55103E0000E17D049
:1046A00016D0E651EA6A400FE96E020EEA22EFCF19
:1046B000DFFFE807E62B1F0EE617A39AE751E65D3A
:1046C00002E1010EE56FA38AE46BDF5000D0E552F2
:1046D000E552E7CFD9FF1200D9CFE6FFE1CFD9FFEE
:1046E0000201DF5101E0FCD7E251EA6A200FE96ED6
:1046F000020EEA22FE0EDBCFEFFFE32BE22B1F0EB2
:10470000E2179D98E251E15D02E1010EDF6F9D88A5
:10471000E06BE552E7CFD9FF1200D9CFE6FFE1CF3A
:10472000D9FF0201EB5101E0FCD7EE51EA6A600FBC
:10473000E96E020EEA22FE0EDBCFEFFFEF2BEE2B2F
:104740001F0EEE17A398EE51ED5D02E1010EEB6F27
:10475000A388EC6BE552E7CFD9FF12000201D851D4
:1047600002E09D9A19D0DB51EA6A000FE96E020E51
:10477000EA22AECFEFFFABA203D0AB98AB88DD2B24
:10478000ABB4DE2BDC2BDB2B1F0EDB17DB51DA5D32
:1047900002E1010ED86FD96B12000201E45102E070
:1047A000A39A19D0E751EA6A400FE96E020EEA2295
:1047B0006ECFEFFF6BA203D06B986B88E92B6BB4C5
:1047C000EA2BE82BE72B1F0EE717E751E65D02E126
:1047D000010EE46FE56B12000201E05102E09D98CA
:1047E00012D0E151EA6A200FE96E020EEA22EF5080
:1047F000AD6EE307E12B1F0EE117E251E15D02E12F
:10480000010EE06FDF6B12000201EC5102E0A39891
:1048100012D0ED51EA6A600FE96E020EEA22EF5003
:104820006D6EEF07ED2B1F0EED17EE51ED5D02E102
:10483000010EEC6FEB6B1200D9CFE6FFE1CFD9FF91
:104840000201D75101E10FD0D70505E1FE0EDBCF04
:10485000E6FF42DF07D0020ED75D05E1FE0EDBCF9B
:0E486000E6FF5BDFE552E552E7CFD9FF12001D
:02486E00120036
:10487000D9CFE6FFE1CFD9FF020EE1260101CF51EA
:1048800011E17F0E0301436F446B0101FA0ECD6FFE
:10489000CE69E66AA5EC14F0E5520101010ECF6F76
:1048A0000301496BBAEC0CF034EC2BF00101F86F0A
:1048B000F96BFA51F81902E1FB51F91910E0030EF6
:1048C000FA1901E1FB5105E0040EFA1901E1FB516F
:1048D00006E10301495103E17F0E436F446B03017D
:1048E000506B516B0101F851F91103E10301526B57
:1048F000536B0101010EF81901E1F9510BE10301BC
:104900005251531103E00101F86BF96B0301522B73
:10491000000E53230101020EF81901E1F9510BE1D8
:1049200003015251531103E00101F86BF96B0301CC
:10493000522B000E53230101030EF81901E1F95126
:1049400004E10301522B000E53230301495133E1CB
:104950004D35000E4D1909E6D880140E4A55000E4B
:104960004B55000E4C55000E4D5525E247EC1DF001
:10497000000E066C071E0722081E0822091E0922C7
:104980000E0E0B6E0C6A0D6A0E6A17EC2CF002C04C
:1049900006F003C007F004C008F005C009F0140ECB
:1049A0000B6E0C6A0D6A0E6AA2EC1FF006C0CDF108
:1049B00007C0CEF103D00101CD6BCE6B040E010117
:1049C000F81901E1F95168E0030EF81901E1F95114
:1049D00023E0020EF81901E1F95111E0010EF81976
:1049E00001E1F95101E093D00301496B7F0E436F60
:1049F000446B010EE66EA5EC14F0E55288D003017D
:104A0000010E496F4A6B4B6B4C6B4D6B436B446BA8
:104A10000101CD6BCE6B7BD003014A6B4B6B4C6BB2
:104A20004D6B443504E243510008000E445504E246
:104A30003A0E436F446B06D0800E441503E0C60E59
:104A4000436F4469443504E243517408000E4455F1
:104A500001E208D0D880445104E78C0E435DFF0E7C
:104A6000445903E20101790E02D00101920ECD6F8B
:104A7000CE690B0E030153AF02D0D89003D0525D24
:104A8000000E535904E20101A60ECD6FCE69010E4E
:104A90000301456F466B3BD003014A6B4B6B4C6B7C
:104AA0004D6B443504E243510008000E445504E2C6
:104AB0003A0E436F446B06D0800E441503E0C60ED9
:104AC000436F4469443504E243517408000E445571
:104AD00001E208D0D880445104E78C0E435DFF0EFC
:104AE000445902E2870E01D06E0E0101CD6FCE6BEC
:104AF0000B0E030153AF02D0D89003D0525D000ECD
:104B0000535904E25A0E0101CD6FCE6B00D0030160
:104B10004A2B000E4B234C234D23D8904D51000AB5
:104B200008E6140E4A5D000E4B59000E4C59000E5B
:104B30004D5902E328EC1EF0740E030144AF02D07D
:104B4000D89003D0435D000E445904E37F0E436FB9
:104B5000446B0AD0443504E343518C08FF0E44559E
:104B600003E3810E436F4469CDC1E6FFCEC1E6FF8A
:104B700043C3E6FF44C3E6FF51EC0BF0E552E552B8
:104B8000E552E552CDC1E6FFCEC1E6FFC40EE66EAA
:104B9000510EE66E000EE66E89EC2BF0146E050EDB
:104BA000E15E1450F8C1FAF1F9C1FBF103014E2B9B
:104BB000000E4F23E66EE66A5BEC12F0E552E5521A
:104BC00069EC0EF020EC12F05EEC17F0020EE15CE6
:104BD00002E2E16AE552E16EE552E7CFD9FF120049
:0C4BE000010EE66E2EEC1EF0E5521200F5
:044BEC0081CFFCF287
:104BF000B6EC0EF00201010ED76F070EE66E76ECF2
:104C000022F0E552020EE66EBBEC22F0E5529EEC7D
:104C100029F0C2EC2AF08C0EE66E010EE66E67EC0F
:104C20000FF0E552E55229EC0FF00101CC910101A2
:104C3000ADAF23D00201010EFF6FFE6F0101CCA1C9
:104C400019D0AC0EE66E010EE66E2EEC0FF0E552BA
:104C5000E5520201FD0504E1FCEC27F00201FD6BC9
:104C6000FDEC27F08C0EE66E010EE66E67EC0FF0A1
:104C7000E552E552DCEC28F063D0ADAD31D0010156
:104C8000CCA12BD0AC0EE66E010EE66E2EEC0FF032
:104C9000E552E5520201FE0508E19FEC2AF037ECEF
:104CA00024F00201FE6B010EFF6F38EC24F09FC16F
:104CB000E6FF9EC1E6FF9DC1E6FF9CC1E6FFAAECB0
:104CC00029F0E552E552E552E5528C0EE66E010EF2
:104CD000E66E67EC0FF0E552E552F0EC25F030D0CF
:104CE0000101CCA12BD0AC0EE66E010EE66E2EECCF
:104CF0000FF0E552E5520201FF0508E19FEC2AF0B2
:104D000001EC2BF00201FF6B010EFE6F02EC2BF0A9
:104D10009FC1E6FF9EC1E6FF9DC1E6FF9CC1E6FF85
:104D2000AAEC29F0E552E552E552E5528C0EE66E0A
:104D3000010EE66E67EC0FF0E552E5522EEC2BF01B
:104D400076D71200D8CFE4FFE0CFE4FFE46EDACFED
:104D5000E4FFE2CFDAFFE9CFE4FFEACFE4FFF3CFED
:104D6000E4FFF4CFE4FF00EE00F0140EE80403E3E8
:104D7000EECFE4FFFBD7E652D9CFE6FFE1CFD9FF74
:104D8000020EE1269E50200B06E09D50200B03E012
:104D9000AEEC23F024D0A450200B06E0A350200B4F
:104DA00003E0CDEC23F01BD0A450080B07E0A35088
:104DB000080B04E0A496BEEC21F011D09E50100B1D
:104DC00006E09D50100B03E0ECEC23F008D0A4505B
:104DD000100B05E0A350100B02E004EC24F0020ECF
:104DE000E15C02E2E16AE552E16EE552E7CFD9FF0C
:104DF000E55200EE13F0140EE80403E3E5CFEDFFF7
:104E0000FBD7E5CFF4FFE5CFF3FFE5CFEAFFE5CF32
:104E1000E9FFE5CFDAFFE550E5CFE0FFE5CFD8FFCA
:024E2000100080
:0E4E22009384F09EF188F092F088120093863F
:104E3000F192F186F094F08A12009388938A938C11
:104E4000938EF190F290F2861200D9CFE6FFE1CF77
:104E5000D9FF040EE126F098F0C2DFFF010EF1C287
:104E6000DBFF020EF2C2DBFF030EF3C2DBFFF088B2
:104E7000DECF06F0DECF07F0DECF08F0DDCF09F0A1
:104E8000DD52DD52040EE15C03E200D0E16AE5523E
:104E9000E16EE552E7CFD9FF1200F0980201F06B06
:104EA000F16BF26BF36BF088120088B207D002014D
:104EB000F007000EF15BF25BF35B06D00201F02B12
:104EC000000EF123F223F3231200D9CFE6FFE1CF46
:104ED000D9FF040EE126F09AF4C2DFFF010EF5C2FD
:104EE000DBFF020EF6C2DBFF030EF7C2DBFFF08A28
:104EF000DECF06F0DECF07F0DECF08F0DDCF09F021
:104F0000DD52DD52040EE15C03E200D0E16AE552BD
:104F1000E16EE552E7CFD9FF1200F09A0201F46B7F
:104F2000F56BF66BF76BF08A120088B407D00201BC
:104F3000F407000EF55BF65BF75B06D00201F42B7D
:104F4000000EF523F623F7231200D9CFE6FFE1CFB9
:104F5000D9FF040EE126F296F8C2DFFF010EF9C276
:104F6000DBFF020EFAC2DBFF030EFBC2DBFFF286A1
:104F7000DECF06F0DECF07F0DECF08F0DDCF09F0A0
:104F8000DD52DD52040EE15C03E200D0E16AE5523D
:104F9000E16EE552E7CFD9FF1200F2960201F86BFD
:104FA000F96BFA6BFB6BF2861200D9CFE6FFE1CF0B
:104FB000D9FFFE0EDB0416E188B60AD00001FF051A
:104FC00006E10201F807000EF95BFA5BFB5B09D012
:104FD0000001FF5106E10201F82B000EF923FA232C
:104FE000FB2306D08850080B01E0010E0001FF6F83
:084FF000E552E7CFD9FF1200E2
:084FF8001200D9CFE6FFE1CF62
:10500000D9FF0C0EE12603017D2B000E7E237F2BA2
:1050100080230A0E7F1901E180510BE1540EE66EE8
:10502000520EE66E000EE66E89EC2BF0E552E5526C
:10503000E5520301260E7F1901E1805102E1C6EC21
:105040001DF00301820E7F1901E180511EE1D4ECB5
:105050001DF028EC1EF014EC1EF0060EF3CFDBFF63
:10506000070EF4CFDBFF060EDBCFE6FF070EDBCF2C
:10507000E6FF450EE66E520EE66E000EE66E89EC19
:105080002BF0146E050EE15E14500301230E7D1902
:1050900001E17E5105E1BF0E7F5D000E805902E205
:1050A000000E01D0010E000E000974E0BFEC1CF0F0
:1050B000F3CFDEFFF4CFDDFF47EC1DF0020E06C09C
:1050C000DBFF030E07C0DBFF040E08C0DBFF050E8D
:1050D00009C0DBFFDECFE6FFDDCFE6FF360EE66E72
:1050E000520EE66E000EE66E89EC2BF0146E050E85
:1050F000E15E1450020EDBCFE6FF030EDBCFE6FFCE
:10510000260EE66E520EE66E000EE66E89EC2BF071
:10511000146E050EE15E14500101B851E66EE66AA8
:10512000AE51800B01E0010EE66EE66AAE51200B37
:1051300001E0010EE66EE66AAE51400B01E0010EA1
:10514000E66EE66AAE51100B01E0010EE66EE66A0D
:10515000EF0EE66E510EE66E000EE66E89EC2BF059
:10516000146E0D0EE15E14500101B551E66EE66A53
:10517000B351E66EE66AB251E66EE66AD10EE66EAD
:10518000510EE66E000EE66E89EC2BF0146E090EE1
:10519000E15E14500301260E7D5D000E7E5902E390
:1051A0007D6B7E6B0C0EE15C02E2E16AE552E16E22
:1051B000E552E7CFD9FF1200010EE66E2EEC1EF08D
:0451C000E5521200A2
:0C51C4007475726E3A20253364200D0AC9
:1051D0000070313A20253364207C2070323A20253B
:1051E0003364207C2070343A202533640D0A006734
:1051F000723A202564207C20686F6D653A20256412
:10520000207C206C61756E63683A202564207C20C8
:1052100074696C743A202564207C20706F743A2085
:105220002533640D0A004779726F20416E676C6503
:105230003D25640D0A004779726F20526174653D07
:1052400025640D0A004779726F20426961733D251C
:10525000640D0A000D0A43616C63756C6174696EBC
:1052600067204779726F20426961732E2E2E0D0AD6
:10527000002A2A2A2057652064656661756C74656A
:10528000642E20536F6D657468696E6720697320A2
:105290007265616C6C792077726F6E672E20436146
:1052A0006C6C20746865206669726520627269673B
:1052B0006164652E0D0A004779726F20416E676C3C
:1052C000653D25640D0A0D0A00204779726F205252
:1052D0006174653D25640D0A00204779726F204294
:1052E0006961733D25640D0A00446F6E650D000D04
:1052F00043616C63756C6174696E67204779726F86
:1053000020426961732E2E2E00494649205573654F
:10531000722050726F636573736F7220496E697487
:1053200069616C697A6564202E2E2E0D0A00426533
:0C533000666F726520414443210D0A00A5
:04533C00B18EB186F7
:10534000B19CB19AB198B192A092A090A390A3926F
:10535000A3941200D9CFE6FFE1CFD9FF080EE126D2
:10536000B190B36AB26ABA6AB76A736A706AFE0EBB
:10537000DB50320DF3CF14F0F4CF15F0980E142655
:105380003A0E1522CE0E145E180E155A14C0DEFF0A
:1053900015C0DDFFFD0EDB50320DF3CF14F0F4CF5E
:1053A00015F0980E14263A0E1522CE0E145E180E25
:1053B000155A020E14C0DBFF030E15C0DBFFFC0EF6
:1053C000DB50320DF3CF14F0F4CF15F0980E142605
:1053D0003A0E1522CE0E145E180E155A040E14C085
:1053E000DBFF050E15C0DBFFFB0EDB50320DF3CFEC
:1053F00014F0F4CF15F0980E14263A0E1522CE0EA6
:10540000145E180E155A060E14C0DBFF070E15C0E9
:10541000DBFFDF50BB6EDECF14F0DDCF15F015C023
:1054200014F0156A1450BC6E020EDB50B86E020EFA
:10543000DBCF14F0030EDBCF15F015C014F0156AA6
:105440001450B96E040EDB50746E040EDBCF14F0F2
:10545000050EDBCF15F015C014F0156A1450756EEB
:10546000060EDB50716E060EDBCF14F0070EDBCF9D
:1054700015F015C014F0156A1450726EF29E090EE4
:10548000BA6EB76E736E706EB180F28E080EE15C0C
:1054900002E2E16AE552E16EE552E7CFD9FF120080
:1054A0001E0EF66E080EF76E000EF86E0301090070
:1054B000F550646F0900F550656F03E1646701D032
:1054C0003DD00900F5505F6F0900F550606F09008D
:1054D000F550616F09000900F550E96E0900F550BB
:1054E000EA6E090009000900F550626F0900F550E5
:1054F000636F09000900F6CF66F3F7CF67F3F8CFC3
:1055000068F35FC3F6FF60C3F7FF61C3F8FF0301F1
:10551000625302E1635307E00900F550EE6E620743
:10552000F8E26307F9D766C3F6FF67C3F7FF68C3FE
:10553000F8FF03016407000E655BBFD7120001018D
:105540007F0E906F916F926F936F946F956F966FC0
:10555000976F986F996F9A6F9B6F9C6F9D6F9E6FFF
:105560009F6F8D908C908D928C928D948C948D9653
:105570008C968D988C988D9A8C9A8D9C8C9C919001
:045580008C9E1200EB
:0C558400938493869388938A938C938E73
:1055900099809982998499869A829A849A8694802D
:1055A0009A889A8A9A8C9A8E8A948A968A988A9AE3
:1055B0008A9C8A9E909090929094909691929194C9
:1055C00091968B909198919A919C919E2E0EE66E59
:1055D000530EE66E000EE66E89EC2BF0E552E552B6
:1055E000E552B0EC20F0A1EC1CF0090EE66E530E73
:1055F000E66E000EE66E89EC2BF0E552E552E552C0
:10560000120012000001FD2B000EFE2357EC17F0D4
:10561000C8EC0AF00101B451146E156A153404E2A5
:1056200014509608000E155403E2010EE66E01D0E8
:10563000E66AA5EC14F0E5520101AFA302D0BAEC82
:105640000CF00101AFA102D0B7EC0CF033EC12F07A
:1056500069EC0EF05EEC17F0ECEF18F0010EE66E60
:085660002EEC1EF0E5521200D1
:0856680087A404D00301010E28
:105670006D6F696B03016D5108E08750040B05E104
:10568000692B6951050801E26D6B88A203D0010EF8
:105690006E6F6A6B6E5108E08850020B05E16A2B51
:1056A0006A51050801E26E6B88A403D0010E6F6F8A
:1056B0006B6B6F5108E08850040B05E16B2B6B514D
:1056C000050801E26F6B87A603D0010E706F6C6B4B
:1056D000705108E08750080B05E16C2B6C510508F0
:1056E00001E2706B6D5103E0010E12D011D06E51CA
:1056F00003E0020E0DD00CD06F5103E0030E08D072
:1057000007D0705103E0040E03D002D0000E00D089
:02571000120085
:0E571200D9CFE6FFDACFE6FFE1CFD9FFE2CF35
:10572000DAFFE652E652E652E652D950FB0F146E0B
:10573000FF0EDA20156E14C0DEFFDD6EDECFE6FF51
:10574000DDCFE6FFFB0EDBCFE6FFFC0EDBCFE6FF97
:10575000FD0EDBCFE6FF83C3E6FF84C3E6FF6EECFE
:1057600004F0146E070EE15C02E2E16AE552E16EBC
:105770001450020EF3CFDBFF030EF4CFDBFF020E5B
:10578000DBCF14F0030EDBCF15F014C0F3FF15C010
:10579000F4FF040EE15C02E2E16AE552E16EE552DB
:0A57A000E5CFDAFFE7CFD9FF1200D2
:0657AA00D9CFE6FFDACFC3
:1057B000E6FFE1CFD9FFE2CFDAFFFB0EDBCF14F03B
:1057C000FC0EDBCF15F00001800E15141AE1FB0E64
:1057D000DBCFE9FFFC0EDBCFEAFFEECFF3FFEDCF2F
:1057E000F4FFEE2A000EEF22F3CFE9FFF4CFEAFF39
:1057F000FD0EDBCFEFFFEF50156AF36E15C0F4FF1F
:1058000010D0FB0EDB50FE0806E1FD0EDBCFE6FFFD
:10581000FDEC2CF005D0FD0EDBCFE6FF1CEC24F0F8
:0E582000E552E552E5CFDAFFE7CFD9FF1200DF
:02582E00065022
:105830000B02F3CF02F0F4CF03F00C02F350032677
:10584000000EF420046E06500D02F3500426000EE4
:10585000F420056E06500E02F350052607500B0289
:10586000F3500326F4500422000E052207500C02C8
:10587000F3500426F450052207500D02F35005267C
:1058800008500B02F3500426F450052208500C0275
:0E589000F350052609500B02F35005261200B6
:02589E00FE0EFC
:1058A000E3CFE9FFFF0EE3CFEAFFF36AF46AEE52BB
:1058B00003E0F34AF42AFBD71200FF0EE3CFF8FF10
:1058C000E552FF0EE3CFF7FFE552FF0EE3CFF6FF01
:1058D000E552E66AE66AE66A0900F55209E0FD0E5D
:1058E000E32A05E1FE0EE32A02E1FF0EE32AF4D7E4
:1058F000FD0EE3CF07F0FE0EE3CF08F0FF0EE3CF7F
:0459000009F0120098
:0C590400056A046A036A026A200EE76E5E
:10591000D89006360736083609360236033604367E
:1059200005360B50025C0C5003580D5004580E50B5
:10593000055809E30B50025E0C50035A0D50045AEF
:0C5940000E50055A062AE72EE4D712008C
:04594C00436F7079BC
:10595000726967687420A93230303720522E204B8C
:105960006576696E20576174736F6E2E20416C6C82
:10597000207269676874732061726520726573654F
:06598000727665642E0042
:0A598600056A046A100EE76ED8905F
:1059900008360936043605360D50045C0E5005589D
:1059A00005E30D50045E0E50055A082AE72EF0D785
:0259B0001200E3
:0E59B2001EEE00F02EEE00F0F86A019C00EEF2
:1059C00000F00F0EEE6AEA62FDD750EC2AF0F6EC1A
:0659D00025F0FDD71200D6
:0A59D600F36AF46AFF0EE124E96EA3
:1059E000FF0EE220EA6EED6607D02F0EEF6404D0C2
:0A59F0003A0EEF6001D0F32A120016
:0659FA00FF0EE350ACBA01
:105A000004D0AF6AAB8EAC8A949CACA2FED7AD6ECC
:065A1000F36EF46A1200BF
:0A5A16003031323334353637383979
:075A2000616263646566002A
:095A270000000100000000000075
:105A30000100000000010000000000000100000063
:105A4000000000000900000000006009E8030000F9
:065A500000000000000050
:085A5600000000000000000048
:025A5E00FF0146
:025A6000010142
:0C5A620000000000000000000000000038
:025A6E00000135
:035A700000000033
:045A7300000000002F
:095A770000007F0000007F000028
:0A5A8000000000000100000000001B
:020000040030CA
:0100010006F8
:010002001EDF
:010003001EDE
:01000400F308
:010005008377
:010006008178
:01000800FFF8
:010009008076
:01000A00FFF6
:01000B008074
:01000C00FFF4
:01000D0000F2
:00000001FF
